:10000000C4C00000E2C00000E0C00000DEC000008C
:10001000DCC00000DAC00000D8C00000D6C000007C
:10002000D4C00000D2C00000D0C00000CEC000008C
:10003000CCC00000CAC000000C94A20A0C94CF0AE5
:100040000C94FC0A0C94290B0C94560B0C94830B07
:100050000C94B00B0C94DD0B0C940A0C0C94370C24
:10006000B4C00000B2C00000B0C00000AEC00000CC
:10007000ACC00000AAC00000A8C00000A6C00000DC
:10008000A4C00000A2C00000A0C000009EC00000EC
:100090009CC000009AC0000098C0000096C00000FC
:1000A00094C0000092C0000090C000008EC000000C
:1000B0008CC000008AC0000088C000000C94720D43
:1000C0000C949F0D0C94CC0D0C94F90D0C94260EF1
:1000D0000C94530E7AC0000078C0000076C0000077
:1000E00074C0000072C0000070C000006EC000004C
:1000F0006CC000006AC0000068C0000066C000005C
:1001000064C0000062C0000060C000005EC000006B
:100110005CC000005AC0000058C0000056C000007B
:1001200054C0000052C0000050C000004EC000008B
:100130004CC000000C94640C0C94910C0C94BE0CFC
:100140000C94EB0C0C94180D0C94450D3EC0000063
:100150003CC000003AC0000038C0000036C00000BB
:1001600034C0000032C0000030C000003C0941092A
:1001700046094B09520958095D09620968096E0967
:1001800074097B0982098909900911241FBECFEFE8
:10019000CDBFDFE3DEBF00E00CBF12E2A0E0B0E2C3
:1001A000ECECF4E200E00BBF02C007900D92AE3120
:1001B000B107D9F724E2AEE1B2E201C01D92A03747
:1001C000B207E1F79ED20C9464121ACF009709F49B
:1001D0005FC0811524E0920711F464E005C0803807
:1001E00021E0920719F462E080E050C0803823E0FB
:1001F000920711F461E005C0811522E0920719F41D
:1002000062E081E043C0811528E0920711F461E0CB
:1002100036C0811529E0920711F461E029C08115EB
:100220002AE0920711F461E030C0803428E09207A0
:1002300011F462E024C0803928E0920711F464E0F0
:100240001EC0803C28E0920711F468E018C0803C92
:1002500029E0920711F468E00BC0803A28E0920789
:1002600011F460E10CC0803A29E0920719F460E1D2
:1002700084E00CC0803824E0920719F460E483E045
:1002800005C0803A944021F460E485E00C94840A2F
:100290000895FC01218125FFFCCF608380E090E080
:1002A0000895FC01218127FFFCCF808108958F9262
:1002B0009F92AF92BF92CF92DF92EF92FF920F93F5
:1002C0001F93CF93DF93EC016A017B014801590131
:1002D0008C81B901A80182FF11C033E07695679542
:1002E000579547953A95D1F7D501C401E6E1B69502
:1002F000A79597958795EA95D1F710C094E07695E4
:100300006795579547959A95D1F7D901C80127E187
:10031000B695A795979587952A95D1F74C155D05C4
:100320006E057F0508F498C0C816D906EA06FB06D4
:1003300008F492C08C8182FD04C0CC0CDD1CEE1C44
:10034000FF1CC501B401A70196010E94191119EF04
:100350008FEF90E0A0E0B0E0281739074A075B076D
:1003600058F0880F991FAA1FBB1F1D3F0CF4816016
:100370001F5F173089F749C017FF47C0D701C60173
:10038000F3E0880F991FAA1FBB1FFA95D1F7881AAF
:10039000990AAA0ABB0A812F012E000C990B1E3F55
:1003A000DCF42DEF3FEFA901481B590B04C0880C6A
:1003B000991CAA1CBB1C4A95D2F7D701C601B69559
:1003C000A79597958795BC01CD01680D791D8A1D6C
:1003D0009B1DA701960116C00396A701960104C0B4
:1003E000220F331F441F551F8A95D2F7DA01C90126
:1003F000B695A79597958795BC01CD01680D791D98
:100400008A1D9B1D0E9419111DC083E0810FA70149
:10041000960104C0220F331F441F551F8A95D2F73F
:10042000DA01C901B695A79597958795BC01CD01CD
:10043000680D791D8A1D9B1D0E94191121503109DB
:1004400041095109932F9F70812F8295807F892BBD
:100450008F832E8381E001C080E0DF91CF911F91D7
:100460000F91FF90EF90DF90CF90BF90AF909F9053
:100470008F9008950F931F93CF93DF93EC018B011F
:10048000A5DE8D818F738D83F80195818481982BF2
:100490008681811188E0892B8D83F801408151810B
:1004A0006281738100E115E720E730E0CE01FFDED5
:1004B0009C8198609C839C8190619C83DF91CF910B
:1004C0001F910F910895CF93DF93C42FD52FDC0197
:1004D0009D01281B390B2617370728F52C912A3345
:1004E0003CF02062022E000C330B2755310905C069
:1004F000022E000C330B205331091196EC91119709
:10050000EA333CF0E0620E2E000CFF0BE755F109D8
:1005100004C00E2E000CFF0BF0972295207FE22BDB
:10052000E9931296D5CFCA01DF91CF9108951F9319
:10053000CF93DF93DA019C01260F371F82179307B1
:10054000B9F0EC01FC011191CF01E12FE295EF70C0
:10055000F0E0EA5FFF4DE081EC93E881EF70F0E0BE
:10056000EA5FFF4DE0811196EC9311971296E6CF6A
:10057000660F771FFA01E60FF71F1082DF91CF9108
:100580001F910895809120229091212201968093BD
:1005900020229093212280911E2290911F22019669
:1005A00080931E2290931F22E0E0F8E08485816012
:1005B00084870895CF93DF93CDB7DEB72797CDBF5C
:1005C000DEBF7AD7E0E4F6E088E0818384E08283CE
:1005D000E0E0F6E081E0818380E28183868380E44D
:1005E00081838583E6E1F0E284818D8385818E833A
:1005F00086818F8380819181A281B38189839A834F
:10060000AB83BC8360E183E07FD7BE016F5F7F4F28
:1006100080EA98E02FDF87E08093A20080E098E0F6
:100620000E94800E62EC72E080E098E00E94BA0EB8
:10063000E0E0F8E08181887F818381EE92E086A30B
:1006400097A386818C7F8683868181608683789458
:1006500080858E6F80872796CDBFDEBFDF91CF91DB
:100660000895EF92FF920F931F93CF93DF93CDB72F
:10067000DEB72597CDBFDEBFFC0160E177E20E94C7
:1006800005116983CF0168EE73E00E940511CB016B
:100690002AE030E0B9010E9405118A83CF0164E6A7
:1006A00070E00E940511CB01B9010E9405118B83F6
:1006B000CF01B9010E940511482FCB01B9010E9459
:1006C00005118C834D838E010F5F1F4F7E0186E0E5
:1006D000E80EF11CF80161918F01605D80EA98E0FD
:1006E000D8DD0E151F05B1F76AE080EA98E025967F
:1006F000CDBFDEBFDF91CF911F910F91FF90EF90A3
:10070000C8CD58DFD0E0C0E080EA98E0CADD883785
:1007100019F4D0E0C0E0F8CF8B3619F4D1E0C0E096
:10072000F3CF803719F4D2E0C0E0EECFD13091F4AE
:100730006C2F70E0FB01EE59FD4D8A3019F08D30C1
:1007400009F062C0108242E053E282E692E2BBDE30
:10075000D0E0DACFD230C1F68A3019F08D3009F00E
:100760004BC06C2F70E0FB01EE59FD4D108242EA48
:1007700052E282E692E2A7DE10922008109221084F
:1007800080910008807F81608093000862EA72E2B5
:1007900082EF92E22AD6E0902008F0902108809122
:1007A0000008807F8093000842E652E260E170E03A
:1007B00082EF92E2BCDE62E780EA98E06ADD02E660
:1007C00012E2F80161918F0180EA98E062DDF2E2C5
:1007D00002381F07B1F76AE080EA98E05ADD80919D
:1007E0002022909121223DDFC7013BDF1092202281
:1007F00010922122D0E088CFC03410F0D0E084CF16
:10080000EC2FF0E0EE59FD4D8083CF5F7DCF7F92DE
:100810008F929F92AF92BF92CF92DF92EF92FF9210
:100820000F931F93CF93DF936B017C01742E052FE1
:10083000C2E0D3E2699170E080E090E00E94E00FB6
:1008400020E030E04AE754E40E944C0F2CE53FE8FA
:1008500042E05FE30E94E40E4B015C0114E1A7015A
:100860009601C501B4010E94921018164CF4A5011E
:100870009401C701B6010E944C0F6B017C011AC0A4
:10088000A701960160E070E080E89FE30E94E30E1C
:100890006B017C01A501940160E070E080E89FE3BA
:1008A0000E94E30E9B01AC01C701B6010E944C0FF0
:1008B0006B017C01115099F683E2C231D80709F02F
:1008C000B9CFC4E6A7019601C501B4010E949210F8
:1008D00018164CF4A5019401C701B6010E944C0FF3
:1008E0006B017C011AC0A701960160E070E080E80E
:1008F0009FE30E94E30E6B017C01A501940160E07F
:1009000070E080E89FE30E94E30E9B01AC01C70109
:10091000B6010E944C0F6B017C01C15099F6C72DA6
:10092000D02F8E01005D1F4FA7019601C501B401B4
:100930000E94921018164CF4A5019401C701B6014B
:100940000E944C0F6B017C011AC0A701960160E068
:1009500070E080E89FE30E94E30E6B017C01A5013B
:10096000940160E070E080E89FE30E94E30E9B0149
:10097000AC01C701B6010E944C0F6B017C0120E065
:1009800030E040E853E4C701B6010E9496100E948F
:10099000B40F69930C171D0739F6A7019601C5011D
:1009A000B4010E94921018163CF4A5019401C701ED
:1009B000B6010E944C0F18C0A701960160E070E0DC
:1009C00080E89FE30E94E30E6B017C01A501940186
:1009D00060E070E080E89FE30E94E30E9B01AC01C1
:1009E000C701B6010E944C0F6093322270933322EC
:1009F0008093342290933522DF91CF911F910F91F4
:100A0000FF90EF90DF90CF90BF90AF909F908F902E
:100A10007F90089542E153E267E674E489E19FE341
:100A2000F6CE3F924F925F926F927F928F929F92FB
:100A3000AF92BF92CF92DF92EF92FF920F931F93EC
:100A4000CF93DF934B015C0129013A01802F90E0A5
:100A50000E944311EC01D82E3D2E4096EC2FFD2F25
:100A60001192E817F907E1F710E0CC24C394A5012F
:100A70009401C301B2010E9492101816DCF0A50186
:100A8000940160E070E080E89FE30E94E30E4B0178
:100A90005C01A301920160E070E080E89FE30E94A6
:100AA000E30E9B01AC01C501B4010E944C0F4B0148
:100AB0005C0108C0A3019201C501B4010E944C0F62
:100AC0004B015C01A5019401C301B2010E94921087
:100AD0001816DCF0A501940160E070E080E89FE367
:100AE0000E94E30E4B015C01A301920160E070E003
:100AF00080E89FE30E94E30E9B01AC01C501B401B5
:100B00000E944C0F4B015C0108C0A3019201C5017A
:100B1000B4010E944C0F4B015C0120E030E04FE734
:100B200053E4C501B4010E9496100E94B40F862FB1
:100B3000602F0E94F910FE01E90FF11D80818111E3
:100B400007C0D701A10FB11D9C93C0821F5F10C0C9
:100B500026E636E646E65FE3C501B4010E9496103C
:100B60002DEC3CEC4CE45DE30E94E40E4B015C0197
:100B7000ED2DF32D80E09E2F9D19901718F4919183
:100B8000890FF9CF803108F472CFCE01DF91CF9178
:100B90001F910F91FF90EF90DF90CF90BF90AF909B
:100BA0009F908F907F906F905F904F903F900C94AC
:100BB000DB114F925F926F927F928F929F92AF92D2
:100BC000BF92CF92DF92EF92FF920F931F93CF933A
:100BD000DF936B017C01C2E4D3E2699170E080E0B5
:100BE00090E00E94E20F2FE632E143E85AE30E94D0
:100BF00096102CE53FE842E05FE30E94E40E4B01D3
:100C00005C011AE0A7019601C501B4010E9492108F
:100C100018164CF4A5019401C701B6010E944C0FAF
:100C20006B017C011AC0A701960160E070E080E8CA
:100C30009FE30E94E30E6B017C01A501940160E03B
:100C400070E080E89FE30E94E30E9B01AC01C701C6
:100C5000B6010E944C0F6B017C01115099F683E2A2
:100C6000C235D80709F0B9CFA7019601C501B40173
:100C70000E94921018164CF4A5019401C701B60108
:100C80000E944C0F6B017C011AC0A701960160E025
:100C900070E080E89FE30E94E30E6B017C01A501F8
:100CA000940160E070E080E89FE30E94E30E9B0106
:100CB000AC01C701B6010E944C0F6B017C0120E022
:100CC00030E04FE753E4C701B6010E9496100E943E
:100CD000B40F60935223A7019601C501B4010E948D
:100CE000921018164CF4A5019401C701B6010E9498
:100CF0004C0F6B017C011AC0A701960160E070E007
:100D000080E89FE30E94E30E6B017C01A501940142
:100D100060E070E080E89FE30E94E30E9B01AC017D
:100D2000C701B6010E944C0F6B017C0120E030E04E
:100D30004FE753E4C701B6010E9496100E94B40F1A
:100D400060936424C3E5D3E203E613E2A7019601AE
:100D5000C501B4010E94921018164CF4A50194012B
:100D6000C701B6010E944C0F6B017C011AC0A7019C
:100D7000960160E070E080E89FE30E94E30E6B0163
:100D80007C01A501940160E070E080E89FE30E948F
:100D9000E30E9B01AC01C701B6010E944C0F6B0131
:100DA0007C0120E030E04FE753E4C701B6010E9428
:100DB00096100E94B40F69930C171D0739F6A7010E
:100DC0009601C501B4010E94921018164CF4A501B9
:100DD0009401C701B6010E944C0F2B013C0118C0C1
:100DE000A701960160E070E080E89FE3ECD76B011B
:100DF0007C01A501940160E070E080E89FE3E3D707
:100E00009B01AC01C701B6010E944C0F2B013C01B4
:100E100020E030E04FE753E4C301B2010E94961096
:100E20000E94B40F60936524A5019401C301B2012F
:100E30000E94480F87FF09C0A5019401C301B201B8
:100E40000E944C0F2B013C0118C0A301920160E0ED
:100E500070E080E89FE3B7D76B017C01A5019401A6
:100E600060E070E080E89FE3AED79B01AC01C70172
:100E7000B6010E944C0F2B013C0120E030E04FE70F
:100E800053E4C301B2010E9496100E94B40F66237E
:100E900059F26093632482E2E82E82E2F82E00E1A8
:100EA000A5019401C301B201BCDDDF91CF911F9177
:100EB0000F91FF90EF90DF90CF90BF90AF909F90F9
:100EC0008F907F906F905F904F900895ADE1B1E269
:100ED00020E030E0482F50E09D91FA01E227F3270F
:100EE000ED59FC4D962790832F5F3F4F211581E0F0
:100EF000380791F70895FC019C01205F3F4F8081E6
:100F000086278193E217F307D1F70895EF92FF92B6
:100F10000F931F93CF93DF938C01EB01E2E2F2E298
:100F200042E352E2219130E07801E20EF31E2C0FF1
:100F30003D1FD7017C91D9019C919727D7019C93A4
:100F40004E175F0779F7DF91CF911F910F91FF90B7
:100F5000EF900895CF93DF93AC01E2E2F2E222E357
:100F600032E28191DA01A80FB11D9C91EB01C90F0A
:100F7000D11D98819C932E173F0799F7DF91CF9150
:100F80000895282F30E0220F331F87FD02C080E034
:100F900001C08BE182270895CF92DF92EF92FF92FA
:100FA0000F931F93CF93DF93CDB7DEB72897CDBFB5
:100FB000DEBFE82EF62EFE01319688E0DF011D929D
:100FC0008A95E9F7E9828F016E01B8E0CB0ED11C5A
:100FD000F80181918F01D5DFD8018C93C016D1061D
:100FE000B9F78F2D81708E9D802D1124FE013296D0
:100FF00041E050E06F2D70E091919B01042E02C002
:10100000359527950A94E2F72170299F202D112408
:1010100082274F5F5F4F4830510571F72896CDBF4B
:10102000DEBFDF91CF911F910F91FF90EF90DF9086
:10103000CF9008957F928F929F92AF92BF92CF925E
:10104000DF92EF92FF920F931F93CF93DF93CDB771
:10105000DEB7A097CDBFDEBF80915323898B709000
:101060006324788AA3E5B3E292E4E92E93E2F92EB1
:10107000F7018D9190818927819383E2E235F8070A
:10108000C1F790916424E2E4F3E28081892781939F
:10109000A3E2E235FA07C9F744E553E28E010F5E99
:1010A0001F4FC801A2E4B3E221E011966C911197A1
:1010B0003C91362711963C931197FA013191AF017B
:1010C000FC016081362731832F5F11960196203114
:1010D00061F7809165249E012F5D3F4FA2E4B3E24A
:1010E000F8019081982791938F014C9194279D93BB
:1010F0002E173F07A9F7672D4FDFD82E02E413E222
:10110000672DD8018C9148DF8D25F80181938F01DF
:10111000F3E202351F07A1F7CE0101966C014E01E3
:101120009EE0891A9108860182E4A82E83E2B82EF7
:10113000D5011F968C91811103C0F80176860DC0F0
:10114000D5011E966C9128DFF5018687D8011F9680
:101150006C91872D21DFF8018687F1E0AF1AB10885
:10116000015011090815190519F700915223D601EC
:101170001D916D01612F802F0FDFE12FF0E0E35E05
:10118000FF4DD7019C916081892706DFF70181938C
:101190007F01F2E5EF16F3E2FF0649F7A096CDBF17
:1011A000DEBFDF91CF911F910F91FF90EF90DF9005
:1011B000CF90BF90AF909F908F907F9008952F9287
:1011C0003F924F925F926F927F928F929F92AF92D7
:1011D000BF92CF92DF92EF92FF920F931F93CF9324
:1011E000DF93CDB7DEB7A597CDBFDEBFDC019E0193
:1011F0002F5E3F4F298B3A8B662309F4E0C0388875
:1012000059806A807B802C80DD80DD8AEE80EB8ACD
:101210004F8088849984AA84BB84FC84FAA22D859B
:101220002BA33E853CA39F859DA31D8E1C8E1B8EEC
:101230001A8E198E188E1F8A1E8A00E010E070E048
:101240001C8A50E040E030E020E090E0C92ED12C34
:10125000E12CF12CCE8EDF8EE8A2F9A2F6013197B7
:10126000EF30F10530F48827EA54FF4F8F4F0C948C
:101270003B115C9021E059C01E966C901E9731E0A6
:1012800054C018967C90189741E04FC016962C9049
:10129000169751E04AC01796DC901797DD8A81E0D7
:1012A0008C8B43C01196CC901197CB8A71E03DC0D6
:1012B0001F964C901F9711E038C019968C90199783
:1012C00001E033C01A969C901A9781E08D8F2DC053
:1012D0001496AC901497E1E0EE8B27C01296BC9068
:1012E0001297F1E0FF8B21C01C96CC901C97CAA2EC
:1012F00081E0888F1AC01D96CC901D97CBA281E00B
:10130000898F13C01B96CC901B97CCA281E08A8F4B
:101310000CC01596CC901597CDA281E08B8F05C09F
:1013200013963C901397E1E0EC8F9F5F903109F0AA
:101330008DCF2111598231116A8241117B82511165
:101340002C82CC88CC2011F0DD88DD82772311F04F
:10135000EB88EE8211114F8201118886FE88F11010
:10136000AA862F892111BB86388D332311F09AA1CB
:101370009C87C98CCC2011F0DBA0DD86EA8CEE20A6
:1013800011F0FCA0FE862B8D222311F03DA13F879A
:101390009C8D9111388ACD8CC1109986AE014F5F1A
:1013A0005F4FCD01FA012191AF01FC012193CF01E3
:1013B000C988DA884C155D05A9F761501DCFA5963F
:1013C000CDBFDEBFDF91CF911F910F91FF90EF90C6
:1013D000DF90CF90BF90AF909F908F907F906F9055
:1013E0005F904F903F902F900895EF92FF920F9350
:1013F0001F93CF93DF937C0102E413E2F801DB013A
:101400008D91BD018193B3E2E235FB07C1F702DBA9
:101410006091322270913322809134229091352252
:10142000C8DB609164248091522350DD81E0809379
:1014300005066091522382E493E25DDDC2E1D3E2CE
:10144000BE0182E493E262DD63E673E282E493E24A
:1014500081DD82E493E2EEDD21E041E061E082E4BF
:1014600093E2ADDE609683E2C234D80749F760911B
:10147000522382E493E23FDD81E080930606F70188
:10148000D8018D918D018193B3E202351B07C1F71D
:10149000DF91CF911F910F91FF90EF900895CF931F
:1014A000DF931F92CDB7DEB78FB78983F894898118
:1014B0000F90DF91CF9108958FEF8093700080930C
:1014C0007100809372008093730080937400809306
:1014D00075008093760010925200E1DF90915000E9
:1014E0009860909350008FBF8091510083FFFCCF94
:1014F00063E080E490E061D4D2DF909150009E7F61
:10150000909350008FBF0895CF93DF93C82FD62FAD
:10151000C6DFEC2FF0E0E059FF4FD0959081D92342
:10152000D0838FBFDF91CF910895CF93DF931F9228
:10153000CDB7DEB78FB78983F89489810F90DF919B
:10154000CF9108951F920F920FB60F9211240BB6F0
:101550000F922F933F934F935F936F937F938F934C
:101560009F93AF93BF93EF93FF93E0916022F0912D
:101570006122309709F01995FF91EF91BF91AF91DA
:101580009F918F917F916F915F914F913F912F919B
:101590000F900BBE0F900FBE0F901F9018951F92CB
:1015A0000F920FB60F9211240BB60F922F933F9309
:1015B0004F935F936F937F938F939F93AF93BF935B
:1015C000EF93FF93E0915E22F0915F22309709F054
:1015D0001995FF91EF91BF91AF919F918F917F915D
:1015E0006F915F914F913F912F910F900BBE0F9094
:1015F0000FBE0F901F9018951F920F920FB60F926B
:1016000011240BB60F922F933F934F935F936F93D9
:101610007F938F939F93AF93BF93EF93FF93E0914B
:101620005C22F0915D22309709F01995FF91EF91BE
:10163000BF91AF919F918F917F916F915F914F91EA
:101640003F912F910F900BBE0F900FBE0F901F90E8
:1016500018951F920F920FB60F9211240BB60F928E
:101660002F933F934F935F936F937F938F939F93AA
:10167000AF93BF93EF93FF93E0915A22F0915B22D7
:10168000309709F01995FF91EF91BF91AF919F911C
:101690008F917F916F915F914F913F912F910F901B
:1016A0000BBE0F900FBE0F901F9018951F920F92B8
:1016B0000FB60F9211240BB60F922F933F934F93B7
:1016C0005F936F937F938F939F93AF93BF93EF93AA
:1016D000FF93E0915822F0915922309709F0199523
:1016E000FF91EF91BF91AF919F918F917F916F91FA
:1016F0005F914F913F912F910F900BBE0F900FBEB6
:101700000F901F9018951F920F920FB60F921124F1
:101710000BB60F922F933F934F935F936F937F93EB
:101720008F939F93AF93BF93EF93FF93E0915622D4
:10173000F0915722309709F01995FF91EF91BF91E1
:10174000AF919F918F917F916F915F914F913F9159
:101750002F910F900BBE0F900FBE0F901F901895FA
:101760001F920F920FB60F9211240BB60F922F9368
:101770003F934F935F936F937F938F939F93AF9319
:10178000BF93EF93FF93E0915422F091552230974D
:1017900009F01995FF91EF91BF91AF919F918F91B2
:1017A0007F916F915F914F913F912F910F900BBE61
:1017B0000F900FBE0F901F9018951F920F920FB6AB
:1017C0000F9211240BB60F922F933F934F935F9379
:1017D0006F937F938F939F93AF93BF93EF93FF93F9
:1017E000E0915222F0915322309709F01995FF9120
:1017F000EF91BF91AF919F918F917F916F915F9189
:101800004F913F912F910F900BBE0F900FBE0F90F5
:101810001F9018951F920F920FB60F9211240BB6BE
:101820000F922F933F934F935F936F937F938F9379
:101830009F93AF93BF93EF93FF93E0915022F0916A
:101840005122309709F01995FF91EF91BF91AF9117
:101850009F918F917F916F915F914F913F912F91C8
:101860000F900BBE0F900FBE0F901F9018951F92F8
:101870000F920FB60F9211240BB60F922F933F9336
:101880004F935F936F937F938F939F93AF93BF9388
:10189000EF93FF93E0914E22F0914F22309709F0A1
:1018A0001995FF91EF91BF91AF919F918F917F918A
:1018B0006F915F914F913F912F910F900BBE0F90C1
:1018C0000FBE0F901F9018951F920F920FB60F9298
:1018D00011240BB60F922F933F934F935F936F9307
:1018E0007F938F939F93AF93BF93EF93FF93E09179
:1018F0004C22F0914D22309709F01995FF91EF910C
:10190000BF91AF919F918F917F916F915F914F9117
:101910003F912F910F900BBE0F900FBE0F901F9015
:1019200018951F920F920FB60F9211240BB60F92BB
:101930002F933F934F935F936F937F938F939F93D7
:10194000AF93BF93EF93FF93E0914A22F0914B2224
:10195000309709F01995FF91EF91BF91AF919F9149
:101960008F917F916F915F914F913F912F910F9048
:101970000BBE0F900FBE0F901F9018951F920F92E5
:101980000FB60F9211240BB60F922F933F934F93E4
:101990005F936F937F938F939F93AF93BF93EF93D7
:1019A000FF93E0914822F0914922309709F0199570
:1019B000FF91EF91BF91AF919F918F917F916F9127
:1019C0005F914F913F912F910F900BBE0F900FBEE3
:1019D0000F901F9018951F920F920FB60F9211241F
:1019E0000BB60F922F933F934F935F936F937F9319
:1019F0008F939F93AF93BF93EF93FF93E091462212
:101A0000F0914722309709F01995FF91EF91BF911E
:101A1000AF919F918F917F916F915F914F913F9186
:101A20002F910F900BBE0F900FBE0F901F90189527
:101A30001F920F920FB60F9211240BB60F922F9395
:101A40003F934F935F936F937F938F939F93AF9346
:101A5000BF93EF93FF93E0914422F091452230979A
:101A600009F01995FF91EF91BF91AF919F918F91DF
:101A70007F916F915F914F913F912F910F900BBE8E
:101A80000F900FBE0F901F9018951F920F920FB6D8
:101A90000F9211240BB60F922F933F934F935F93A6
:101AA0006F937F938F939F93AF93BF93EF93FF9326
:101AB000E0914222F0914322309709F01995FF916D
:101AC000EF91BF91AF919F918F917F916F915F91B6
:101AD0004F913F912F910F900BBE0F900FBE0F9023
:101AE0001F9018951F920F920FB60F9211240BB6EC
:101AF0000F922F933F934F935F936F937F938F93A7
:101B00009F93AF93BF93EF93FF93E0914022F091A7
:101B10004122309709F01995FF91EF91BF91AF9154
:101B20009F918F917F916F915F914F913F912F91F5
:101B30000F900BBE0F900FBE0F901F9018951F9225
:101B40000F920FB60F9211240BB60F922F933F9363
:101B50004F935F936F937F938F939F93AF93BF93B5
:101B6000EF93FF93E0913E22F0913F22309709F0EE
:101B70001995FF91EF91BF91AF919F918F917F91B7
:101B80006F915F914F913F912F910F900BBE0F90EE
:101B90000FBE0F901F9018951F920F920FB60F92C5
:101BA00011240BB60F922F933F934F935F936F9334
:101BB0007F938F939F93AF93BF93EF93FF93E091A6
:101BC0003C22F0913D22309709F01995FF91EF9159
:101BD000BF91AF919F918F917F916F915F914F9145
:101BE0003F912F910F900BBE0F900FBE0F901F9043
:101BF00018951F920F920FB60F9211240BB60F92E9
:101C00002F933F934F935F936F937F938F939F9304
:101C1000AF93BF93EF93FF93E0913A22F0913B2271
:101C2000309709F01995FF91EF91BF91AF919F9176
:101C30008F917F916F915F914F913F912F910F9075
:101C40000BBE0F900FBE0F901F9018951F920F9212
:101C50000FB60F9211240BB60F922F933F934F9311
:101C60005F936F937F938F939F93AF93BF93EF9304
:101C7000FF93E0913822F0913922309709F01995BD
:101C8000FF91EF91BF91AF919F918F917F916F9154
:101C90005F914F913F912F910F900BBE0F900FBE10
:101CA0000F901F9018951F920F920FB60F9211244C
:101CB0000BB60F922F933F934F935F936F937F9346
:101CC0008F939F93AF93BF93EF93FF93E09136224F
:101CD000F0913722309709F01995FF91EF91BF915C
:101CE000AF919F918F917F916F915F914F913F91B4
:101CF0002F910F900BBE0F900FBE0F901F90189555
:101D00001F93CF93DF93EC0110DC182FC11588E0EF
:101D1000D80711F461E005C0C03488E0D80731F479
:101D200062E083E0F1DB64E083E012C0C11589E08A
:101D3000D80731F461E084E0E7DB64E084E008C0C8
:101D4000C115DA4091F461E085E0DEDB64E085E016
:101D5000DBDB809167248F3F09F4FFCFE6DB9091B6
:101D600067249F5F909367248FBF1FBFDF91CF9140
:101D70001F910895811528E0920729F4609360224D
:101D8000709361220895803428E0920729F46093CB
:101D90005422709355220895811529E0920729F461
:101DA00060934C2270934D22089581159A4021F43E
:101DB000609340227093412208951BBEFC0128EDE0
:101DC00024BF608308955058BB27AA270ED070C146
:101DD00061D130F066D120F031F49F3F11F41EF450
:101DE00056C10EF4E095E7FB4CC1E92F72D180F3A8
:101DF000BA17620773078407950718F071F49EF508
:101E00008AC10EF4E0950B2EBA2FA02D0B01B9015B
:101E100090010C01CA01A0011124FF27591B99F060
:101E2000593F50F4503E68F11A16F040A22F232F6C
:101E3000342F4427585FF3CF469537952795A795BC
:101E4000F0405395C9F77EF41F16BA0B620B730B63
:101E5000840BBAF09150A1F0FF0FBB1F661F771FD4
:101E6000881FC2F70EC0BA0F621F731F841F48F489
:101E7000879577956795B795F7959E3F08F0B3CF0F
:101E80009395880F08F09927EE0F979587950895F9
:101E9000D4D008F481E008950CD00AC102D140F0FA
:101EA000F9D030F021F45F3F19F0EBC0511134C18B
:101EB000EEC00FD198F39923C9F35523B1F3951BC5
:101EC000550BBB27AA2762177307840738F09F5F5B
:101ED0005F4F220F331F441FAA1FA9F333D00E2ECA
:101EE0003AF0E0E830D091505040E695001CCAF737
:101EF00029D0FE2F27D0660F771F881FBB1F2617FC
:101F000037074807AB07B0E809F0BB0B802DBF01CE
:101F1000FF2793585F4F2AF09E3F510568F0B1C0EC
:101F2000FBC05F3FECF3983EDCF3869577956795B1
:101F3000B795F7959F5FC9F7880F911D969587957F
:101F400097F90895E1E0660F771F881FBB1F62179E
:101F500073078407BA0720F0621B730B840BBA0B5C
:101F6000EE1F88F7E0950895BCD088F09F5790F059
:101F7000B92F9927B751A0F0D1F0660F771F881FAE
:101F8000991F1AF0BA95C9F712C0B13081F0C3D0C9
:101F9000B1E00895C0C0672F782F8827B85F39F067
:101FA000B93FCCF3869577956795B395D9F73EF40D
:101FB00090958095709561957F4F8F4F9F4F0895B5
:101FC000E89409C097FB3EF49095809570956195D3
:101FD0007F4F8F4F9F4F9923A9F0F92F96E9BB2789
:101FE0009395F695879577956795B795F111F8CF05
:101FF000FAF4BB0F11F460FF1BC06F5F7F4F8F4F70
:102000009F4F16C0882311F096E911C0772321F065
:102010009EE8872F762F05C0662371F096E8862FFD
:1020200070E060E02AF09A95660F771F881FDAF754
:10203000880F9695879597F90895990F0008550F81
:10204000AA0BE0E8FEEF16161706E807F907C0F03E
:1020500012161306E407F50798F0621B730B840B46
:10206000950B39F40A2661F0232B242B252B21F420
:1020700008950A2609F4A140A6958FEF811D811DC0
:10208000089597F99F6780E870E060E008959FEFFA
:1020900080EC089500240A941616170618060906FF
:1020A000089500240A9412161306140605060895CE
:1020B000092E0394000C11F4882352F0BB0F40F456
:1020C000BF2B11F460FF04C06F5F7F4F8F4F9F4F96
:1020D000089557FD9058440F551F59F05F3F71F018
:1020E0004795880F97FB991F61F09F3F79F087957F
:1020F0000895121613061406551FF2CF4695F1DF08
:1021000008C0161617061806991FF1CF8695710597
:10211000610508940895E894BB2766277727CB01CB
:1021200097F908958ADF08F48FEF08950BD0C0CF98
:10213000B1DF28F0B6DF18F0952309F0A2CFA7CFC2
:102140001124EACFC6DFA0F3959FD1F3950F50E09D
:10215000551F629FF001729FBB27F00DB11D639F59
:10216000AA27F00DB11DAA1F649F6627B00DA11DFF
:10217000661F829F2227B00DA11D621F739FB00DA5
:10218000A11D621F839FA00D611D221F749F332715
:10219000A00D611D231F849F600D211D822F762FAE
:1021A0006A2F11249F5750408AF0E1F088234AF0AB
:1021B000EE0FFF1FBB1F661F771F881F91505040F7
:1021C000A9F79E3F510570F05CCFA6CF5F3FECF3BF
:1021D000983EDCF3869577956795B795F795E795E3
:1021E0009F5FC1F7FE2B880F911D9695879597F9F4
:1021F0000895991B79E004C0991F961708F0961B63
:10220000881F7A95C9F780950895AA1BBB1B51E1D9
:1022100007C0AA1FBB1FA617B70710F0A61BB70B56
:10222000881F991F5A95A9F780959095BC01CD01FB
:102230000895A1E21A2EAA1BBB1BFD010DC0AA1F07
:10224000BB1FEE1FFF1FA217B307E407F50720F01F
:10225000A21BB30BE40BF50B661F771F881F991F9A
:102260001A9469F760957095809590959B01AC01E3
:10227000BD01CF010895EE0FFF1F881F8BBF079090
:10228000F691E02D19940F931F93CF93DF93823033
:10229000910510F482E090E0E0916E24F0916F24BB
:1022A00020E030E0A0E0B0E0309719F140815181AA
:1022B0000281138148175907C8F08417950769F4FC
:1022C000109731F012960C93129713961C9327C017
:1022D00000936E2410936F2422C02115310519F04C
:1022E0004217530718F49A01BD01EF01DF01F8010D
:1022F000DBCF21153105F9F0281B390B24303105CE
:1023000080F48A819B816115710521F0FB01828334
:10231000938304C080936E2490936F24FE013296C1
:1023200044C0FE01E20FF31F8193919322503109C3
:10233000288339833AC020916C2430916D24232B5B
:1023400041F4209102203091032020936C2430939B
:102350006D2420910020309101202115310541F498
:102360002DB73EB74091042050910520241B350B1A
:10237000E0916C24F0916D24E217F307A0F42E1B7A
:102380003F0B2817390778F0AC014E5F5F4F2417D9
:10239000350748F04E0F5F1F40936C2450936D2417
:1023A0008193919302C0E0E0F0E0CF01DF91CF9103
:1023B0001F910F910895CF93DF93009709F481C087
:1023C000FC01329712821382A0916E24B0916F2487
:1023D000109781F420813181820F931F20916C240A
:1023E00030916D242817390751F5E0936C24F09350
:1023F0006D2467C0ED0120E030E0CE17DF0740F428
:102400004A815B819E0141155105F1F0EA01F5CF4A
:10241000C283D38340815181840F951FC817D90788
:1024200059F488819981840F951F02968083918346
:102430008A819B81828393832115310529F4E0935E
:102440006E24F0936F243DC0E901EA83FB83499138
:102450005991C40FD51FEC17FD0761F4808191815C
:10246000840F951F0296E901888399838281938165
:102470008A839B83E0E0F0E012968D919C91139704
:10248000009719F0FD01DC01F7CF8D919C91119718
:102490009D012E5F3F4F820F931F20916C2430913E
:1024A0006D242817390769F4309729F410926E24A7
:1024B00010926F2402C012821382A0936C24B093F6
:0C24C0006D24DF91CF910895F894FFCFB8
:1024CC00000070242000303132333435363738393F
:1024DC004142434445460096000003000000018D34
:1024EC00F6CB527BD1E84F29C0B0E1E5C774B4AA52
:1024FC004B992B605F583FFDCCFF40EEB23A6E5AC1
:10250C00F1554DA8C9C10A98153044A2C22C459268
:10251C006CF3396642F235206F77BB59191DFE37C3
:10252C00672D31F569A764AB135425E909ED5C05FA
:10253C00CA4C2487BF183E22F051EC6117165EAFCF
:10254C00D349A63643F44791DF3393213B79B797B0
:10255C008510B5BA3CB670D006A1FA8182837E7F15
:10256C00809673BE569B9E95D9F702B9A4DE6A324B
:10257C006DD88A84722A149F88F9DC899AFB7C2E88
:10258C00C38FB8654826C8124ACEE7D2620CE01F4A
:10259C00EF11757871A58E763DBDBC86570B282F33
:1025AC00A3DAD4E40FA92753041BFCACE67A07AEDC
:1025BC0063C5DBE2EA948BC4D59DF8906BB10DD664
:1025CC00EBC60ECFAD084ED7E35D501EB35B233880
:1025DC00346846038CDD9C7DA0CD1A411C637C774E
:1025EC007BF26B6FC53001672BFED7AB76CA82C905
:1025FC007DFA5947F0ADD4A2AF9CA472C0B7FD933D
:10260C0026363FF7CC34A5E5F171D8311504C72334
:10261C00C31896059A071280E2EB27B27509832C32
:10262C001A1B6E5AA0523BD6B329E32F8453D10008
:10263C00ED20FCB15B6ACBBE394A4C58CFD0EFAA27
:10264C00FB434D338545F9027F503C9FA851A34075
:10265C008F929D38F5BCB6DA2110FFF3D2CD0C1356
:10266C00EC5F974417C4A77E3D645D197360814F7E
:10267C00DC222A908846EEB814DE5E0BDBE0323AA0
:10268C000A4906245CC2D3AC629195E479E7C83759
:10269C006D8DD54EA96C56F4EA657AAE08BA7825DC
:1026AC002E1CA6B4C6E8DD741F4BBD8B8A703EB5DC
:1026BC00664803F60E613557B986C11D9EE1F89840
:1026CC001169D98E949B1E87E9CE5528DF8CA18980
:0E26DC000DBFE6426841992D0FB054BB1600A9
:00000001FF
