S01C000043574D61736B416E6452616E644368616F7469632E737265638F
S1130000C4C00000E2C00000E0C00000DEC0000088
S1130010DCC00000DAC00000D8C00000D6C0000078
S1130020D4C00000D2C00000D0C00000CEC0000088
S1130030CCC00000CAC000000C949F080C94CC08EB
S11300400C94F9080C9426090C9453090C94800917
S11300500C94AD090C94DA090C94070A0C94340A34
S1130060B4C00000B2C00000B0C00000AEC00000C8
S1130070ACC00000AAC00000A8C00000A6C00000D8
S1130080A4C00000A2C00000A0C000009EC00000E8
S11300909CC000009AC0000098C0000096C00000F8
S11300A094C0000092C0000090C000008EC0000008
S11300B08CC000008AC0000088C000000C946F0B44
S11300C00C949C0B0C94C90B0C94F60B0C94230C01
S11300D00C94500C7AC0000078C0000076C0000078
S11300E074C0000072C0000070C000006EC0000048
S11300F06CC000006AC0000068C0000066C0000058
S113010064C0000062C0000060C000005EC0000067
S11301105CC000005AC0000058C0000056C0000077
S113012054C0000052C0000050C000004EC0000087
S11301304CC000000C94610A0C948E0A0C94BB0A07
S11301400C94E80A0C94150B0C94420B3EC000006E
S11301503CC000003AC0000038C0000036C00000B7
S113016034C0000032C0000030C000007D078107A9
S1130170850789078D079107950799079D07A107AB
S1130180A507A907AD07B107B50711241FBECFEF17
S1130190CDBFDFE3DEBF00E00CBF12E2A0E0B0E2BF
S11301A0E6E2FEE100E00BBF02C007900D92A83129
S11301B0B107D9F724E2A8E1B2E201C01D92A2344A
S11301C0B207E1F78ED20C94110F1ACF009709F4FD
S11301D05EC0811524E0920711F464E005C0803804
S11301E021E0920719F462E080E050C0803823E0F7
S11301F0920711F461E005C0811522E0920719F419
S113020062E081E043C0811528E0920711F461E0C7
S113021036C0811529E0920711F461E029C08115E7
S11302202AE0920711F461E030C0803428E092079C
S113023011F462E024C0803928E0920711F464E0EC
S11302401EC0803C28E0920711F468E018C0803C8E
S113025029E0920711F468E00BC0803A28E0920785
S113026011F460E10CC0803A29E0920719F460E1CE
S113027084E00CC0803824E0920719F460E483E041
S113028005C0803A944019F460E485E03AC70895C3
S1130290FC01218125FFFCCF608380E090E008957C
S11302A0FC01218127FFFCCF808108958F929F92CA
S11302B0AF92BF92CF92DF92EF92FF920F931F9370
S11302C0CF93DF93EC016A017B01480159018C81D2
S11302D0B901A80182FF11C033E07695679557955F
S11302E047953A95D1F7D501C401E6E1B695A795AE
S11302F097958795EA95D1F710C094E07695679520
S1130300579547959A95D1F7D901C80127E1B69534
S1130310A795979587952A95D1F74C155D056E0598
S11303207F0508F498C0C816D906EA06FB0608F447
S113033092C08C8182FD04C0CC0CDD1CEE1CFF1C21
S1130340C501B401A70196010E94E70E19EF8FEFD2
S113035090E0A0E0B0E0281739074A075B0758F09F
S1130360880F991FAA1FBB1F1D3F0CF481601F5FDC
S1130370173089F749C017FF47C0D701C601F3E01A
S1130380880F991FAA1FBB1FFA95D1F7881A990ADB
S1130390AA0ABB0A812F012E000C990B1E3FDCF424
S11303A02DEF3FEFA901481B590B04C0880C991C81
S11303B0AA1CBB1C4A95D2F7D701C601B695A795CE
S11303C097958795BC01CD01680D791D8A1D9B1DEC
S11303D0A701960116C00396A701960104C0220F37
S11303E0331F441F551F8A95D2F7DA01C901B69508
S11303F0A79597958795BC01CD01680D791D8A1D38
S11304009B1D0E94E70E1DC083E0810FA70196018A
S113041004C0220F331F441F551F8A95D2F7DA01F7
S1130420C901B695A79597958795BC01CD01680D2F
S1130430791D8A1D9B1D0E94E70E21503109410937
S11304405109932F9F70812F8295807F892B8F83F1
S11304502E8381E001C080E0DF91CF911F910F9145
S1130460FF90EF90DF90CF90BF90AF909F908F90D0
S113047008950F931F93CF93DF93EC018B01A6DEB6
S11304808D818F738D83F80195818481982B86816A
S1130490811188E0892B8D83F8014081518162812B
S11304A0738100E115E720E730E0CE01FFDE9C8197
S11304B098609C839C8190619C83DF91CF911F9174
S11304C00F910895CF93DF93C42FD52FDC019D01A5
S11304D0281B390B2617370728F52C912A333CF0B3
S11304E02062022E000C330B2755310905C0022E61
S11304F0000C330B205331091196EC911197EA3318
S11305003CF0E0620E2E000CFF0BE755F10904C02D
S11305100E2E000CFF0BF0972295207FE22BE9931F
S11305201296D5CFCA01DF91CF9108951F93CF932F
S1130530DF93DA019C01260F371F82179307B9F066
S1130540EC01FC011191CF01E12FE295EF70F0E095
S1130550E050F04EE081EC93E881EF70F0E0E05081
S1130560F04EE0811196EC9311971296E6CF660F48
S1130570771FFA01E60FF71F1082DF91CF911F91C9
S11305800895CF93DF93CDB7DEB72797CDBFDEBFF6
S113059090D5E0E4F6E088E0818384E08283E0E0C3
S11305A0F6E081E0818380E28183868380E4818335
S11305B08583E0E1F0E284818D8385818E83868169
S11305C08F8380819181A281B38189839A83AB8354
S11305D0BC8360E183E095D5BE016F5F7F4F80EA05
S11305E098E047DF80E098E00E947D0CE0E0F8E0CE
S11305F08181887F818380858E6F80878081807FE1
S1130600836080832796CDBFDEBFDF91CF910895AD
S1130610EF92FF920F931F93CF93DF93CDB7DEB783
S11306202597CDBFDEBFFC0160E177E20E94D30EC7
S11306306983CF0168EE73E00E94D30ECB012AE0F8
S113064030E0B9010E94D30E8A83CF0164E670E0E2
S11306500E94D30ECB01B9010E94D30E8B83CF012C
S1130660B9010E94D30E482FCB01B9010E94D30EC9
S11306708C834D838E010F5F1F4F7E0186E0E80E51
S1130680F11CF80161918F01605D80EA98E000DE61
S11306900E151F05B1F76AE080EA98E02596CDBFF4
S11306A0DEBFDF91CF911F910F91FF90EF90F0CDBE
S11306B01F93CF93DF93182FC8E0D0E8812F8D23A9
S11306C011F061E301C060E380EA98E0E1DDD695D2
S11306D0C150A1F76AE080EA98E0DF91CF911F91C1
S11306E0D7CD4FDFD0E0C0E080EA98E0D9DD88378D
S11306F0C9F38B3611F4D1E0F6CF803711F4D2E090
S1130700F2CFD13091F46C2F70E0FB018A3019F0F4
S11307108D3009F04FC0E85BFD4D108248ED52E288
S113072088E492E2CFDED0E0DFCFD230E9F68A303F
S113073019F08D3009F039C06C2F70E0FB01E85BD3
S1130740FD4D108248E852E288E492E2BBDE10924A
S1130750200810922108F6D068E872E2CB0143D455
S1130760E0902008F090210848E452E260E170E053
S113077088E892E2DBDE62E780EA98E089DD08E45B
S113078012E2F80161918F0180EA98E081DDF2E2E2
S113079008361F07B1F76AE080EA98E079DDC701FF
S11307A037DF8091400084DFBECFC03408F0BBCF78
S11307B0EC2FF0E0E85BFD4D8083CF5F95CF7F9217
S11307C08F929F92AF92BF92CF92DF92EF92FF925D
S11307D00F931F93CF93DF936B017C01742E052F2E
S11307E0C8EDD2E2699170E080E090E00E94BA0D19
S11307F020E030E04AE754E40E94260D2CE53FE86F
S113080042E05FE30E94BE0C4B015C0114E1A701CE
S11308109601C501B4010E946C0E18161CF4A501C2
S1130820940114C0A701960160E070E080E89FE3A2
S11308300E94BD0C6B017C01A501940160E070E095
S113084080E89FE30E94BD0C9B01AC01C701B60187
S11308500E94260D6B017C011150C9F682E2C83E4C
S1130860D80709F0BFCFC72DD02F8E01005D1F4FD1
S1130870A7019601C501B4010E946C0E18161CF460
S1130880A501940114C0A701960160E070E080E81E
S11308909FE30E94BD0C6B017C01A501940160E003
S11308A070E080E89FE30E94BD0C9B01AC01C7018E
S11308B0B6010E94260D6B017C0120E030E040E887
S11308C053E40E94700E0E948E0D6993C017D107E5
S11308D079F6A7019601C501B4010E946C0E1816A1
S11308E01CF4A501940114C0A701960160E070E016
S11308F080E89FE30E94BD0C6B017C01A50194017B
S113090060E070E080E89FE30E94BD0C9B01AC01B5
S1130910C701B6010E94260D609318227093192214
S113092080931A2290931B22DF91CF911F910F91F4
S1130930FF90EF90DF90CF90BF90AF909F908F90FB
S11309407F90089548EE52E267E674E489E19FE3FC
S113095036CF8F929F92AF92BF92CF92DF92EF9257
S1130960FF920F931F93CF93DF934B015C01C8E178
S1130970D3E2699170E080E090E00E94BC0D2FE624
S113098032E143E85AE30E94700E2CE53FE842E06E
S11309905FE3F4D76B017C0115E0A5019401C70165
S11309A0B6010E946C0E18161CF4A701960112C021
S11309B0A501940160E070E080E89FE3DED74B017D
S11309C05C01A701960160E070E080E89FE3D5D761
S11309D09B01AC01C501B4010E94260D4B015C01D1
S11309E01150D9F683E2C832D80709F0C2CFA50165
S11309F09401C701B6010E946C0E18161CF4A701DD
S1130A00960112C0A501940160E070E080E89FE3C4
S1130A10B4D74B015C01A701960160E070E080E867
S1130A209FE3ABD79B01AC01C501B4010E94260D25
S1130A304B015C0120E030E04FE753E40E94700E6C
S1130A400E948E0D60932823A5019401C701B6016D
S1130A500E946C0E18161CF4A701960112C0A50181
S1130A60940160E070E080E89FE387D74B015C016C
S1130A70A701960160E070E080E89FE37ED79B01C8
S1130A80AC01C501B401E2D74B015C0120E030E0C8
S1130A904FE753E40E94700E0E948E0D60933A2437
S1130AA0C9E2D3E209E313E2A5019401C701B60147
S1130AB00E946C0E18161CF4A701960112C0A50121
S1130AC0940160E070E080E89FE357D74B015C013C
S1130AD0A701960160E070E080E89FE34ED79B0198
S1130AE0AC01C501B401B2D74B015C0120E030E098
S1130AF04FE753E40E94700E0E948E0D69930C1709
S1130B001D0791F6A5019401C701B6010E946C0E60
S1130B1018161CF4A701960112C0A501940160E007
S1130B2070E080E89FE329D74B015C01A70196019F
S1130B3060E070E080E89FE320D79B01AC01C50131
S1130B40B40184D74B015C0120E030E04FE753E46B
S1130B500E94700EE3D760933B24A7019601C50160
S1130B60B40170D787FF03C0A701960112C0A50185
S1130B70940160E070E080E89FE3FFD64B015C01E4
S1130B80A701960160E070E080E89FE3F6D69B0140
S1130B90AC01C501B4015AD74B015C0120E030E03F
S1130BA04FE753E40E94700EB9D76623B1F2609305
S1130BB03924DF91CF911F910F91FF90EF90DF9037
S1130BC0CF90BF90AF909F908F900895A7E1B1E22E
S1130BD020E030E0482F50E09D91FA01E227F3270E
S1130BE0E75CFC4D962790832F5F3F4F211581E0F2
S1130BF0380791F70895FC019C01205F3F4F8081E5
S1130C0086278193E217F307D1F70895FC019C012D
S1130C10205F3F4FDB018D91BD0190818927819336
S1130C20E217F307B9F70895FC0140962081DB0130
S1130C30A20FB11D2C9121938E179F07B9F7089528
S1130C40282F30E0220F331F87FD02C080E001C04F
S1130C508BE182270895CF92DF92EF92FF920F9358
S1130C601F93CF93DF93CDB7DEB72897CDBFDEBFF9
S1130C70E82EF62EFE01319688E0DF011D928A955A
S1130C80E9F7E9828F016E01B8E0CB0ED11CF801BF
S1130C9081918F01D5DFD8018C93C016D106B9F7A5
S1130CA08F2D81708E9D802D1124FE01329641E09E
S1130CB050E06F2D70E091919B01042E02C0359598
S1130CC027950A94E2F72170299F202D1124822769
S1130CD04F5F5F4F4830510571F72896CDBFDEBF97
S1130CE0DF91CF911F910F91FF90EF90DF90CF9004
S1130CF008957F928F929F92AF92BF92CF92DF928C
S1130D00EF92FF920F931F93CF93DF93CDB7DEB78C
S1130D10A097CDBFDEBF80912923898B70903924A1
S1130D20788AA9E2B3E298E1E92E93E2F92EF70179
S1130D308D9190818927819383E2E832F807C1F786
S1130D4090913A24E8E1F3E2808189278193A3E238
S1130D50E832FA07C9F74AE253E28E010F5E1F4FE9
S1130D60C801A8E1B3E221E011966C9111973C917E
S1130D70362711963C931197FA013191AF01FC018A
S1130D806081362731832F5F11960196203161F7F8
S1130D9080913B249E012F5D3F4FA8E1B3E2F8010F
S1130DA09081982791938F014C9194279D932E17AE
S1130DB03F07A9F7672D4FDFD82E08E113E2672D0F
S1130DC0D8018C9148DF8D25F80181938F01F3E2DE
S1130DD008321F07A1F7CE0101966C014E019EE077
S1130DE0891A9108860188E1A82E83E2B82ED501DC
S1130DF01F968C91811103C0F80176860DC0D50130
S1130E001E966C9128DFF5018687D8011F966C9198
S1130E10872D21DFF8018687F1E0AF1AB108015070
S1130E2011090815190519F700912823D6011D91F8
S1130E306D01612F802F0FDFE12FF0E0E95EFF4DA0
S1130E40D7019C916081892706DFF70181937F0197
S1130E50F8E2EF16F3E2FF0649F7A096CDBFDEBF36
S1130E60DF91CF911F910F91FF90EF90DF90CF9082
S1130E70BF90AF909F908F907F9008952F923F9254
S1130E804F925F926F927F928F929F92AF92BF9296
S1130E90CF92DF92EF92FF920F931F93CF93DF9342
S1130EA0CDB7DEB76197CDBFDEBFDC016E0181E156
S1130EB0C80ED11C662309F480C0F889F98B6980B7
S1130EC07A808B809C80AD80BE80EF80F884098519
S1130ED01A857B855C854D853E852F8590E0292E7E
S1130EE0312CF1013197EF30F10528F48827EA54C9
S1130EF0FF4F8F4F8EC76C903CC01E967C901E9700
S1130F0038C018968C90189734C016969C901697F3
S1130F1030C01796AC9017972CC01196BC901197BF
S1130F2028C01F96EC901F9724C01996FC9019971F
S1130F3020C01A960C911A971CC014961C911497F1
S1130F4018C012967C91129714C01C965C911C9741
S1130F5010C01D964C911D970CC01B963C911B977D
S1130F6008C015962C91159704C01396EC9113970D
S1130F70E98B9F5F903109F0B2CF69827A828B82CC
S1130F809C82AD82BE82EF82F8861A877B875C875B
S1130F904D873E872F87F989F88B0987AE014F5F0C
S1130FA05F4FCD01FA012191AF01FC012193CF01E3
S1130FB04C155D05B9F761507DCF6196CDBFDEBF9D
S1130FC0DF91CF911F910F91FF90EF90DF90CF9021
S1130FD0BF90AF909F908F907F906F905F904F9055
S1130FE03F902F900895EF92FF920F931F93CF930A
S1130FF0DF937C0108E113E2F801DB018D91BD016F
S11310008193B3E2E832FB07C1F760911822709133
S1131010192280911A2290911B229BDC60913A2420
S113102080912823D3DD81E08093050660912823F5
S113103088E193E2E0DDC8EED2E2BE0188E193E20A
S1131040E5DD69E373E288E193E2EEDD88E193E2B2
S113105050DE21E041E061E088E193E20FDF609639
S113106083E2C831D80749F76091282388E193E2E5
S1131070C2DD81E080930606F701D8018D918D01D0
S11310808193B3E208321B07C1F7DF91CF911F911F
S11310900F91FF90EF900895CF93DF931F92CDB7F8
S11310A0DEB78FB78983F89489810F90DF91CF9150
S11310B008958FEF80937000809371008093720085
S11310C080937300809374008093750080937600FE
S11310D010925200E1DF909150009860909350007C
S11310E08FBF8091510083FFFCCF63E080E490E0E8
S11310F03ED4D2DF909150009E7F909350008FBFDA
S11311000895CF93DF93C82FD62FC6DFEC2FF0E0DE
S1131110E059FF4FD0959081D923D0838FBFDF91C1
S1131120CF910895CF93DF931F92CDB7DEB78FB7DA
S11311308983F89489810F90DF91CF9108951F924C
S11311400F920FB60F9211240BB60F922F933F9369
S11311504F935F936F937F938F939F93AF93BF93BB
S1131160EF93FF93E0914622F0914722309709F0E4
S11311701995FF91EF91BF91AF919F918F917F91BD
S11311806F915F914F913F912F910F900BBE0F90F4
S11311900FBE0F901F9018951F920F920FB60F92CB
S11311A011240BB60F922F933F934F935F936F933A
S11311B07F938F939F93AF93BF93EF93FF93E091AC
S11311C04422F0914522309709F01995FF91EF914F
S11311D0BF91AF919F918F917F916F915F914F914B
S11311E03F912F910F900BBE0F900FBE0F901F9049
S11311F018951F920F920FB60F9211240BB60F92EF
S11312002F933F934F935F936F937F938F939F930A
S1131210AF93BF93EF93FF93E0914222F091432267
S1131220309709F01995FF91EF91BF91AF919F917C
S11312308F917F916F915F914F913F912F910F907B
S11312400BBE0F900FBE0F901F9018951F920F9218
S11312500FB60F9211240BB60F922F933F934F9317
S11312605F936F937F938F939F93AF93BF93EF930A
S1131270FF93E0914022F0914122309709F01995B3
S1131280FF91EF91BF91AF919F918F917F916F915A
S11312905F914F913F912F910F900BBE0F900FBE16
S11312A00F901F9018951F920F920FB60F92112452
S11312B00BB60F922F933F934F935F936F937F934C
S11312C08F939F93AF93BF93EF93FF93E0913E224D
S11312D0F0913F22309709F01995FF91EF91BF915A
S11312E0AF919F918F917F916F915F914F913F91BA
S11312F02F910F900BBE0F900FBE0F901F9018955B
S11313001F920F920FB60F9211240BB60F922F93C8
S11313103F934F935F936F937F938F939F93AF9379
S1131320BF93EF93FF93E0913C22F0913D223097DD
S113133009F01995FF91EF91BF91AF919F918F9112
S11313407F916F915F914F913F912F910F900BBEC1
S11313500F900FBE0F901F9018951F920F920FB60B
S11313600F9211240BB60F922F933F934F935F93D9
S11313706F937F938F939F93AF93BF93EF93FF9359
S1131380E0913A22F0913B22309709F01995FF91B0
S1131390EF91BF91AF919F918F917F916F915F91E9
S11313A04F913F912F910F900BBE0F900FBE0F9056
S11313B01F9018951F920F920FB60F9211240BB61F
S11313C00F922F933F934F935F936F937F938F93DA
S11313D09F93AF93BF93EF93FF93E0913822F091E3
S11313E03922309709F01995FF91EF91BF91AF9190
S11313F09F918F917F916F915F914F913F912F9129
S11314000F900BBE0F900FBE0F901F9018951F9258
S11314100F920FB60F9211240BB60F922F933F9396
S11314204F935F936F937F938F939F93AF93BF93E8
S1131430EF93FF93E0913622F0913722309709F031
S11314401995FF91EF91BF91AF919F918F917F91EA
S11314506F915F914F913F912F910F900BBE0F9021
S11314600FBE0F901F9018951F920F920FB60F92F8
S113147011240BB60F922F933F934F935F936F9367
S11314807F938F939F93AF93BF93EF93FF93E091D9
S11314903422F0913522309709F01995FF91EF919C
S11314A0BF91AF919F918F917F916F915F914F9178
S11314B03F912F910F900BBE0F900FBE0F901F9076
S11314C018951F920F920FB60F9211240BB60F921C
S11314D02F933F934F935F936F937F938F939F9338
S11314E0AF93BF93EF93FF93E0913222F0913322B5
S11314F0309709F01995FF91EF91BF91AF919F91AA
S11315008F917F916F915F914F913F912F910F90A8
S11315100BBE0F900FBE0F901F9018951F920F9245
S11315200FB60F9211240BB60F922F933F934F9344
S11315305F936F937F938F939F93AF93BF93EF9337
S1131540FF93E0913022F0913122309709F0199500
S1131550FF91EF91BF91AF919F918F917F916F9187
S11315605F914F913F912F910F900BBE0F900FBE43
S11315700F901F9018951F920F920FB60F9211247F
S11315800BB60F922F933F934F935F936F937F9379
S11315908F939F93AF93BF93EF93FF93E0912E228A
S11315A0F0912F22309709F01995FF91EF91BF9197
S11315B0AF919F918F917F916F915F914F913F91E7
S11315C02F910F900BBE0F900FBE0F901F90189588
S11315D01F920F920FB60F9211240BB60F922F93F6
S11315E03F934F935F936F937F938F939F93AF93A7
S11315F0BF93EF93FF93E0912C22F0912D2230972B
S113160009F01995FF91EF91BF91AF919F918F913F
S11316107F916F915F914F913F912F910F900BBEEE
S11316200F900FBE0F901F9018951F920F920FB638
S11316300F9211240BB60F922F933F934F935F9306
S11316406F937F938F939F93AF93BF93EF93FF9386
S1131650E0912A22F0912B22309709F01995FF91FD
S1131660EF91BF91AF919F918F917F916F915F9116
S11316704F913F912F910F900BBE0F900FBE0F9083
S11316801F9018951F920F920FB60F9211240BB64C
S11316900F922F933F934F935F936F937F938F9307
S11316A09F93AF93BF93EF93FF93E0912822F09120
S11316B02922309709F01995FF91EF91BF91AF91CD
S11316C09F918F917F916F915F914F913F912F9156
S11316D00F900BBE0F900FBE0F901F9018951F9286
S11316E00F920FB60F9211240BB60F922F933F93C4
S11316F04F935F936F937F938F939F93AF93BF9316
S1131700EF93FF93E0912622F0912722309709F07E
S11317101995FF91EF91BF91AF919F918F917F9117
S11317206F915F914F913F912F910F900BBE0F904E
S11317300FBE0F901F9018951F920F920FB60F9225
S113174011240BB60F922F933F934F935F936F9394
S11317507F938F939F93AF93BF93EF93FF93E09106
S11317602422F0912522309709F01995FF91EF91E9
S1131770BF91AF919F918F917F916F915F914F91A5
S11317803F912F910F900BBE0F900FBE0F901F90A3
S113179018951F920F920FB60F9211240BB60F9249
S11317A02F933F934F935F936F937F938F939F9365
S11317B0AF93BF93EF93FF93E0912222F091232202
S11317C0309709F01995FF91EF91BF91AF919F91D7
S11317D08F917F916F915F914F913F912F910F90D6
S11317E00BBE0F900FBE0F901F9018951F920F9273
S11317F00FB60F9211240BB60F922F933F934F9372
S11318005F936F937F938F939F93AF93BF93EF9364
S1131810FF93E0912022F0912122309709F019954D
S1131820FF91EF91BF91AF919F918F917F916F91B4
S11318305F914F913F912F910F900BBE0F900FBE70
S11318400F901F9018951F920F920FB60F921124AC
S11318500BB60F922F933F934F935F936F937F93A6
S11318608F939F93AF93BF93EF93FF93E0911E22C7
S1131870F0911F22309709F01995FF91EF91BF91D4
S1131880AF919F918F917F916F915F914F913F9114
S11318902F910F900BBE0F900FBE0F901F901895B5
S11318A01F920F920FB60F9211240BB60F922F9323
S11318B03F934F935F936F937F938F939F93AF93D4
S11318C0BF93EF93FF93E0911C22F0911D22309778
S11318D009F01995FF91EF91BF91AF919F918F916D
S11318E07F916F915F914F913F912F910F900BBE1C
S11318F00F900FBE0F901F9018951F93CF93DF93F7
S1131900EC0110DC182FC11588E0D80711F461E050
S113191005C0C03488E0D80731F462E083E0F1DB2D
S113192064E083E012C0C11589E0D80731F461E0B6
S113193084E0E7DB64E084E008C0C115DA4091F498
S113194061E085E0DEDB64E085E0DBDB80913D2463
S11319508F3F09F4FFCFE6DB90913D249F5F909386
S11319603D248FBF1FBFDF91CF911F9108951BBEF0
S1131970FC0128ED24BF608308955058BB27AA2793
S11319800ED070C161D130F066D120F031F49F3FA8
S113199011F41EF456C10EF4E095E7FB4CC1E92F97
S11319A072D180F3BA17620773078407950718F09A
S11319B071F49EF58AC10EF4E0950B2EBA2FA02D7A
S11319C00B01B90190010C01CA01A0011124FF27E8
S11319D0591B99F0593F50F4503E68F11A16F040E3
S11319E0A22F232F342F4427585FF3CF46953795E2
S11319F02795A795F0405395C9F77EF41F16BA0BA7
S1131A00620B730B840BBAF09150A1F0FF0FBB1F54
S1131A10661F771F881FC2F70EC0BA0F621F731F9D
S1131A20841F48F4879577956795B795F7959E3FFA
S1131A3008F0B3CF9395880F08F09927EE0F979588
S1131A4087950895D4D008F481E008950CD00AC194
S1131A5002D140F0F9D030F021F45F3F19F0EBC02F
S1131A60511134C1EEC00FD198F39923C9F3552312
S1131A70B1F3951B550BBB27AA276217730784077D
S1131A8038F09F5F5F4F220F331F441FAA1FA9F333
S1131A9033D00E2E3AF0E0E830D091505040E69525
S1131AA0001CCAF729D0FE2F27D0660F771F881F86
S1131AB0BB1F261737074807AB07B0E809F0BB0B75
S1131AC0802DBF01FF2793585F4F2AF09E3F510599
S1131AD068F0B1C0FBC05F3FECF3983EDCF3869541
S1131AE077956795B795F7959F5FC9F7880F911D0F
S1131AF09695879597F90895E1E0660F771F881FFB
S1131B00BB1F621773078407BA0720F0621B730BAD
S1131B10840BBA0BEE1F88F7E0950895BCD088F0CB
S1131B209F5790F0B92F9927B751A0F0D1F0660FC5
S1131B30771F881F991F1AF0BA95C9F712C0B130E0
S1131B4081F0C3D0B1E00895C0C0672F782F8827F3
S1131B50B85F39F0B93FCCF3869577956795B3951F
S1131B60D9F73EF490958095709561957F4F8F4F8E
S1131B709F4F0895E89409C097FB3EF49095809593
S1131B80709561957F4F8F4F9F4F9923A9F0F92F3F
S1131B9096E9BB279395F695879577956795B795BD
S1131BA0F111F8CFFAF4BB0F11F460FF1BC06F5FA3
S1131BB07F4F8F4F9F4F16C0882311F096E911C0B5
S1131BC0772321F09EE8872F762F05C0662371F0D6
S1131BD096E8862F70E060E02AF09A95660F771FEA
S1131BE0881FDAF7880F9695879597F90895990FC6
S1131BF00008550FAA0BE0E8FEEF16161706E807D3
S1131C00F907C0F012161306E407F50798F0621BF3
S1131C10730B840B950B39F40A2661F0232B242BC8
S1131C20252B21F408950A2609F4A140A6958FEFE7
S1131C30811D811D089597F99F6780E870E060E039
S1131C4008959FEF80EC089500240A941616170651
S1131C5018060906089500240A9412161306140699
S1131C6005060895092E0394000C11F4882352F0FC
S1131C70BB0F40F4BF2B11F460FF04C06F5F7F4FB4
S1131C808F4F9F4F089557FD9058440F551F59F09B
S1131C905F3F71F04795880F97FB991F61F09F3F55
S1131CA079F087950895121613061406551FF2CF7E
S1131CB04695F1DF08C0161617061806991FF1CFCE
S1131CC086957105610508940895E894BB276627F5
S1131CD07727CB0197F908958ADF08F48FEF0895E9
S1131CE00BD0C0CFB1DF28F0B6DF18F0952309F090
S1131CF0A2CFA7CF1124EACFC6DFA0F3959FD1F3DB
S1131D00950F50E0551F629FF001729FBB27F00DA5
S1131D10B11D639FAA27F00DB11DAA1F649F6627FA
S1131D20B00DA11D661F829F2227B00DA11D621F49
S1131D30739FB00DA11D621F839FA00D611D221F03
S1131D40749F3327A00D611D231F849F600D211DE7
S1131D50822F762F6A2F11249F5750408AF0E1F08A
S1131D6088234AF0EE0FFF1FBB1F661F771F881FD3
S1131D7091505040A9F79E3F510570F05CCFA6CF1B
S1131D805F3FECF3983EDCF3869577956795B795BE
S1131D90F795E7959F5FC1F7FE2B880F911D9695E8
S1131DA0879597F90895AA1BBB1B51E107C0AA1F89
S1131DB0BB1FA617B70710F0A61BB70B881F991FE8
S1131DC05A95A9F780959095BC01CD010895A1E29B
S1131DD01A2EAA1BBB1BFD010DC0AA1FBB1FEE1FA1
S1131DE0FF1FA217B307E407F50720F0A21BB30BEC
S1131DF0E40BF50B661F771F881F991F1A9469F768
S1131E0060957095809590959B01AC01BD01CF01C3
S1131E100895EE0FFF1F881F8BBF0790F691E02DEA
S1091E201994F894FFCFB1
S1131E263031323334353637383941424344454606
S1131E360096000003000000018DF6CB527BD1E82A
S1131E464F29C0B0E1E5C774B4AA4B992B605F581B
S1131E563FFDCCFF40EEB23A6E5AF1554DA8C9C1CA
S1131E660A98153044A2C22C45926CF3396642F2A4
S1131E7635206F77BB59191DFE37672D31F569A7D4
S1131E8664AB135425E909ED5C05CA4C2487BF18D5
S1131E963E22F051EC6117165EAFD349A63643F4E1
S1131EA64791DF3393213B79B7978510B5BA3CB692
S1131EB670D006A1FA8182837E7F809673BE569B7C
S1131EC69E95D9F702B9A4DE6A326DD88A84722A3D
S1131ED6149F88F9DC899AFB7C2EC38FB865482643
S1131EE6C8124ACEE7D2620CE01FEF11757871A5CD
S1131EF68E763DBDBC86570B282FA3DAD4E40FA9F2
S1131F062753041BFCACE67A07AE63C5DBE2EA940E
S1131F168BC4D59DF8906BB10DD6EBC60ECFAD082C
S1131F264ED7E35D501EB35B2338346846038CDD1D
S1131F369C7DA0CD1A411C637C777BF26B6FC53008
S1131F4601672BFED7AB76CA82C97DFA5947F0AD35
S1131F56D4A2AF9CA472C0B7FD9326363FF7CC3407
S1131F66A5E5F171D8311504C723C31896059A0758
S1131F761280E2EB27B27509832C1A1B6E5AA05203
S1131F863BD6B329E32F8453D100ED20FCB15B6A21
S1131F96CBBE394A4C58CFD0EFAAFB434D338545C7
S1131FA6F9027F503C9FA851A3408F929D38F5BCFF
S1131FB6B6DA2110FFF3D2CD0C13EC5F974417C4A5
S1131FC6A77E3D645D197360814FDC222A908846A2
S1131FD6EEB814DE5E0BDBE0323A0A4906245CC234
S1131FE6D3AC629195E479E7C8376D8DD54EA96C6B
S1131FF656F4EA657AAE08BA78252E1CA6B4C6E865
S1132006DD741F4BBD8B8A703EB5664803F60E61C0
S11320163557B986C11D9EE1F8981169D98E949BEE
S11320261E87E9CE5528DF8CA1890DBFE64268419B
S10B2036992D0FB054BB1600F4
S9030000FC
