:10000000C5C00000E3C00000E1C00000DFC0000088
:10001000DDC00000DBC00000D9C00000D7C0000078
:10002000D5C00000D3C00000D1C00000CFC0000088
:10003000CDC00000CBC000000C9439140C94761491
:100040000C94B3140C94F0140C942D150C946A15A4
:100050000C94A7150C94E4150C9421160C945E16C0
:10006000B5C00000B3C00000B1C00000AFC00000C8
:10007000ADC00000ABC00000A9C00000A7C00000D8
:10008000A5C00000A3C00000A1C000009FC00000E8
:100090009DC000009BC0000099C0000097C00000F8
:1000A00095C0000093C0000091C000008FC0000008
:1000B0008DC000008BC0000089C000000C9409189E
:1000C0000C9446180C9483180C94C0180C94FD18CA
:1000D0000C943A197BC0000079C0000077C0000082
:1000E00075C0000073C0000071C000006FC0000048
:1000F0006DC000006BC0000069C0000067C0000058
:1001000065C0000063C0000061C000005FC0000067
:100110005DC000005BC0000059C0000057C0000077
:1001200055C0000053C0000051C000004FC0000087
:100130004DC000000C949B160C94D8160C94151707
:100140000C9452170C948F170C94CC173FC00000DE
:100150003DC000003BC0000039C0000037C00000B7
:1001600035C0000033C0000031C000006A117911B1
:1001700088119711A611B511C411D311E211F11113
:1001800000120F121E122D123C124B1211241FBE10
:10019000CFEFCDBFDFE3DEBF00E00CBF12E2A0E097
:1001A000B0E2EAEFFAE300E00BBF02C007900D9265
:1001B000AE31B107D9F724E2AEE1B2E201C01D923F
:1001C000A037B207E1F726D70C947B1D19CFCF9348
:1001D000DF931F921F92CDB7DEB789839A838981FF
:1001E0009A81FC018481282F206189819A81FC01F8
:1001F000248300000F900F90DF91CF910895CF934B
:10020000DF93CDB7DEB72597CDBFDEBF89839A8355
:100210006B834C832D839B818C81892B982F8D81BF
:10022000882311F088E001C080E0892B282F898184
:100230009A81FC01258300002596CDBFDEBFDF91AA
:10024000CF910895CF93DF931F921F92CDB7DEB762
:1002500089839A8389819A81FC018481282F28606F
:1002600089819A81FC01248300000F900F90DF9117
:10027000CF910895CF93DF9300D0CDB7DEB78983B8
:100280009A836B8389819A81FC018581982F9F7362
:100290008B81892B282F89819A81FC01258300007D
:1002A0002396CDBFDEBFDF91CF910895CF93DF932B
:1002B0001F921F92CDB7DEB789839A8389819A8175
:1002C000FC018181882F90E08072992721E0892BA1
:1002D00009F420E0822F0F900F90DF91CF910895C5
:1002E000CF93DF931F921F92CDB7DEB789839A8396
:1002F00089819A81FC018181882F90E080789927FB
:1003000021E0892B09F420E0822F0F900F90DF91DC
:10031000CF910895CF93DF93CDB7DEB780E195E716
:10032000A0E7B0E0BC01CD01DF91CF910895CF935C
:10033000DF931F92CDB7DEB71982ECDFDC01CB0172
:100340002981222F30E004C0B695A795979587950F
:100350002A95D2F7BC01CD010F90DF91CF9108957E
:10036000CF93DF93CDB7DEB7E2DFDC01CB01BC0179
:10037000CD01DF91CF910895CF93DF93CDB7DEB755
:10038000EFDFDC01CB01BC01CD01DF91CF910895FE
:10039000CF93DF931F921F92CDB7DEB789839A83E5
:1003A00089819A81892B09F495C089819A81811567
:1003B000944029F464E080E00E94CD138BC08981D1
:1003C0009A818038914029F462E080E00E94CD1348
:1003D00081C089819A818038934029F461E081E06D
:1003E0000E94CD1377C089819A818115924029F4AA
:1003F00062E081E00E94CD136DC089819A818115F0
:10040000984029F461E083E00E94CD1363C08981A4
:100410009A818115994029F461E084E00E94CD130E
:1004200059C089819A8181159A4029F461E085E05B
:100430000E94CD134FC089819A818034984029F45D
:1004400062E083E00E94CD1345C089819A818039A2
:10045000984029F464E083E00E94CD133BC0898179
:100460009A81803C984029F468E083E00E94CD1393
:1004700031C089819A81803C994029F468E084E008
:100480000E94CD1327C089819A81803A984029F42F
:1004900060E183E00E94CD131DC089819A81803A7A
:1004A000994029F460E184E00E94CD1313C0898152
:1004B0009A818038944029F460E483E00E94CD134F
:1004C00009C089819A81803A944021F460E485E0F2
:1004D0000E94CD1300000F900F90DF91CF910895EF
:1004E0000F931F93CF93DF93CDB7DEB72597CDBF83
:1004F000DEBF8A839B836C837D838A819B8148DFF7
:100500008A819B8160E0B6DE8C819D81FC01268121
:100510008C819D81FC0145818C819D81FC01348110
:100520008A819B81632F6BDE27DF9B01AC018C816D
:100530009D81FC0180819181A281B381EA81FB814F
:1005400089019A01AC01BD01CF0148D089838A811C
:100550009B8178DE8A819B813ADE89812596CDBF99
:10056000DEBFDF91CF911F910F910895CF93DF935D
:1005700000D0CDB7DEB789839A836B830000898171
:100580009A8194DE982F81E089278823C1F7898199
:100590009A812B81FC01208380E090E02396CDBFDF
:1005A000DEBFDF91CF910895CF93DF931F921F920B
:1005B000CDB7DEB789839A83000089819A8190DE66
:1005C000982F81E089278823C1F789819A81FC01CE
:1005D00080810F900F90DF91CF910895EF92FF925D
:1005E0000F931F93CF93DF93CDB7DEB76F97CDBF38
:1005F000DEBF8E8B9F8B488F598F6A8F7B8F0C8FBE
:100600001D8F2E8F3F8F8C8D9D8DAE8DBF8D6894ED
:1006100012F8B695A795979587951694D1F78E877A
:100620009F87A88BB98B8C8D9D8DAE8DBF8D072E2E
:1006300076E1B695A795979587957A95D1F7702D20
:100640008A879B87AC87BD878E899F89FC018481BF
:10065000882F90E084709927892BC1F48E859F851F
:10066000A889B989B695A795979587958E879F870D
:10067000A88BB98B8A859B85AC85BD85B695A795DA
:10068000979587958A879B87AC87BD87288D398DFD
:100690004A8D5B8D8E859F85A889B98982179307BE
:1006A000A407B50768F0288D398D4A8D5B8D8A8542
:1006B0009B85AC85BD85281739074A075B0710F471
:1006C00080E040C18E899F89FC018481882F90E061
:1006D00084709927892B61F4888D998DAA8DBB8DA3
:1006E000880F991FAA1FBB1F888F998FAA8FBB8F56
:1006F0008FEF90E0A0E0B0E08E839F83A887B9875A
:100700008C8D9D8DAE8DBF8D288D398D4A8D5B8DE5
:10071000BC01CD010E94211CDA01C9018A8B9B8B8F
:10072000AC8BBD8B89EF898328C02A893B894C8992
:100730005D898E819F81A885B985281739074A0769
:100740005B07F8F08E819F81A885B985880F991F76
:10075000AA1FBB1F8E839F83A887B98789818D3F7E
:100760004CF48E819F81A885B98581608E839F839B
:10077000A887B98789818F5F898389818730ACF2A7
:1007800001C00000898188230CF08AC0888D998D72
:10079000AA8DBB8D880F991FAA1FBB1F880F991F99
:1007A000AA1FBB1F880F991FAA1FBB1F9C01AD0169
:1007B0008C8D9D8DAE8DBF8D821B930BA40BB50BC5
:1007C0008C8F9D8FAE8FBF8F89818E3F94F58981ED
:1007D000082E000C990B2DEF3FEF281B390B8C8D49
:1007E0009D8DAE8DBF8D7C018D0104C0EE0CFF1C74
:1007F000001F111F2A95D2F7A8019701888D998DA6
:10080000AA8DBB8DB695A79597958795820F931F57
:10081000A41FB51F288D398D4A8D5B8DBC01CD017C
:100820000E94211CDA01C9018A839B83AC83BD83AA
:1008300070C08981082E000C990B9C012D5F3F4FE1
:10084000888D998DAA8DBB8D04C0880F991FAA1F12
:10085000BB1F2A95D2F7888F998FAA8FBB8F888D5F
:10086000998DAA8DBB8D9C01AD0156954795379505
:1008700027958C8D9D8DAE8DBF8D820F931FA41FEC
:10088000B51F288D398D4A8D5B8DBC01CD010E942D
:10089000211CDA01C9018A839B83AC83BD8339C0E3
:1008A0008981082E000C990B9C012D5F3F4F888D8C
:1008B000998DAA8DBB8D04C0880F991FAA1FBB1FDD
:1008C0002A95D2F7888F998FAA8FBB8F888D998DA3
:1008D000AA8DBB8D9C01AD015695479537952795FF
:1008E0008C8D9D8DAE8DBF8D820F931FA41FB51F64
:1008F000288D398D4A8D5B8DBC01CD010E94211C54
:10090000DA01C9010197A109B1098A839B83AC83EC
:10091000BD838A819B81AC81BD81892F9A2FAB2FAA
:10092000BB27982F9F7089818295807F292F282B44
:100930008E899F89FC0127832A818E899F89FC01EA
:10094000268381E06F96CDBFDEBFDF91CF911F91EF
:100950000F91FF90EF900895CF93DF93CDB7DEB75F
:100960002E97CDBFDEBF89879A876B877C874D879F
:100970005E871B821C8219821A8269C029853A858A
:1009800089819A81820F931FFC0180818A337CF0D8
:1009900029853A8589819A81820F931FFC01808184
:1009A0008062082E000C990B875591090CC029858F
:1009B0003A8589819A81820F931FFC018081082EDC
:1009C000000C990BC0978D839E8389819A81019633
:1009D00029853A85820F931FFC0180818A3384F038
:1009E00089819A81019629853A85820F931FFC019E
:1009F00080818062082E000C990B875591090DC0EB
:100A000089819A81019629853A85820F931FFC017D
:100A10008081082E000C990BC0978F8398872D85B5
:100A20003E858B819C81820F931F2D81322F3295C1
:100A3000307F2F81232BFC01208389819A810296AC
:100A400089839A838B819C8101968B839C838B8580
:100A50009C8529813A812817390708F48FCF8D8525
:100A60009E852E96CDBFDEBFDF91CF910895CF93A7
:100A7000DF93CDB7DEB72A97CDBFDEBF8D839E83D0
:100A80006F83788749875A871B821C8219821A8252
:100A90003FC08B819C819C012F5F3F4F2B833C8308
:100AA00029853A85820F931F4D815E8129813A8184
:100AB000240F351FF901208122952F70222F30E05D
:100AC0002A5F3F4DF9012081FC0120838B819C81AD
:100AD0009C012F5F3F4F2B833C8329853A85820FF2
:100AE000931F4D815E8129813A81240F351FF901C1
:100AF0002081222F30E02F7033272A5F3F4DF901EC
:100B00002081FC01208389819A81019689839A83BF
:100B10008F81988529813A812817390708F4B9CF40
:100B200029853A858B819C81820F931FFC0110825D
:100B300000002A96CDBFDEBFDF91CF910895CF93FD
:100B4000DF93CDB7DEB72A97CDBFDEBF8A878A8510
:100B500089831A8289818B838B818C838C81869592
:100B6000869586958D838D81882F90E0880F991FBB
:100B700082959295907F9827807F98279A5F8E83A1
:100B80009F838A818823A9F0898188878885882F17
:100B900090E09C012770332781E090E002C0880F2D
:100BA000991F2A95E2F7282F8E819F81FC012583CA
:100BB00014C0898189878985882F90E09C012770DE
:100BC000332781E090E002C0880F991F2A95E2F751
:100BD000282F8E819F81FC01268300002A96CDBF9D
:100BE000DEBFDF91CF910895CF93DF93CDB7DEB70E
:100BF0002A97CDBFDEBF8A878A85898381E08A8371
:100C000089818B838B818C838C8186958695869553
:100C10008D838D81882F90E0880F991F8295929502
:100C2000907F9827807F98279A5F8E839F838A8101
:100C30008823A9F0898188878885882F90E09C0186
:100C40002770332781E090E002C0880F991F2A9512
:100C5000E2F7282F8E819F81FC01258314C08981B2
:100C600089878985882F90E09C012770332781E050
:100C700090E002C0880F991F2A95E2F7282F8E81F5
:100C80009F81FC01268300002A96CDBFDEBFDF9145
:100C9000CF910895CF93DF93CDB7DEB70000DF91FA
:100CA000CF910895CF93DF93CDB7DEB72B97CDBF0C
:100CB000DEBF8A876B878A8589838B858A83898152
:100CC0008B838B818C838C818695869586958D838D
:100CD0008D81882F90E0880F991F82959295907F43
:100CE0009827807F98279A5F8E839F838A8181309F
:100CF000A9F4898188878885882F90E09C012770D6
:100D0000332781E090E002C0880F991F2A95E2F70F
:100D1000282F8E819F81FC01218317C08A8188231F
:100D2000A1F4898189878985882F90E09C012770AB
:100D3000332781E090E002C0880F991F2A95E2F7DF
:100D4000282F8E819F81FC01228300002B96CDBF2E
:100D5000DEBFDF91CF910895CF93DF93CDB7DEB79C
:100D600080EA90E027E0FC0122830000DF91CF9130
:100D70000895CF93DF9300D0CDB7DEB789839A83F0
:100D80006B8389819A81FC018681282F2C7F898140
:100D90009A81FC01268389819A81FC0196818B814D
:100DA000292F282B89819A81FC0126830000239614
:100DB000CDBFDEBFDF91CF910895CF93DF9300D0F9
:100DC000CDB7DEB789839A836B8389819A81FC01D1
:100DD0008081982F907F8B81892B282F89819A8100
:100DE000FC01208300002396CDBFDEBFDF91CF91B1
:100DF0000895CF93DF9300D0CDB7DEB789839A8370
:100E00006B838B81882359F489819A81FC018085C9
:100E10008E6F282F89819A81FC0120870AC08981E1
:100E20009A81FC018185282F216089819A81FC01AA
:100E3000218700002396CDBFDEBFDF91CF910895BB
:100E4000CF93DF9300D01F92CDB7DEB789839A830B
:100E50006B837C8389819A812B813C81FC0120A357
:100E600031A300002496CDBFDEBFDF91CF9108955E
:100E7000CF93DF931F921F92CDB7DEB789839A83FA
:100E800089819A81FC0180A191A10F900F90DF913F
:100E9000CF910895CF93DF9300D01F92CDB7DEB7E7
:100EA00089839A836B837C8389819A812B813C819E
:100EB000FC0126A337A300002496CDBFDEBFDF913F
:100EC000CF910895CF93DF931F921F92CDB7DEB7D6
:100ED00089839A8389819A81FC018485282F2160E6
:100EE00089819A81FC01248700000F900F90DF9187
:100EF000CF910895CF93DF9300D0CDB7DEB789832C
:100F00009A836B8389819A81FC018181982F987FD4
:100F10008B81892B282F89819A81FC0121830000F4
:100F20002396CDBFDEBFDF91CF910895CF93DF939E
:100F3000CDB7DEB72B97CDBFDEBF888799876A878D
:100F40007B878A859B85FC0184818D838A859B852F
:100F5000FC0185818E838A859B85FC0186818F8338
:100F60008A859B85FC0180819181A281B3818983DF
:100F70009A83AB83BC8388859985803A984021F415
:100F800060E183E00E94CD1388859985803A99407D
:100F900021F460E184E00E94CD13888599859E014B
:100FA0002F5F3F4FB9019CDA882311F081E001C027
:100FB00080E02B96CDBFDEBFDF91CF910895CF9318
:100FC000DF9300D0CDB7DEB789839A836B838981A5
:100FD0009A816B81CBDA2396CDBFDEBFDF91CF91B3
:100FE0000895CF93DF9300D01F92CDB7DEB78983EA
:100FF0009A836B837C8389819A81D6DA282F8B81AF
:101000009C81FC01208300002496CDBFDEBFDF91D0
:10101000CF910895CF93DF9300D000D0CDB7DEB746
:101020001C821D82BBD019821A82CE010696BC0199
:1010300080EA98E0D6DF8E81883719F419821A8207
:10104000ACC08E818B3621F4198281E08A83A5C0E1
:101050008E81803721F4198282E08A839EC08A8142
:10106000813021F58E818A3019F08E818D3091F496
:101070008981882F90E08E599D4DFC0110828981D5
:10108000882F90E042E053E2BC0182E692E264DC09
:101090001A8283C0898191E0980F9983882F90E00C
:1010A0002E818E599D4DFC012083BFCF8A818230D5
:1010B00009F0BBCF8E818A3021F08E818D3009F00E
:1010C0005CC08981882F90E08E599D4DFC01108273
:1010D0008981882F90E042EA52E2BC0182E692E2E6
:1010E0003BDC60E070E080E098E0AADE61E080E058
:1010F00098E063DE30D280E077DD62EA72E282EF70
:1011000092E238D280E098E0B3DE8C839D8360E089
:1011100080E098E02EDE60E080E098E04EDE80E047
:101120000EDD42E652E260E170E082EF92E29FDC87
:1011300062E780EA98E043DF1B820EC08B81882F34
:1011400090E08E599D4DFC018081682F80EA98E0E7
:1011500036DF8B818F5F8B838B81803278F36AE0FF
:1011600080EA98E02CDF80911E2290911F2273D09C
:101170008C819D8170D01A8210C08981803410F0DA
:101180001A8253CF898191E0980F9983882F90E03C
:101190002E818E599D4DFC01208347CFCF93DF9345
:1011A000CDB7DEB70E949C1375DD61E083E17ADD87
:1011B00060E082E177DD61E080E074DD61E085E0A0
:1011C00071DD85E0BCDC61E086E06CDD86E00CDD95
:1011D00066E170E280EA98E0A9DEBEDD80E098E09A
:1011E0000E9477196EE079E080E098E00E94BD19D6
:1011F00060E080E098E07EDE61EE72E080E098E002
:1012000049DE61E080E098E0B4DD789460E080E061
:1012100098E0EFDD0000DF91CF910895CF93DF9349
:10122000CDB7DEB780911E2290911F220196809348
:101230001E2290931F2280912022909121220196BC
:10124000809320229093212280E098E03BDE0000F2
:10125000DF91CF910895CF93DF93CDB7DEB7289775
:10126000CDBFDEBF8F8398878F81988592958295B9
:101270008F7089279F7089279C01A7E4B3E00E94A3
:101280004B1C9695879596958795969587958A8315
:101290008F8198859695879596958795969587954C
:1012A0009C01A5ECB0E20E944B1CAC01529542950A
:1012B0004F7045275F7045279A01ADECBCEC0E944A
:1012C0004B1C969587959695879596958795880F4B
:1012D000991F9C01220F331F220F331F820F931F70
:1012E0009A01281B390BC9018B838F8198859695AC
:1012F0008795969587959C01ABE7B4E10E944B1CBE
:10130000AC01569547959A01ADECBCEC0E944B1C84
:10131000969587959695879596958795880F991FA9
:101320009C01220F331F220F331F820F931FFA01DC
:10133000E81BF90BCF018C838F8198859C01ADEC64
:10134000BCEC0E944B1CAC015695479556954795B1
:10135000569547959A01ADECBCEC0E944B1C9695B6
:1013600087959695879596958795880F991F9C01E7
:10137000220F331F220F331F820F931F9A01281B46
:10138000390BC9018D834F8158859A01ADECBCECB6
:101390000E944B1C9695879596958795969587956F
:1013A000880F991F9C01220F331F220F331F820FBA
:1013B000931FFA01E81BF90BCF018E83198212C02B
:1013C0008981882F90E09E012E5F3F4F820F931FEF
:1013D000FC018081805D682F80EA98E0F0DD8981E2
:1013E0008F5F89838981853058F36AE080EA98E0CD
:1013F000E6DD00002896CDBFDEBFDF91CF910895D6
:10140000CF93DF93CDB7DEB72A97CDBFDEBF8A87F4
:101410008A8589831A8289818B838B818C838C81D5
:101420008695869586958D838D81882F90E0880F8F
:10143000991F82959295907F9827807F98279A5F31
:101440008E839F838A818823A9F0898188878885F4
:10145000882F90E09C012770332781E090E002C044
:10146000880F991F2A95E2F7282F8E819F81FC0112
:10147000258314C0898189878985882F90E09C0104
:101480002770332781E090E002C0880F991F2A95CA
:10149000E2F7282F8E819F81FC01268300002A9687
:1014A000CDBFDEBFDF91CF910895CF93DF93CDB74E
:1014B000DEB72A97CDBFDEBF8A878A85898381E020
:1014C0008A8389818B838B818C838C818695869599
:1014D00086958D838D81882F90E0880F991F829546
:1014E0009295907F9827807F98279A5F8E839F831D
:1014F0008A818823A9F0898188878885882F90E050
:101500009C012770332781E090E002C0880F991F6B
:101510002A95E2F7282F8E819F81FC01258314C034
:10152000898189878985882F90E09C0127703327DE
:1015300081E090E002C0880F991F2A95E2F7282FDA
:101540008E819F81FC01268300002A96CDBFDEBFDD
:10155000DF91CF910895CF93DF93CDB7DEB742E10E
:1015600053E267E674E489E19FE38CD00000DF91E9
:10157000CF910895CF93DF93CDB7DEB72797CDBF37
:10158000DEBF8C839D836E837F83198213C0898124
:10159000882F90E02981222F30E04E815F81240F37
:1015A000351FF90120818E5B9C4DFC0120838981D0
:1015B0008F5F89838981803150F3809122229091BD
:1015C0002322A0912422B0912522BC01CD0128D153
:1015D0009091642480915223692F38D380E065DF95
:1015E00080915223682F82E493E260D31A8220C054
:1015F0008A81882F90E082959295907F9827807FAE
:1016000098278E5E9C4DBC0182E493E27BD363E617
:1016100073E282E493E2BED382E493E281D421E0D8
:1016200041E061E082E493E22ED68A818F5F8A8373
:101630008A818330E8F280915223682F82E493E21A
:1016400035D380E0DDDE1B8213C08B81882F90E0D4
:101650002C813D81820F931F2B81222F30E02E5B46
:101660003C4DF9012081FC0120838B818F5F8B83AE
:101670008B81803150F300002796CDBFDEBFDF9114
:10168000CF9108950F931F93CF93DF93CDB7DEB71C
:101690006297CDBFDEBF6D877E878F87988B498B22
:1016A0005A8B8D859E85AF85B88989839A83AB8354
:1016B000BC83198645C08985882F90E08E5F9C4D3C
:1016C000FC018081882F90E0A0E0B0E0BC01CD015A
:1016D0000E94001BDC01CB0120E030E04AE754E42B
:1016E000BC01CD010E946C1ADC01CB012CE53FE866
:1016F00042E05FE3BC01CD010E94041ADC01CB0192
:101700008D839E83AF83B8871A8614C02D813E8156
:101710004F81588589819A81AB81BC81BC01CD0103
:10172000F9D6DC01CB0189839A83AB83BC838A859C
:101730008F5F8A878A85843148F389858F5F89879F
:101740008985803108F4B7CF1B8614C02D813E8176
:101750004F81588589819A81AB81BC81BC01CD01C3
:10176000D9D6DC01CB0189839A83AB83BC838B857B
:101770008F5F8B878B85843648F31C8630C02D8124
:101780003E814F81588589819A81AB81BC81BC01A2
:10179000CD01C0D6DC01CB0189839A83AB83BC83A6
:1017A0008C85882F90E029893A898901080F191FB3
:1017B00020E030E040E853E469817A818B819C81AC
:1017C0000E94B21BDC01CB01BC01CD010E94D41AE6
:1017D000DC01CB01F80180838C858F5F8C878C8541
:1017E000803368F22D813E814F81588589819A81AD
:1017F000AB81BC81BC01CD018DD6DC01CB018093D6
:10180000222290932322A0932422B0932522000029
:101810006296CDBFDEBFDF91CF911F910F910895EA
:10182000EF92FF920F931F93CF93DF93CDB7DEB765
:101830002F97CDBFDEBF6C877D878E879F878C8576
:101840009D85AE85BF858D839E83AF83B8871986BE
:1018500047C08985882F90E08E5B9C4DFC0180817C
:10186000882F90E0092E000CAA0BBB0BBC01CD0108
:101870000E94021BDC01CB012FE632E143E85AE370
:10188000BC01CD010E94B21BDC01CB012CE53FE87D
:1018900042E05FE3BC01CD010E94041ADC01CB01F0
:1018A00089839A83AB83BC831A8614C029813A81C9
:1018B0004B815C818D819E81AF81B885BC01CD015A
:1018C00029D6DC01CB018D839E83AF83B8878A85BF
:1018D0008F5F8A878A858A3048F389858F5F8987F9
:1018E0008985803108F4B5CF29813A814B815C81AB
:1018F0008D819E81AF81B885BC01CD010BD6DC0105
:10190000CB018D839E83AF83B88720E030E04FE723
:1019100053E46D817E818F8198850E94B21BDC012A
:10192000CB01BC01CD010E94D41ADC01CB01809314
:10193000522329813A814B815C818D819E81AF81C7
:10194000B885BC01CD01E6D5DC01CB018D839E833A
:10195000AF83B88720E030E04FE753E46D817E81AC
:101960008F8198850E94B21BDC01CB01BC01CD01A7
:101970000E94D41ADC01CB01809364241B862FC003
:1019800029813A814B815C818D819E81AF81B885AF
:10199000BC01CD01BFD5DC01CB018D839E83AF831C
:1019A000B8878B85082F10E020E030E04FE753E444
:1019B0006D817E818F8198850E94B21BDC01CB01F5
:1019C000BC01CD010E94D41ADC01CB01282FC80133
:1019D0008D5A9C4DFC0120838B858F5F8B878B8577
:1019E000803170F229813A814B815C818D819E81A9
:1019F000AF81B885BC01CD018DD5DC01CB018D83D4
:101A00009E83AF83B88720E030E04FE753E46D81D9
:101A10007E818F8198850E94B21BDC01CB01BC01C5
:101A2000CD010E94D41ADC01CB0180936524298169
:101A30003A814B815C818D819E81AF81B885BC01EB
:101A4000CD0168D5DC01CB018D839E83AF83B88740
:101A500020E030E04FE753E46D817E818F819885EF
:101A60000E94B21BDC01CB01BC01CD010E94D41A43
:101A7000DC01CB0180936324809163248823B9F235
:101A800029813A814B815C818D819E81AF81B885AE
:101A90000F2EF6E2EF2EF2E2FF2EF02D00E1BC0158
:101AA000CD010BD000002F96CDBFDEBFDF91CF91CF
:101AB0001F910F91FF90EF900895EF92FF920F9377
:101AC000CF93DF93CDB7DEB76397CDBFDEBF698716
:101AD0007A878B879C872D873E874F87588B098B0A
:101AE000EA8AFB8A19821A821E828989882F90E0ED
:101AF0000E945A1C8F8398871B820CC08B81882F71
:101B000090E02F813885820F931FFC0110828B811A
:101B10008F5F8B838B81803188F384C01C8214C0DB
:101B20002D853E854F85588989859A85AB85BC85ED
:101B3000BC01CD01EFD4DC01CB0189879A87AB874B
:101B4000BC878C818F5F8C838C81823048F320E04E
:101B500030E04FE753E469857A858B859C850E9448
:101B6000B21BDC01CB01BC01CD010E94D41ADC0107
:101B7000CB019989692F0E94151C892F8E838E8134
:101B8000882F90E02F813885820F931FFC01808180
:101B90008823C1F48A81882F90E02A893B89820FAB
:101BA000931F2E81FC0120838E81882F90E02F814E
:101BB0003885820F931F21E0FC0120838A818F5F8B
:101BC0008A831AC026E636E646E65FE369857A85AB
:101BD0008B859C850E94B21BDC01CB012DEC3CEC7B
:101BE0004CE45DE3BC01CD010E94041ADC01CB0191
:101BF00089879A87AB87BC8719821D820FC08D8128
:101C0000882F90E02F813885820F931FFC018081FF
:101C10009981890F89838D818F5F8D839D818989CA
:101C2000981768F38981803108F478CF8F8198857F
:101C30000E94F21C1F82188600006396CDBFDEBF93
:101C4000DF91CF910F91FF90EF900895CF93DF93A5
:101C500000D01F92CDB7DEB78B836C8319821A82B6
:101C600018C08B81282F30E089819A8182279327A1
:101C700029813A81235E3F4DF90130812C81232750
:101C80008D599C4DFC01208389819A81019689831D
:101C90009A8389819A818F3F910519F314F300008B
:101CA0002496CDBFDEBFDF91CF910895CF93DF9310
:101CB00000D01F92CDB7DEB78A839B836C831982D5
:101CC00017C08981882F90E02A813B81820F931F62
:101CD0002981222F30E04A815B81240F351FF901D1
:101CE00030812C812327FC01208389818F5F8983A8
:101CF0008981803130F300002496CDBFDEBFDF91B3
:101D0000CF910895CF93DF93CDB7DEB72597CDBFA1
:101D1000DEBF8A839B836C837D83198231C0898176
:101D2000882F90E08A5D9D4DFC018081882F90E096
:101D30002A813B81820F931F2981222F30E02A5D67
:101D40003D4DF9012081222F30E04A815B81240F33
:101D5000351FF90160812981222F30E02A5D3D4D38
:101D6000F9012081222F30E04C815D81240F351F45
:101D7000F90120812627FC01208389818F5F8983D7
:101D80008981803160F200002596CDBFDEBFDF91F2
:101D9000CF910895CF93DF93CDB7DEB72597CDBF11
:101DA000DEBF8A839B836C837D83198229C08981EE
:101DB000882F90E08A5D9D4DFC018081882F90E006
:101DC0002A813B81820F931F2981222F30E02A5DD7
:101DD0003D4DF9012081222F30E04A815B81240FA3
:101DE000351FF9012081222F30E04C815D81240FC5
:101DF000351FF9012081FC01208389818F5F898350
:101E000089818031A0F200002596CDBFDEBFDF9131
:101E1000CF910895CF93DF931F92CDB7DEB789831B
:101E20008981882F90E0880F991F982F89818823B6
:101E300014F48BE101C080E089270F90DF91CF91EE
:101E40000895CF93DF93CDB7DEB72F97CDBFDEBF19
:101E50008E876F8728E0CE010696FC01322F119203
:101E60003A95E9F78E858E83198281E090E08A8326
:101E70009B831AC08A819B8101979E012A5F3F4FF5
:101E8000820F931FFC018081C5DF482F9E012A5FCE
:101E90003F4F8A819B81820F931FFC0140838A817F
:101EA0009B8101968A839B838A819B81089714F387
:101EB0008F85982F91708E85989F802D112489830E
:101EC00081E090E08C839D8320C08F85882F90E0F7
:101ED0000C8002C0959587950A94E2F7482F4170CF
:101EE0009E012A5F3F4F8C819D81820F931FFC01D1
:101EF0008081489F802D1124982F8981892789838B
:101F00008C819D8101968C839D838C819D81089716
:101F1000E4F289812F96CDBFDEBFDF91CF91089586
:101F20000F931F93CF93DF93CDB7DEB7AB97CDBFA2
:101F3000DEBF8AA79BA71886809153238A8780914A
:101F4000632489A7198219C08981882F90E029818B
:101F5000222F30E02E5B3C4DF90140812981222F58
:101F600030E02D5A3C4DF901208124278E5B9C4D99
:101F7000FC01208389818F5F89838981803120F3EF
:101F80001A8214C08A81882F90E02A81222F30E0A3
:101F90002E5B3C4DF90130812091642423278E5B18
:101FA0009C4DFC0120838A818F5F8A838A818031E6
:101FB00048F381E08B833AC08B81882F90E02B819E
:101FC000222F30E02E5B3C4DF90140812B81222FE6
:101FD00030E0215031092E5B3C4DF901208124274E
:101FE0008E5B9C4DFC0120838B81882F90E02B81A0
:101FF000222F30E02D5A3C4DF90160812B81222F98
:1020000030E021503109AE01465F5F4F240F351F8C
:10201000F9012081462F42279E01265F3F4F820F04
:10202000931FFC0140838B818F5F8B838B81803179
:1020300018F21C8234C08C81882F90E02C81222FD2
:1020400030E0AE01465F5F4F240F351FF90130814C
:1020500020916524432F42279E01265F3F4F820F28
:10206000931FFC0140838C81882F90E02C81222FCC
:1020700030E02E5B3C4DF90160812C81222F30E055
:10208000AE01465F5F4F240F351FF90120812627DF
:102090008E5B9C4DFC0120838C818F5F8C838C81B7
:1020A000803148F29091632480916524692FC9DEC4
:1020B00089871D8227C08D81082F10E0209163241D
:1020C0008D81882F90E08E5B9C4DFC018081622F7A
:1020D000B8DE282FC8018E5B9C4DFC0120838D81CA
:1020E000882F90E02D81222F30E02E5B3C4DF901AE
:1020F0003081298523278E5B9C4DFC0120838D81B7
:102100008F5F8D838D818031B0F28FE08E8365C0CB
:102110008E81882F90E08E5B9C4DFC01808188230E
:1021200009F58E81882F90E001978E5B9C4DFC0114
:1021300020818E81882F90E001978E5B9C4DFC0161
:102140008081622F7EDE88878E81882F90E00197C4
:10215000409163249E01265E3F4F820F931FFC0136
:10216000408338C08E81882F90E08C010150110986
:102170008E81882F90E001978E5B9C4DFC01208121
:102180008E81882F90E08E5B9C4DFC018081622FB8
:1021900058DE282FC8018E5B9C4DFC0120838E8168
:1021A000882F90E08C01015011098E81882F90E0DA
:1021B0009E01265E3F4F820F931FFC01908180910C
:1021C0006324692F3EDE282FCE014A96800F911F8F
:1021D000FC0120838E8181508E838E81882309F0BB
:1021E00097CF1F8243C08F81882F90E09E01265E8B
:1021F0003F4F820F931FFC01908180915223692FE2
:1022000020DE482F8F81882F90E02F81222F30E011
:102210002E5B3C4DF901208124278E5B9C4DFC01F7
:1022200020838F81082F10E08F81882F90E09E01FE
:10223000265E3F4F820F931FFC018081882F90E024
:10224000835E9E4DFC0120818F81882F90E08E5B04
:102250009C4DFC018081622FF4DD282FC8018E5B2C
:102260009C4DFC0120838F818F5F8F838F81803114
:1022700008F4B9CF0000AB96CDBFDEBFDF91CF91A0
:102280001F910F910895CF93DF93CDB7DEB7679776
:10229000CDBFDEBF8B8B9C8B6D8B4E8B2F8B2FC15D
:1022A00019820BC18981882F90E0092E000CAA0B9E
:1022B000BB0B40E050E02FE030E0841B950B28176B
:1022C000390708F4F7C0FC018827EA54FF4F8F4F05
:1022D0000C94431C8981882F90E02B893C89F9015B
:1022E00040819E012D5F3F4F820F931FFC01408371
:1022F000E1C08981882F90E02B893C89F9014685CE
:102300009E012D5F3F4F820F931FFC014083D2C07F
:102310008981882F90E02B893C89F90140859E01B5
:102320002D5F3F4F820F931FFC014083C3C0898103
:10233000882F90E02B893C89F90146819E012D5F11
:102340003F4F820F931FFC014083B4C08981882FC7
:1023500090E02B893C89F90147819E012D5F3F4F19
:10236000820F931FFC014083A5C08981882F90E0D4
:102370002B893C89F90141819E012D5F3F4F820FDE
:10238000931FFC01408396C08981882F90E02B89A0
:102390003C89F90147859E012D5F3F4F820F931FB6
:1023A000FC01408387C08981882F90E02B893C897C
:1023B000F90141859E012D5F3F4F820F931FFC0164
:1023C000408378C08981882F90E02B893C89F9016E
:1023D00042859E012D5F3F4F820F931FFC0140837A
:1023E00069C08981882F90E02B893C89F90144815B
:1023F0009E012D5F3F4F820F931FFC0140835AC007
:102400008981882F90E02B893C89F90142819E01C6
:102410002D5F3F4F820F931FFC0140834BC089818A
:10242000882F90E02B893C89F90144859E012D5F1E
:102430003F4F820F931FFC0140833CC08981882F4E
:1024400090E02B893C89F90145859E012D5F3F4F26
:10245000820F931FFC0140832DC08981882F90E05B
:102460002B893C89F90143859E012D5F3F4F820FE7
:10247000931FFC0140831EC08981882F90E02B8927
:102480003C89F90145819E012D5F3F4F820F931FCB
:10249000FC0140830FC08981882F90E02B893C8903
:1024A000F90143819E012D5F3F4F820F931FFC0175
:1024B0004083000089818F5F89838981803108F49E
:1024C000F1CE1A8216C08A81882F90E02B893C8930
:1024D000820F931F2A81222F30E0AE014D5F5F4FA4
:1024E000240F351FF9012081FC0120838A818F5F31
:1024F0008A838A81803138F38D8981508D8B8D89D3
:10250000882309F0CDCE00006796CDBFDEBFDF91F6
:10251000CF910895CF92DF92EF92FF92CF93DF9306
:10252000CDB7DEB72897CDBFDEBF69837A838B83B3
:102530009C832D833E834F8358872D813E814F811D
:10254000588569817A818B819C81C2D7882384F4E4
:102550002D813E814F81588569817A818B819C8153
:10256000BBD7DC01CB0189839A83AB83BC8323C0B7
:1025700029813A814B815C8160E070E080E89FE3D3
:1025800042D7DC01CB016C017D012D813E814F8161
:10259000588560E070E080E89FE335D7DC01CB012F
:1025A0009C01AD01C701B60197D7DC01CB0189833E
:1025B0009A83AB83BC8389819A81AB81BC81BC0146
:1025C000CD012896CDBFDEBFDF91CF91FF90EF9078
:1025D000DF90CF900895CF93DF931F92CDB7DEB7F2
:1025E0008FE390E0FC0180818983F89489810F90CA
:1025F000DF91CF910895CF93DF931F92CDB7DEB7D0
:1026000089838FE390E02981FC01208300000F90F3
:10261000DF91CF910895CF93DF931F921F92CDB793
:10262000DEB78A83D8DF898380E590E020E530E05B
:10263000F90130812A81232BFC0120838981DBDF92
:1026400000000F900F90DF91CF910895CF93DF930B
:102650001F921F92CDB7DEB78A8380E590E0FC0120
:102660001282B9DF898380E590E020E530E0F9014E
:1026700030812A81232BFC0120838981BCDF00006B
:102680000F900F90DF91CF910895CF93DF931F921A
:102690001F92CDB7DEB78A839EDF898380E590E005
:1026A00020E530E0F9012081322F2A812095232373
:1026B000FC01208389819FDF00000F900F90DF9144
:1026C000CF910895CF93DF931F92CDB7DEB7898363
:1026D0008981883019F089819EDF02C08981B6DF47
:1026E00000000F90DF91CF910895CF93DF931F9259
:1026F000CDB7DEB7898380E590E0FC0191818981C7
:10270000982381E0992309F480E00F90DF91CF9125
:102710000895CF93DF931F92CDB7DEB78983000072
:102720008981E3DF982F81E089278823C9F700009A
:102730000F90DF91CF910895CF93DF9300D01F9238
:10274000CDB7DEB780E790E089839A831C821B8235
:102750000DC089819A819C012F5F3F4F29833A8365
:102760002FEFFC0120838B818F5F8B838B818730E0
:1027700080F388E0A7DF88E0CCDF000063E080E43E
:1027800090E03BD68C81882311F481E07EDF249693
:10279000CDBFDEBFDF91CF910895CF93DF9300D0FF
:1027A000CDB7DEB78A836B8316DF89838A81882F52
:1027B00090E080599F4F2A81222F30E020593F4FCF
:1027C000F9012081322F2B8120952323FC012083C6
:1027D000898111DF00002396CDBFDEBFDF91CF914D
:1027E0000895CF93DF931F92CDB7DEB78FE390E0CC
:1027F000FC0180818983F89489810F90DF91CF91CA
:102800000895CF93DF931F92CDB7DEB789838FE30F
:1028100090E02981FC01208300000F90DF91CF918F
:102820000895CF93DF931F921F92CDB7DEB78A83AF
:102830008A81882F90E08A599B4DFC0180818F3FCF
:1028400009F4FFCFCEDF89838A81882F90E09C0135
:102850002A593B4DF90120812F5F8A599B4DFC017C
:1028600020838981CEDF00000F900F90DF91CF9100
:1028700008951F920F9200903F000F921124009034
:102880003B000F922F933F934F935F936F937F93F0
:102890008F939F93AF93BF93EF93FF93CF93DF9368
:1028A000CDB7DEB78091362290913722892B31F057
:1028B0008091362290913722FC0119950000DF911A
:1028C000CF91FF91EF91BF91AF919F918F917F91A8
:1028D0006F915F914F913F912F910F9000923B002C
:1028E0000F9000923F000F901F9018951F920F922B
:1028F00000903F000F92112400903B000F922F9305
:102900003F934F935F936F937F938F939F93AF9377
:10291000BF93EF93FF93CF93DF93CDB7DEB7809153
:10292000382290913922892B31F080913822909170
:102930003922FC0119950000DF91CF91FF91EF91B1
:10294000BF91AF919F918F917F916F915F914F91C7
:102950003F912F910F9000923B000F9000923F000B
:102960000F901F9018951F920F9200903F000F92AA
:10297000112400903B000F922F933F934F935F934E
:102980006F937F938F939F93AF93BF93EF93FF9337
:10299000CF93DF93CDB7DEB780913A2290913B225F
:1029A000892B31F080913A2290913B22FC011995BC
:1029B0000000DF91CF91FF91EF91BF91AF919F9177
:1029C0008F917F916F915F914F913F912F910F90D8
:1029D00000923B000F9000923F000F901F901895BF
:1029E0001F920F9200903F000F92112400903B0025
:1029F0000F922F933F934F935F936F937F938F9398
:102A00009F93AF93BF93EF93FF93CF93DF93CDB794
:102A1000DEB780913C2290913D22892B31F080914C
:102A20003C2290913D22FC0119950000DF91CF914D
:102A3000FF91EF91BF91AF919F918F917F916F9196
:102A40005F914F913F912F910F9000923B000F901B
:102A500000923F000F901F9018951F920F920090C8
:102A60003F000F92112400903B000F922F933F9351
:102A70004F935F936F937F938F939F93AF93BF9386
:102A8000EF93FF93CF93DF93CDB7DEB780913E22D4
:102A900090913F22892B31F080913E2290913F22EC
:102AA000FC0119950000DF91CF91FF91EF91BF914B
:102AB000AF919F918F917F916F915F914F913F91D6
:102AC0002F910F9000923B000F9000923F000F90CB
:102AD0001F9018951F920F9200903F000F921124A3
:102AE00000903B000F922F933F934F935F936F9310
:102AF0007F938F939F93AF93BF93EF93FF93CF9366
:102B0000DF93CDB7DEB78091402290914122892B8F
:102B100031F08091402290914122FC0119950000F2
:102B2000DF91CF91FF91EF91BF91AF919F918F91E5
:102B30007F916F915F914F913F912F910F900092F4
:102B40003B000F9000923F000F901F9018951F922E
:102B50000F9200903F000F92112400903B000F92C3
:102B60002F933F934F935F936F937F938F939F9395
:102B7000AF93BF93EF93FF93CF93DF93CDB7DEB7C0
:102B80008091422290914322892B31F08091422200
:102B900090914322FC0119950000DF91CF91FF91A4
:102BA000EF91BF91AF919F918F917F916F915F91C5
:102BB0004F913F912F910F9000923B000F90009208
:102BC0003F000F901F9018951F920F9200903F00AA
:102BD0000F92112400903B000F922F933F934F933D
:102BE0005F936F937F938F939F93AF93BF93EF9375
:102BF000FF93CF93DF93CDB7DEB7809144229091BE
:102C00004522892B31F08091442290914522FC018C
:102C100019950000DF91CF91FF91EF91BF91AF9196
:102C20009F918F917F916F915F914F913F912F91E4
:102C30000F9000923B000F9000923F000F901F906A
:102C400018951F920F9200903F000F921124009050
:102C50003B000F922F933F934F935F936F937F931C
:102C60008F939F93AF93BF93EF93FF93CF93DF9394
:102C7000CDB7DEB78091462290914722892B31F063
:102C80008091462290914722FC0119950000DF9126
:102C9000CF91FF91EF91BF91AF919F918F917F91D4
:102CA0006F915F914F913F912F910F9000923B0058
:102CB0000F9000923F000F901F9018951F920F9257
:102CC00000903F000F92112400903B000F922F9331
:102CD0003F934F935F936F937F938F939F93AF93A4
:102CE000BF93EF93FF93CF93DF93CDB7DEB7809180
:102CF000482290914922892B31F08091482290916D
:102D00004922FC0119950000DF91CF91FF91EF91CD
:102D1000BF91AF919F918F917F916F915F914F91F3
:102D20003F912F910F9000923B000F9000923F0037
:102D30000F901F9018951F920F9200903F000F92D6
:102D4000112400903B000F922F933F934F935F937A
:102D50006F937F938F939F93AF93BF93EF93FF9363
:102D6000CF93DF93CDB7DEB780914A2290914B226B
:102D7000892B31F080914A2290914B22FC011995C8
:102D80000000DF91CF91FF91EF91BF91AF919F91A3
:102D90008F917F916F915F914F913F912F910F9004
:102DA00000923B000F9000923F000F901F901895EB
:102DB0001F920F9200903F000F92112400903B0051
:102DC0000F922F933F934F935F936F937F938F93C4
:102DD0009F93AF93BF93EF93FF93CF93DF93CDB7C1
:102DE000DEB780914C2290914D22892B31F0809159
:102DF0004C2290914D22FC0119950000DF91CF915A
:102E0000FF91EF91BF91AF919F918F917F916F91C2
:102E10005F914F913F912F910F9000923B000F9047
:102E200000923F000F901F9018951F920F920090F4
:102E30003F000F92112400903B000F922F933F937D
:102E40004F935F936F937F938F939F93AF93BF93B2
:102E5000EF93FF93CF93DF93CDB7DEB780914E22F0
:102E600090914F22892B31F080914E2290914F22E8
:102E7000FC0119950000DF91CF91FF91EF91BF9177
:102E8000AF919F918F917F916F915F914F913F9102
:102E90002F910F9000923B000F9000923F000F90F7
:102EA0001F9018951F920F9200903F000F921124CF
:102EB00000903B000F922F933F934F935F936F933C
:102EC0007F938F939F93AF93BF93EF93FF93CF9392
:102ED000DF93CDB7DEB78091502290915122892B9C
:102EE00031F08091502290915122FC0119950000FF
:102EF000DF91CF91FF91EF91BF91AF919F918F9112
:102F00007F916F915F914F913F912F910F90009220
:102F10003B000F9000923F000F901F9018951F925A
:102F20000F9200903F000F92112400903B000F92EF
:102F30002F933F934F935F936F937F938F939F93C1
:102F4000AF93BF93EF93FF93CF93DF93CDB7DEB7EC
:102F50008091522290915322892B31F080915222FC
:102F600090915322FC0119950000DF91CF91FF91C0
:102F7000EF91BF91AF919F918F917F916F915F91F1
:102F80004F913F912F910F9000923B000F90009234
:102F90003F000F901F9018951F920F9200903F00D6
:102FA0000F92112400903B000F922F933F934F9369
:102FB0005F936F937F938F939F93AF93BF93EF93A1
:102FC000FF93CF93DF93CDB7DEB7809154229091DA
:102FD0005522892B31F08091542290915522FC0189
:102FE00019950000DF91CF91FF91EF91BF91AF91C3
:102FF0009F918F917F916F915F914F913F912F9111
:103000000F9000923B000F9000923F000F901F9096
:1030100018951F920F9200903F000F92112400907C
:103020003B000F922F933F934F935F936F937F9348
:103030008F939F93AF93BF93EF93FF93CF93DF93C0
:10304000CDB7DEB78091562290915722892B31F06F
:103050008091562290915722FC0119950000DF9132
:10306000CF91FF91EF91BF91AF919F918F917F9100
:103070006F915F914F913F912F910F9000923B0084
:103080000F9000923F000F901F9018951F920F9283
:1030900000903F000F92112400903B000F922F935D
:1030A0003F934F935F936F937F938F939F93AF93D0
:1030B000BF93EF93FF93CF93DF93CDB7DEB78091AC
:1030C000582290915922892B31F080915822909169
:1030D0005922FC0119950000DF91CF91FF91EF91EA
:1030E000BF91AF919F918F917F916F915F914F9120
:1030F0003F912F910F9000923B000F9000923F0064
:103100000F901F9018951F920F9200903F000F9202
:10311000112400903B000F922F933F934F935F93A6
:103120006F937F938F939F93AF93BF93EF93FF938F
:10313000CF93DF93CDB7DEB780915A2290915B2277
:10314000892B31F080915A2290915B22FC011995D4
:103150000000DF91CF91FF91EF91BF91AF919F91CF
:103160008F917F916F915F914F913F912F910F9030
:1031700000923B000F9000923F000F901F90189517
:103180001F920F9200903F000F92112400903B007D
:103190000F922F933F934F935F936F937F938F93F0
:1031A0009F93AF93BF93EF93FF93CF93DF93CDB7ED
:1031B000DEB780915C2290915D22892B31F0809165
:1031C0005C2290915D22FC0119950000DF91CF9166
:1031D000FF91EF91BF91AF919F918F917F916F91EF
:1031E0005F914F913F912F910F9000923B000F9074
:1031F00000923F000F901F9018951F920F92009021
:103200003F000F92112400903B000F922F933F93A9
:103210004F935F936F937F938F939F93AF93BF93DE
:10322000EF93FF93CF93DF93CDB7DEB780915E220C
:1032300090915F22892B31F080915E2290915F22E4
:10324000FC0119950000DF91CF91FF91EF91BF91A3
:10325000AF919F918F917F916F915F914F913F912E
:103260002F910F9000923B000F9000923F000F9023
:103270001F9018951F920F9200903F000F921124FB
:1032800000903B000F922F933F934F935F936F9368
:103290007F938F939F93AF93BF93EF93FF93CF93BE
:1032A000DF93CDB7DEB78091602290916122892BA8
:1032B00031F08091602290916122FC01199500000B
:1032C000DF91CF91FF91EF91BF91AF919F918F913E
:1032D0007F916F915F914F913F912F910F9000924D
:1032E0003B000F9000923F000F901F901895CF93D6
:1032F000DF9300D0CDB7DEB78A839B8372DA8983F0
:103300008A819B818115984039F461E083E045DA38
:1033100064E083E042DA27C08A819B818034984050
:1033200039F462E083E039DA64E083E036DA1BC026
:103330008A819B818115994039F461E084E02DDA1E
:1033400064E084E02ADA0FC08A819B8181159A406B
:1033500039F461E085E021DA64E085E01EDA03C03B
:1033600089814FDA04C081E05CDA89814ADA2396E8
:10337000CDBFDEBFDF91CF910895CF93DF9300D013
:103380001F92CDB7DEB789839A836B837C83898153
:103390009A818115984039F48B819C8180933622E3
:1033A0009093372223C089819A818034984039F4E0
:1033B0008B819C81809342229093432217C0898104
:1033C0009A818115994039F48B819C8180934A229E
:1033D00090934B220BC089819A8181159A4031F4D8
:1033E0008B819C81809356229093572200002496D3
:1033F000CDBFDEBFDF91CF9108951BBEFC0128ED4C
:1034000024BF608308955058BB27AA270ED070C1EF
:1034100061D130F066D120F031F49F3F11F41EF4F9
:1034200056C10EF4E095E7FB4CC1E92F72D180F351
:10343000BA17620773078407950718F071F49EF5B1
:103440008AC10EF4E0950B2EBA2FA02D0B01B90105
:1034500090010C01CA01A0011124FF27591B99F00A
:10346000593F50F4503E68F11A16F040A22F232F16
:10347000342F4427585FF3CF469537952795A79566
:10348000F0405395C9F77EF41F16BA0B620B730B0D
:10349000840BBAF09150A1F0FF0FBB1F661F771F7E
:1034A000881FC2F70EC0BA0F621F731F841F48F433
:1034B000879577956795B795F7959E3F08F0B3CFB9
:1034C0009395880F08F09927EE0F979587950895A3
:1034D000D4D008F481E008950CD00AC102D140F0A4
:1034E000F9D030F021F45F3F19F0EBC0511134C135
:1034F000EEC00FD198F39923C9F35523B1F3951B6F
:10350000550BBB27AA2762177307840738F09F5F04
:103510005F4F220F331F441FAA1FA9F333D00E2E73
:103520003AF0E0E830D091505040E695001CCAF7E0
:1035300029D0FE2F27D0660F771F881FBB1F2617A5
:1035400037074807AB07B0E809F0BB0B802DBF0178
:10355000FF2793585F4F2AF09E3F510568F0B1C096
:10356000FBC05F3FECF3983EDCF38695779567955B
:10357000B795F7959F5FC9F7880F911D9695879529
:1035800097F90895E1E0660F771F881FBB1F621748
:1035900073078407BA0720F0621B730B840BBA0B06
:1035A000EE1F88F7E0950895BCD088F09F5790F003
:1035B000B92F9927B751A0F0D1F0660F771F881F58
:1035C000991F1AF0BA95C9F712C0B13081F0C3D073
:1035D000B1E00895C0C0672F782F8827B85F39F011
:1035E000B93FCCF3869577956795B395D9F73EF4B7
:1035F00090958095709561957F4F8F4F9F4F08955F
:10360000E89409C097FB3EF490958095709561957C
:103610007F4F8F4F9F4F9923A9F0F92F96E9BB2732
:103620009395F695879577956795B795F111F8CFAE
:10363000FAF4BB0F11F460FF1BC06F5F7F4F8F4F19
:103640009F4F16C0882311F096E911C0772321F00F
:103650009EE8872F762F05C0662371F096E8862FA7
:1036600070E060E02AF09A95660F771F881FDAF7FE
:10367000880F9695879597F90895990F0008550F2B
:10368000AA0BE0E8FEEF16161706E807F907C0F0E8
:1036900012161306E407F50798F0621B730B840BF0
:1036A000950B39F40A2661F0232B242B252B21F4CA
:1036B00008950A2609F4A140A6958FEF811D811D6A
:1036C000089597F99F6780E870E060E008959FEFA4
:1036D00080EC089500240A941616170618060906A9
:1036E000089500240A941216130614060506089578
:1036F000092E0394000C11F4882352F0BB0F40F400
:10370000BF2B11F460FF04C06F5F7F4F8F4F9F4F3F
:10371000089557FD9058440F551F59F05F3F71F0C1
:103720004795880F97FB991F61F09F3F79F0879528
:103730000895121613061406551FF2CF4695F1DFB1
:1037400008C0161617061806991FF1CF8695710541
:10375000610508940895E894BB2766277727CB0175
:1037600097F908950BD0C4CFB5DF28F0BADF18F071
:10377000952309F0A6CFABCF1124EECFCADFA0F37B
:10378000959FD1F3950F50E0551F629FF001729FF6
:10379000BB27F00DB11D639FAA27F00DB11DAA1F15
:1037A000649F6627B00DA11D661F829F2227B00D62
:1037B000A11D621F739FB00DA11D621F839FA00DED
:1037C000611D221F749F3327A00D611D231F849F3D
:1037D000600D211D822F762F6A2F11249F57504094
:1037E0008AF0E1F088234AF0EE0FFF1FBB1F661F2F
:1037F000771F881F91505040A9F79E3F510570F0E8
:1038000060CFAACF5F3FECF3983EDCF386957795C7
:103810006795B795F795E7959F5FC1F7FE2B880FE2
:10382000911D9695879597F90895991B79E004C0A5
:10383000991F961708F0961B881F7A95C9F78095EF
:103840000895A1E21A2EAA1BBB1BFD010DC0AA1FE1
:10385000BB1FEE1FFF1FA217B307E407F50720F0F9
:10386000A21BB30BE40BF50B661F771F881F991F74
:103870001A9469F760957095809590959B01AC01BD
:10388000BD01CF010895EE0FFF1F881F8BBF07906A
:10389000F691E02D1994A29FB001B39FC001A39FA0
:1038A000700D811D1124911DB29F700D811D112479
:1038B000911D08950F931F93CF93DF93823091054D
:1038C00010F482E090E0E0916E24F0916F2420E00B
:1038D00030E0A0E0B0E0309719F1408151810281E1
:1038E000138148175907C8F08417950769F4109792
:1038F00031F012960C93129713961C9327C00093E5
:103900006E2410936F2422C02115310519F042173F
:10391000530718F49A01BD01EF01DF01F801DBCF75
:1039200021153105F9F0281B390B2430310580F4BD
:103930008A819B816115710521F0FB01828393834C
:1039400004C080936E2490936F24FE01329644C08D
:10395000FE01E20FF31F81939193225031092883D6
:1039600039833AC020916C2430916D24232B41F48B
:10397000209102203091032020936C2430936D24F9
:1039800020910020309101202115310541F42DB7FF
:103990003EB74091042050910520241B350BE09147
:1039A0006C24F0916D24E217F307A0F42E1B3F0B5B
:1039B0002817390778F0AC014E5F5F4F24173507A1
:1039C00048F04E0F5F1F40936C2450936D248193F9
:1039D000919302C0E0E0F0E0CF01DF91CF911F9121
:1039E0000F910895CF93DF93009709F481C0FC01F4
:1039F000329712821382A0916E24B0916F24109797
:103A000081F420813181820F931F20916C243091A9
:103A10006D242817390751F5E0936C24F0936D2439
:103A200067C0ED0120E030E0CE17DF0740F44A81A7
:103A30005B819E0141155105F1F0EA01F5CFC2838A
:103A4000D38340815181840F951FC817D90759F43A
:103A500088819981840F951F0296808391838A8142
:103A60009B81828393832115310529F4E0936E2491
:103A7000F0936F243DC0E901EA83FB83499159919A
:103A8000C40FD51FEC17FD0761F480819181840F6D
:103A9000951F0296E90188839983828193818A83A5
:103AA0009B83E0E0F0E012968D919C911397009734
:103AB00019F0FD01DC01F7CF8D919C9111979D01CB
:103AC0002E5F3F4F820F931F20916C2430916D2405
:103AD0002817390769F4309729F410926E24109250
:103AE0006F2402C012821382A0936C24B0936D24C1
:0A3AF000DF91CF910895F894FFCF05
:103AFA0000007024200030313233343536373839FB
:103B0A0041424344454600960000030000637C7727
:103B1A007BF26B6FC53001672BFED7AB76CA82C9C1
:103B2A007DFA5947F0ADD4A2AF9CA472C0B7FD93F9
:103B3A0026363FF7CC34A5E5F171D8311504C723F1
:103B4A00C31896059A071280E2EB27B27509832CEF
:103B5A001A1B6E5AA0523BD6B329E32F8453D100C5
:103B6A00ED20FCB15B6ACBBE394A4C58CFD0EFAAE4
:103B7A00FB434D338545F9027F503C9FA851A34032
:103B8A008F929D38F5BCB6DA2110FFF3D2CD0C1313
:103B9A00EC5F974417C4A77E3D645D197360814F3B
:103BAA00DC222A908846EEB814DE5E0BDBE0323A5D
:103BBA000A4906245CC2D3AC629195E479E7C83716
:103BCA006D8DD54EA96C56F4EA657AAE08BA782599
:103BDA002E1CA6B4C6E8DD741F4BBD8B8A703EB599
:103BEA00664803F60E613557B986C11D9EE1F898FD
:103BFA001169D98E949B1E87E9CE5528DF8CA1893D
:103C0A000DBFE6426841992D0FB054BB1600018DD5
:103C1A00F6CB527BD1E84F29C0B0E1E5C774B4AA0C
:103C2A004B992B605F583FFDCCFF40EEB23A6E5A7B
:103C3A00F1554DA8C9C10A98153044A2C22C459223
:103C4A006CF3396642F235206F77BB59191DFE377E
:103C5A00672D31F569A764AB135425E909ED5C05B5
:103C6A00CA4C2487BF183E22F051EC6117165EAF8A
:103C7A00D349A63643F44791DF3393213B79B7976B
:103C8A008510B5BA3CB670D006A1FA8182837E7FD0
:103C9A00809673BE569B9E95D9F702B9A4DE6A3206
:103CAA006DD88A84722A149F88F9DC899AFB7C2E43
:103CBA00C38FB8654826C8124ACEE7D2620CE01F05
:103CCA00EF11757871A58E763DBDBC86570B282FEE
:103CDA00A3DAD4E40FA92753041BFCACE67A07AE97
:103CEA0063C5DBE2EA948BC4D59DF8906BB10DD61F
:103CFA00EBC60ECFAD084ED7E35D501EB35B23383B
:0E3D0A00346846038CDD9C7DA0CD1A411C0060
:00000001FF
