:10000000B5C00000D3C00000D1C00000CFC00000C8
:10001000CDC00000CBC00000C9C00000C7C00000B8
:10002000C5C00000C3C00000C1C00000BFC00000C8
:10003000BDC00000BBC000000C94E5140C94121568
:100040000C943F150C946C150C9499150C94C615D2
:100050000C94F3150C9420160C944D160C947A16EF
:10006000A5C00000A3C00000A1C000009FC0000008
:100070009DC000009BC0000099C0000097C0000018
:1000800095C0000093C0000091C000008FC0000028
:100090008DC000008BC0000089C0000087C0000038
:1000A00085C0000083C0000081C000007FC0000048
:1000B0007DC000007BC0000079C000000C94B51723
:1000C0000C94E2170C940F180C943C180C946918BB
:1000D0000C9496186BC0000069C0000067C0000057
:1000E00065C0000063C0000061C000005FC0000088
:1000F0005DC000005BC0000059C0000057C0000098
:1001000055C0000053C0000051C000004FC00000A7
:100110004DC000004BC0000049C0000047C00000B7
:1001200045C0000043C0000041C000003FC00000C7
:100130003DC000000C94A7160C94D4160C94011723
:100140000C942E170C945B170C9488172FC000008A
:100150002DC000002BC0000029C0000027C00000F7
:1001600025C0000023C0000021C0000011241FBED4
:10017000CFEFCDBFDFE3DEBF00E00CBF12E2A0E0B7
:10018000B0E2EEE6F9E300E00BBF02C007900D928B
:10019000AE31B107D9F724E2AEE1B2E201C01D925F
:1001A000A037B207E1F7FCD20C94B51C29CF8F928F
:1001B0009F92AF92BF92CF92DF92EF92FF920F93F6
:1001C0001F93CF93DF93EC018B01009709F44AC092
:1001D000811524E0920709F429C1803841E0940791
:1001E00009F429C18038934009F42AC1C11582E07D
:1001F000D80709F42AC1C11598E0D90709F42AC122
:10020000C115A9E0DA0709F42AC1C115BAE0DB0774
:1002100009F42AC1C034E8E0DE0709F42AC1C03974
:10022000F8E0DF0709F42AC1C03C28E0D20709F44E
:100230002AC1C03C49E0D40709F42AC1C03A58E0B9
:10024000D50709F42AC1C03A89E0D80709F42AC1C0
:10025000C03894E0D90709F4E4C0C03AA4E0DA0752
:1002600009F4DAC08D818F738D83F80195818481C3
:10027000892B96819111C9C090E0892B8D83D8017B
:10028000CD90DD90ED90FC908C8182FF1EC0D70157
:10029000C6010197A109B109823A9E40AE40B1055D
:1002A000D8F080E09C8198609C839C8190619C83C5
:1002B000DF91CF911F910F91FF90EF90DF90CF9042
:1002C000BF90AF909F908F90089592E5C91697E0E8
:1002D000D906E906F10428F78C8182FF98C0E0E195
:1002E0008E2EE5E79E2EE0E7AE2EB12CC501B401BF
:1002F000A70196010E94511B2F3F31054105510571
:1003000008F4D5C02F3FF1E03F074105510508F43F
:1003100000C12F3F83E038074105510508F436C17D
:100320002F3F97E039074105510508F431C12F3FB0
:10033000AFE03A074105510508F42CC12E3FBFE15B
:100340003B074105510508F427C12C3FEFE33E0769
:100350004105510508F422C1283FFFE73F07410549
:10036000510508F41DC1203F8FEF380741055105A5
:1003700008F421C1203E9FEF390791E0490751055C
:1003800008F41BC1203CAFEF3A07A3E04A07510530
:1003900008F415C12038BFEF3B07B7E04B07510504
:1003A00008F40FC12115EFEF3E07EFE04E075105AE
:1003B00008F409C121153E4F4F41510508F405C10C
:1003C00010E72AE030E0D701C60104C0880F991F6A
:1003D000AA1FBB1F2A95D2F79C01AD01B695A79520
:1003E00097958795BC01CD01605F7A488F489F4FF4
:1003F0000E94511B2150310941095109832F8F70EF
:10040000812B8F832E8381E04DCF98E036CFCC0CAB
:10041000DD1CEE1CFF1C63CF60E485E00E94CF145E
:1004200021CF60E483E00E94CF141CCF64E080E021
:100430000E94CF1417CF62E080E00E94CF1412CF49
:1004400061E081E00E94CF140DCF62E081E00E9464
:10045000CF1408CF61E083E00E94CF1403CF61E0A6
:1004600084E00E94CF14FECE61E085E00E94CF14AC
:10047000F9CE62E083E00E94CF14F4CE64E083E022
:100480000E94CF14EFCE68E083E00E94CF14EACE42
:1004900068E084E00E94CF14E5CE60E183E00E9432
:1004A000CF14E0CE60E184E00E94CF14DBCED70110
:1004B000C601880F991FAA1FBB1F880F991FAA1F6B
:1004C000BB1F880F991FAA1FBB1F881A990AAA0A67
:1004D000BB0A10E989EF9FEF2DEF3FEFA901481B01
:1004E000590B04C0880C991CAA1CBB1C4A95D2F756
:1004F000D701C601B695A79597958795BC01CD0103
:10050000680D791D8A1D9B1DA70196010E94511B34
:1005100075CF2AEF822F022E000C990B122F129505
:10052000107FB701A601440F551F661F771F440FA8
:10053000551F661F771F440F551F661F771FA0E1C9
:100540008A2EA5E79A2EA0E7AA2EB12C841A950A26
:10055000A60AB70A2E3F0CF4BFCF0396A701960157
:1005600004C0220F331F441F551F8A95D2F7DA01AA
:10057000C901B695A79597958795BC01CD01680DE2
:10058000791D8A1D9B1D0E94511B38CF2BEFC2CFB6
:100590002CEFC0CF2DEFBECF2EEFBCCF2FEFBACFB9
:1005A00080E0282F082E000C330B2D5F3F4F182FB3
:1005B0001295107F08CF81E0F4CF82E0F2CF83E084
:1005C000F0CF84E0EECF85E0ECCF86E0EACFFC010F
:1005D000918195FFFDCF608380E090E00895FC015C
:1005E000918197FFFDCF808108950F931F93CF9343
:1005F000DF936115710591F1DC018A01C0E0D0E063
:1006000019C0E0620E2E000CFF0BE755F109E295D0
:10061000E07F2A33ECF02062022E000C330B2755CA
:1006200031092E2BF80121938F0122961296C617BD
:10063000D707A0F4EC9111962C911197EA330CF79F
:100640000E2E000CFF0BF097E295E07F2A331CF78B
:10065000022E000C330B20533109E3CFCA01DF9186
:10066000CF911F910F910895CF93DF93611571057D
:1006700019F1EA01DC01860F971F9D01ED91E295CA
:10068000EF70F0E0EA5FFF4DE081E883F90120813F
:10069000E22FEF70F0E0EA5FFF4D20812983229680
:1006A000A817B90751F7660F771FFA01E60FF71F72
:1006B0001082DF91CF91089560E070E0F6CF8091D5
:1006C0002022909121220196809320229093212232
:1006D00080911E2290911F22019680931E2290935A
:1006E0001F22E0E0F8E08485816084870895CF933D
:1006F000DF93CDB7DEB72797CDBFDEBF0E949E1434
:10070000E0E4F6E088E0818384E08283E0E0F6E0E4
:1007100081E0818380E28183868380E48183858395
:10072000E6E1F0E284818D8385818E8386818F83EB
:1007300080819181A281B38189839A83AB83BC83B9
:1007400060E183E00E94CF14BE016F5F7F4F80EABB
:1007500098E02DDD87E08093A20080E098E00E9481
:10076000C3186FE573E080E098E00E941119E0E0A3
:10077000F8E08181887F818381EE92E086A397A350
:1007800086818C7F8683868181608683789480854C
:100790008E6F80872796CDBFDEBFDF91CF91089502
:1007A000A6DFC0E010E082E8E82E82E2F82E80EAC0
:1007B00098E015DF8837A1F08B36A9F08037B1F0CB
:1007C000C130B9F0C23099F78A3059F18D3049F112
:1007D000103498F0C0E080EA98E001DF883761F7D4
:1007E000C0E010E0E4CFC1E010E0E1CFC2E010E0F3
:1007F000DECF8A3049F08D3039F0E12FF0E0EE594C
:10080000FD4D80831F5FD3CF612F70E0FB01EE5958
:10081000FD4D108242E053E282E692E2E6DEC0E065
:10082000C6CF612F70E0FB01EE59FD4D108242EA08
:1008300052E282E692E2D9DE10922008109221085C
:1008400080910008807F81608093000862EA72E2F4
:1008500082EF92E20E94501180912008909121082D
:1008600080910008807F8093000842E652E260E1B8
:1008700070E082EF92E2F8DE62E780EA98E0A7DEBD
:10088000C2E6D2E2699180EA98E0A1DEEC16FD06AC
:10089000C9F76AE080EA98E09ADE1092202210926E
:1008A0002122C0E084CF6F927F928F929F92AF926D
:1008B000BF92CF92DF92EF92FF920F931F93CF934D
:1008C000DF936B017C013A0102E013E2F8016191D0
:1008D0008F0170E080E090E00E94381A20E030E064
:1008E0004AE754E40E94A4192CE53FE842E05FE3A4
:1008F0000E943C194B015C01C4E10AC0A5019401AE
:10090000C701B6010E94A4196B017C01C15021F1FD
:10091000A7019601C501B4010E94EA1A181674F3E2
:10092000A701960160E070E080E89FE30E943B1918
:100930006B017C01A501940160E070E080E89FE319
:100940000E943B199B01AC01C701B6010E94A4198A
:100950006B017C01C150E1F6F3E202311F0709F09F
:10096000B5CFC4E60AC0A5019401C701B6010E9433
:10097000A4196B017C01C15021F1A7019601C501A9
:10098000B4010E94EA1A181674F3A701960160E0F8
:1009900070E080E89FE30E943B196B017C01A50198
:1009A000940160E070E080E89FE30E943B199B01A6
:1009B000AC01C701B6010E94A4196B017C01C150B2
:1009C000E1F6E3018301005D1F4F16C0A50194010C
:1009D000C701B6010E94A4196B017C0120E030E040
:1009E00040E853E4C701B6010E94EE1A0E940C1AB7
:1009F00069930C171D0719F1A7019601C501B401F0
:100A00000E94EA1A181614F3A701960160E070E03C
:100A100080E89FE30E943B196B017C01A5019401D2
:100A200060E070E080E89FE30E943B199B01AC010D
:100A3000C701B6010E94A4196B017C01CFCFA701A9
:100A40009601C501B4010E94EA1A18167CF1A701AB
:100A5000960160E070E080E89FE30E943B196B0123
:100A60007C01A501940160E070E080E89FE30E94B2
:100A70003B199B01AC01C701B6010E94A419609308
:100A80003222709333228093342290933522DF9167
:100A9000CF911F910F91FF90EF90DF90CF90BF907B
:100AA000AF909F908F907F906F900895A5019401D3
:100AB000C701B6010E94A419E2CF8F929F92AF9214
:100AC000BF92CF92DF92EF92FF920F931F93CF933B
:100AD000DF934B015C01C2E4D3E259C1A50194014B
:100AE00060E070E080E89FE30E943B194B015C01ED
:100AF000A701960160E070E080E89FE30E943B1947
:100B00009B01AC01C501B4010E94A4194B015C0119
:100B1000A5019401C701B6010E94EA1A18160CF447
:100B200011C5A501940160E070E080E89FE30E9498
:100B30003B194B015C01A701960160E070E080E881
:100B40009FE30E943B199B01AC01C501B4010E94C7
:100B5000A4194B015C01A5019401C701B6010E94D3
:100B6000EA1A18160CF4E5C4A501940160E070E0DF
:100B700080E89FE30E943B194B015C01A7019601AD
:100B800060E070E080E89FE30E943B199B01AC01AC
:100B9000C501B4010E94A4194B015C01A501940197
:100BA000C701B6010E94EA1A18160CF4B9C4A501CF
:100BB000940160E070E080E89FE30E943B194B01E4
:100BC0005C01A701960160E070E080E89FE30E946D
:100BD0003B199B01AC01C501B4010E94A4194B0152
:100BE0005C01A5019401C701B6010E94EA1A18161A
:100BF0000CF48DC4A501940160E070E080E89FE3EF
:100C00000E943B194B015C01A701960160E070E076
:100C100080E89FE30E943B199B01AC01C501B40130
:100C20000E94A4194B015C01A5019401C701B60102
:100C30000E94EA1A18160CF461C4A501940160E040
:100C400070E080E89FE30E943B194B015C01A70123
:100C5000960160E070E080E89FE30E943B199B01F1
:100C6000AC01C501B4010E94A4194B015C01A501AE
:100C70009401C701B6010E94EA1A18160CF435C493
:100C8000A501940160E070E080E89FE30E943B19B9
:100C90004B015C01A701960160E070E080E89FE3F2
:100CA0000E943B199B01AC01C501B4010E94A4192B
:100CB0004B015C01A5019401C701B6010E94EA1A2B
:100CC00018160CF409C4A501940160E070E080E8F6
:100CD0009FE30E943B194B015C01A701960160E074
:100CE00070E080E89FE30E943B199B01AC01C501C5
:100CF000B4010E94A4194B015C01A5019401C70134
:100D0000B6010E94EA1A18160CF4DDC3A50194017D
:100D100060E070E080E89FE30E943B194B015C01BA
:100D2000A701960160E070E080E89FE30E943B1914
:100D30009B01AC01C501B4010E94A4194B015C01E7
:100D4000A5019401C701B6010E94EA1A18160CF415
:100D500042C0A501940160E070E080E89FE30E943A
:100D60003B194B015C01A701960160E070E080E84F
:100D70009FE30E943B199B01AC01C501B4010E9495
:100D8000A4194B015C0183E2C235D80781F1699156
:100D900070E080E090E00E943A1A2FE632E143E8EA
:100DA0005AE30E94EE1A2CE53FE842E05FE30E941E
:100DB0003C196B017C01A50194010E94EA1A1816E6
:100DC0000CF08CCEA7019601C501B4010E94A419B4
:100DD0004B015C019DCEA7019601C501B4010E94A3
:100DE000A4194B015C0183E2C235D80781F6A50145
:100DF0009401C701B6010E94EA1A18160CF025C525
:100E0000A7019601C501B4010E94A4194B015C0120
:100E100020E030E04FE753E4C501B4010E94EE1A30
:100E20000E940C1A60935223A5019401C701B601D8
:100E30000E94EA1A18160CF023C5A7019601C501F5
:100E4000B4010E94A4194B015C0120E030E04FE79F
:100E500053E4C501B4010E94EE1A0E940C1A60937B
:100E60006424A5019401C701B6010E94EA1A18166C
:100E70000CF42EC4A501940160E070E080E89FE3CB
:100E80000E943B194B015C01A701960160E070E0F4
:100E900080E89FE30E943B199B01AC01C501B401AE
:100EA0000E94A4194B015C0120E030E04FE753E4BD
:100EB000C501B4010E94EE1A0E940C1A60935323DC
:100EC000A5019401C701B6010E94EA1A18160CF494
:100ED00050C4A501940160E070E080E89FE30E94A7
:100EE0003B194B015C01A701960160E070E080E8CE
:100EF0009FE30E943B199B01AC01C501B4010E9414
:100F0000A4194B015C0120E030E04FE753E4C50138
:100F1000B4010E94EE1A0E940C1A60935423A5019A
:100F20009401C701B6010E94EA1A18160CF418C4FD
:100F3000A501940160E070E080E89FE30E943B1906
:100F40004B015C01A701960160E070E080E89FE33F
:100F50000E943B199B01AC01C501B4010E94A41978
:100F60004B015C0120E030E04FE753E4C501B401E0
:100F70000E94EE1A0E940C1A60935523A501940159
:100F8000C701B6010E94EA1A18160CF4E0C3A501C5
:100F9000940160E070E080E89FE30E943B194B0100
:100FA0005C01A701960160E070E080E89FE30E9489
:100FB0003B199B01AC01C501B4010E94A4194B016E
:100FC0005C0120E030E04FE753E4C501B4010E942A
:100FD000EE1A0E940C1A60935623A5019401C701D2
:100FE000B6010E94EA1A18160CF4A8C3A5019401D0
:100FF00060E070E080E89FE30E943B194B015C01D8
:10100000A701960160E070E080E89FE30E943B1931
:101010009B01AC01C501B4010E94A4194B015C0104
:1010200020E030E04FE753E4C501B4010E94EE1A1E
:101030000E940C1A60935723A5019401C701B601C1
:101040000E94EA1A18160CF4DCC3A501940160E0B2
:1010500070E080E89FE30E943B194B015C01A7010F
:10106000960160E070E080E89FE30E943B199B01DD
:10107000AC01C501B4010E94A4194B015C0120E040
:1010800030E04FE753E4C501B4010E94EE1A0E941C
:101090000C1A60935823A5019401C701B6010E9460
:1010A000EA1A18160CF4A4C3A501940160E070E0DC
:1010B00080E89FE30E943B194B015C01A701960168
:1010C00060E070E080E89FE30E943B199B01AC0167
:1010D000C501B4010E94A4194B015C0120E030E07D
:1010E0004FE753E4C501B4010E94EE1A0E940C1AA6
:1010F00060935923A5019401C701B6010E94EA1A21
:1011000018160CF46CC3A501940160E070E080E84F
:101110009FE30E943B194B015C01A701960160E02F
:1011200070E080E89FE30E943B199B01AC01C50180
:10113000B4010E94A4194B015C0120E030E04FE7AC
:1011400053E4C501B4010E94EE1A0E940C1A609388
:101150005A23A5019401C701B6010E94EA1A181684
:101160000CF434C3A501940160E070E080E89FE3D3
:101170000E943B194B015C01A701960160E070E001
:1011800080E89FE30E943B199B01AC01C501B401BB
:101190000E94A4194B015C0120E030E04FE753E4CA
:1011A000C501B4010E94EE1A0E940C1A60935B23E1
:1011B000A7019601C501B4010E94A01987FDFDC2D7
:1011C000A501940160E070E080E89FE30E943B1974
:1011D0004B015C01A701960160E070E080E89FE3AD
:1011E0000E943B199B01AC01C501B4010E94A419E6
:1011F0004B015C0120E030E04FE753E4C501B4014E
:101200000E94EE1A0E940C1A60935C23A5019401BF
:10121000C701B6010E94EA1A18160CF4C5C2A5014E
:10122000940160E070E080E89FE30E943B194B016D
:101230005C01A701960160E070E080E89FE30E94F6
:101240003B199B01AC01C501B4010E94A4194B01DB
:101250005C0120E030E04FE753E4C501B4010E9497
:10126000EE1A0E940C1A60935D23A5019401C70138
:10127000B6010E94EA1A18160CF48DC2A501940159
:1012800060E070E080E89FE30E943B194B015C0145
:10129000A701960160E070E080E89FE30E943B199F
:1012A0009B01AC01C501B4010E94A4194B015C0172
:1012B00020E030E04FE753E4C501B4010E94EE1A8C
:1012C0000E940C1A60935E23A5019401C701B60128
:1012D0000E94EA1A18160CF455C2A501940160E0A8
:1012E00070E080E89FE30E943B194B015C01A7017D
:1012F000960160E070E080E89FE30E943B199B014B
:10130000AC01C501B4010E94A4194B015C0120E0AD
:1013100030E04FE753E4C501B4010E94EE1A0E9489
:101320000C1A60935F23A5019401C701B6010E94C6
:10133000EA1A18160CF4F9C1A501940160E070E0F6
:1013400080E89FE30E943B194B015C01A7019601D5
:1013500060E070E080E89FE30E943B199B01AC01D4
:10136000C501B4010E94A4194B015C0120E030E0EA
:101370004FE753E4C501B4010E94EE1A0E940C1A13
:1013800060936023A5019401C701B6010E94EA1A87
:1013900018160CF4C1C1A501940160E070E080E86A
:1013A0009FE30E943B194B015C01A701960160E09D
:1013B00070E080E89FE30E943B199B01AC01C501EE
:1013C000B4010E94A4194B015C0120E030E04FE71A
:1013D00053E4C501B4010E94EE1A0E940C1A6093F6
:1013E0006123A5019401C701B6010E94EA1A1816EB
:1013F0000CF077C1A7019601C501B4010E94A419A0
:101400004B015C0120E030E04FE753E4C501B4013B
:101410000E94EE1A0E940C1A60936223A5019401A7
:10142000C701B6010E94EA1A18160CF0F3C1A70111
:101430009601C501B4010E94A4194B015C0120E092
:1014400030E04FE753E4C501B4010E94EE1A0E9458
:101450000C1A6093652414C0A7019601C501B4015C
:101460000E94A4194B015C0120E030E04FE753E4F7
:10147000C501B4010E94EE1A0E940C1A61116BC0E2
:10148000A7019601C501B4010E94A01987FDE4CF10
:10149000A501940160E070E080E89FE30E943B19A1
:1014A0004B015C01A701960160E070E080E89FE3DA
:1014B0000E943B199B01AC01C501B4010E94A41913
:1014C0004B015C01D1CFA7019601C501B4010E9477
:1014D000A4194B015C0134CCA7019601C501B401EC
:1014E0000E94A4194B015C0108CCA7019601C5011B
:1014F000B4010E94A4194B015C01DCCBA701960149
:10150000C501B4010E94A4194B015C01B0CBA70135
:101510009601C501B4010E94A4194B015C0184CB62
:10152000A7019601C501B4010E94A4194B015C01F9
:1015300058CBA7019601C501B4010E94A4194B0123
:101540005C012CCBA7019601C501B4010E94A4192E
:101550004B015C0100CB6093632461E070E080E1AB
:1015600090E00E94731BEC0110E001E076C0A50141
:10157000940160E070E080E89FE30E943B194B011A
:101580005C01A701960160E070E080E89FE30E94A3
:101590003B199B01AC01C501B4010E94A4194B0188
:1015A0005C01A5019401C701B6010E94EA1A181650
:1015B0000CF476C0A501940160E070E080E89FE340
:1015C0000E943B194B015C01A701960160E070E0AD
:1015D00080E89FE30E943B199B01AC01C501B40167
:1015E0000E94A4194B015C0120E030E04FE753E476
:1015F000C501B4010E94EE1A0E940C1A6F70FE0120
:10160000E60FF11D808181113AC0A12FB0E0AE5DDF
:10161000BD4D6C9300831F5F98818981890F9A81EA
:10162000890F9B81890F9C81890F9D81890F9E81E4
:10163000890F9F81890F9885890F9985890F9A85D0
:10164000890F9B85890F9C85890F9D85890F9E85B4
:10165000890F9F85890F803160F5A5019401C7012D
:10166000B6010E94EA1A18160CF081CFA701960164
:10167000C501B4010E94A4194B015C0192CF26E67A
:1016800036E646E65FE3C501B4010E94EE1A2DEC92
:101690003CEC4CE45DE30E943C194B015C01BCCF87
:1016A000A7019601C501B4010E94A4194B015C0178
:1016B0009BCFCE01DF91CF911F910F91FF90EF90C3
:1016C000DF90CF90BF90AF909F908F900C94251C8F
:1016D000A7019601C501B4010E94A4194B015C0148
:1016E000E3CBA501940160E070E080E89FE30E94F5
:1016F0003B194B015C01A701960160E070E080E8B6
:101700009FE30E943B199B01AC01C501B4010E94FB
:10171000A4194B015C0176CEA7019601C501B40165
:101720000E94A4194B015C0150CEA7019601C5018E
:10173000B4010E94A4194B015C0118CEA7019601C7
:10174000C501B4010E94A4194B015C0169CCA70139
:101750009601C501B4010E94A4194B015C0131CC72
:10176000A7019601C501B4010E94A4194B015C01B7
:10177000F9CBA7019601C501B4010E94A4194B0140
:101780005C01C1CBA7019601C501B4010E94A41957
:101790004B015C01BCCDA7019601C501B4010E94BB
:1017A000A4194B015C0184CDA7019601C501B401C8
:1017B0000E94A4194B015C014CCDA7019601C50103
:1017C000B4010E94A4194B015C0114CDA70196013C
:1017D000C501B4010E94A4194B015C01DDCCA70135
:1017E0009601C501B4010E94A4194B015C01A5CC6E
:1017F000A7019601C501B4010E94A4194B015C0127
:101800006DCCA7019601C501B4010E94A4194B013A
:101810005C0135CCA501940160E070E080E89FE3B5
:101820000E943B194B015C01A701960160E070E04A
:1018300080E89FE30E943B199B01AC01C501B40104
:101840000E94A4194B015C01FACDA501940160E04E
:1018500070E080E89FE30E943B194B015C01A70107
:10186000960160E070E080E89FE30E943B199B01D5
:10187000AC01C501B4010E94A4194B015C01C8CAA6
:10188000A501940160E070E080E89FE30E943B19AD
:101890004B015C01A701960160E070E080E89FE3E6
:1018A0000E943B199B01AC01C501B4010E94A4191F
:1018B0004B015C01CACA2F923F924F925F926F9286
:1018C0007F928F929F92AF92BF92CF92DF92EF92D0
:1018D000FF920F931F93CF93DF93CDB7DEB7E697B9
:1018E000CDBFDEBFE0905323E98A30906324388A6D
:1018F00020905423A0914323022D0A274090552382
:10190000F0914423F42550905623E0914523E5259A
:1019100060905723709146237625709058236091EC
:10192000472367258090592350914823582590904C
:101930005A23409149234925A0905B2330914A23A3
:101940003A2510915C23B0914B23B12780915D2300
:10195000F0904C23F826FBA6B0905E2390914D2387
:101960009B259BABC0905F2390914E239C259AAB07
:10197000D090602390914F239D2599AB20916123B6
:1019800090915023922798ABF0906223F9A6909102
:101990005123F926FFA690916424A0914223AE25FD
:1019A000FA2EF926FCAAA0272E24F927FA27FDAB48
:1019B0004224E927EF27542479277E2765246927C5
:1019C00067277624592756278724492745279824AF
:1019D00039273427A924B927B327BEA71A251DA75D
:1019E000FBA4F926BF25BCA7B12FB827BBA7FBA82E
:1019F000F926FCA5FF26BB260AA909270F25CB241B
:101A000019A919271027DC24B8A9B927B1272D2532
:101A100080916524E826FCA9EF26E092422328263F
:101A20002A26209243234826EDA84E2440924423A0
:101A300058265E26509245236826762570934623C5
:101A40007826672560934723882658255093482396
:101A50009826492540934923A8263A2530934A23BE
:101A60003DA538274EA5342730934B233BA5382777
:101A70007CA5372730934C23B826FB24F0924D23C6
:101A8000C8260C2500934E23D8261D2510934F23DE
:101A9000382F32273B2730935023AFA59A279B2717
:101AA000B9A52B27282792279093512389A387FD37
:101AB000C5C390E0282F220F922797FDC5C320E0D1
:101AC000592F550F522757FDC5C320E0452F440F0E
:101AD000422747FDC5C320E0342F330F322737FD9F
:101AE000C5C320E0632F660F262727FDC5C360E02E
:101AF000722F770F6727E32DE1709E2E432C512C18
:101B0000F201F595E7957E2F7170C72E989E802D76
:101B10001124979F902D11248927F201F595E795BF
:101B2000F595E7959E2F9170D92E599F502D112430
:101B30008527F201F595E795F595E795F595E795F4
:101B4000AE2FA170EA2E4A9F402D11248427A201B6
:101B5000559547955595479555954795559547956D
:101B6000B42FB170FB2E3B9F302D11248327A2018F
:101B7000559547955595479555954795559547954D
:101B800055954795742F7170279F702C11248725C8
:101B90009201022E232F000C221F330B000C221F58
:101BA000331FE22FE170BE2E6E9F702C112487250B
:101BB000A201440F452F441F550B842E262F30E0E1
:101BC000220F331F67FD6AC390E02927249F702CE2
:101BD00011247826A2E4B3E242E553E2FD01A9A76D
:101BE000BAA7372F5DC060E0962F9827692F70E065
:101BF000660F771F97FD64C080E08627682F70E02E
:101C0000660F771F87FD64C010E01627612F70E014
:101C1000660F771F17FD64C0B0E0AB2EA6266A2DB5
:101C200070E0660F771FA7FC64C000E00627602FF6
:101C300070E0660F771F07FD64C0B0E07B2F76274A
:101C40009C9D902D1124299D202D112492278D9D3E
:101C5000602D1124892F86271E9D602D1124862733
:101C6000AF9CA02C11248A25039F902D1124082FAE
:101C700009277B9D802D11240827872F90E0880F4E
:101C8000991F77FD40C020E0922F9827989D902DB6
:101C90001124802F8927872581934E175F07A9F18B
:101CA0002081822F90E0880F991F27FF9CCF6BE146
:101CB000962F9827692F70E0660F771F97FF9CCFAC
:101CC0008BE18627682F70E0660F771F87FF9CCF18
:101CD0001BE11627612F70E0660F771F17FF9CCF5F
:101CE000BBE1AB2EA6266A2D70E0660F771FA7FE1C
:101CF0009CCF0BE10627602F70E0660F771F07FF70
:101D00009CCFBBE19BCF2BE1BFCFA9A5BAA5FE011C
:101D10003F9620E533E2BE01440C551C37FCBCC2A3
:101D200080E0982E9424792C770C49A75AA7ADAB64
:101D3000BEAB08C030823197215031096E177F0742
:101D400009F4F4C0D9011196AC90AA2099F3D901F5
:101D50001C918A2D90E0880F991FA7FC14C250E0B7
:101D6000852E8826882D90E0880F991F87FC14C245
:101D700050E0B52EB826CB2CD12CCC0CDD1CB7FCFA
:101D800014C280E0C8268C2D90E0880F991FC7FCF4
:101D900014C250E0D52ED8268D2D90E0880F991FC3
:101DA000D7FC14C250E0652E6826862D90E0880F7F
:101DB000991F67FC14C250E0452E4826842D90E000
:101DC000880F991F47FC14C250E0E12EF12C11FB43
:101DD000992790F9989D802C1124912F91709A9DAC
:101DE000102D11241825E2FA002700F90B9D002D73
:101DF00011240127E3FA992790F99C9DC02C112406
:101E00000C25E4FA992790F99D9DD02C1124D02619
:101E1000E5FA992790F9969D602C11240D2D062541
:101E2000E6FABB24B0F8B49C902D1124D02ED9260C
:101E30008701000F012F001F110B8527809F802D28
:101E400011240D2D0827D9010C93118197FCDCC1B9
:101E500000E00725A02EB12CAA0CBB1C07FDD2C1A7
:101E600080E0A8268A2D90E0880F991FA7FCC8C1A2
:101E700050E0B52EB826CB2CD12CCC0CDD1CB7FCF9
:101E8000BDC180E0C8268C2D90E0880F991FC7FC4B
:101E9000B3C150E0D52ED8268D2D90E0880F991F24
:101EA000D7FCA8C150E0E12EF12C11FB992790F945
:101EB000999D902D11241170139D102D1124192717
:101EC000E2FA992790F9909F002D11240127E3FA57
:101ED000992790F99A9DA02C11240A25E4FA9927B4
:101EE00090F99B9DB02C11240B25E5FA992790F9C8
:101EF0009C9DC02C11240C25E6FA992790F99D9DF4
:101F0000D02C1124D0268701000F012F001F110BA8
:101F10008527809F802D11240D2D08270083319760
:101F2000215031096E177F0709F00CCF49A55AA53A
:101F3000ADA9BEA9C0905223C7FCACC180E07C2CE7
:101F4000770C7826872D90E0880F991F77FCA0C129
:101F500020E0922E9826FE013196A92CB12CC501C5
:101F6000880F991F97FC92C120E0A22EA8268A2DE7
:101F700090E0880F991FA7FC87C120E0B22EB826F9
:101F80000B2D10E0C801880F991FB7FC7BC100E042
:101F90000827802F90E0880F991F07FD71C120E06E
:101FA000D22ED8268D2D90E0880F991FD7FC66C1C0
:101FB00020E0622E68261F0171C060E06827862F2E
:101FC00090E0880F991F67FDB9C030E03827832F54
:101FD00090E0880F991F37FDB9C010E01827812FB6
:101FE00090E0880F991F17FDB9C0F12CF8268F2DAE
:101FF00090E0880F991FF7FCBAC0812C8826882DA5
:1020000090E0880F991F87FCBBC0E12CE826822F47
:1020100090E021FB552450F8569E602D112421702C
:10202000279F702D1124672782FB222720F9239FE9
:10203000302D1124632783FB552450F8519E102D19
:102040001124612784FB552450F85F9C502C1124E7
:10205000F62EF52485FB222720F9289D202D11241A
:10206000F22686FB222720F92E9D202D1124F22610
:102070002E2D30E0220F331FE7FCC8C060E026277A
:10208000880F892F881F990B289F202D11248F2DB1
:1020900082278D934A175B0709F4BAC0F101219199
:1020A0001F01822F90E021702C9D202D1124BC0156
:1020B000660F672F661F770B669E702D112472279F
:1020C00081FB332730F9379D302D1124732782FB94
:1020D000332730F9399D302D1124732783FB3327A3
:1020E00030F93A9D302D1124732784FB332730F9C2
:1020F0003B9D302D1124732785FB222720F9209F3B
:10210000202D1124722786FB222720F92D9D202DBA
:10211000112472272C917227835E9F4DFC01208130
:10212000872F90E0880F991F77FF47CF6BE16827D3
:10213000862F90E0880F991F67FF47CF3BE1382734
:10214000832F90E0880F991F37FF47CF1BE1182797
:10215000812F90E0880F991F17FF47CFFBE1FF2EDB
:10216000F8268F2D90E0880F991FF7FE46CF9BE150
:10217000892E8826882D90E0880F991F87FE45CFED
:10218000EBE1EE2E43CF5BE1852E8826882D90E093
:10219000880F991F87FEECCD5BE1B52EB826CB2CBE
:1021A000D12CCC0CDD1CB7FEECCD8BE1C8268C2DE0
:1021B00090E0880F991FC7FEECCD5BE1D52ED826A5
:1021C0008D2D90E0880F991FD7FEECCD5BE1652E39
:1021D0006826862D90E0880F991F67FEECCD5BE1A5
:1021E000452E4826842D90E0880F991F47FEECCDA0
:1021F0005BE1EBCD5BE157CE5BE14CCE8BE142CEB8
:102200005BE137CE8BE12DCE0BE123CE6BE137CFF7
:10221000E696CDBFDEBFDF91CF911F910F91FF906A
:10222000EF90DF90CF90BF90AF909F908F907F9076
:102230006F905F904F903F902F9008959BE1282FD3
:10224000220F922797FF3BCC2BE1592F550F522796
:1022500057FF3BCC2BE1452F440F422747FF3BCC98
:102260002BE1342F330F322737FF3BCC2BE1632F89
:10227000660F262727FF3BCC6BE13ACC2BE199CEAA
:102280002BE18ECE0BE184CE2BE178CE2BE16DCE0F
:102290002BE15FCE8BE153CE8BE143CD9BE195CC1F
:1022A0002F923F924F925F926F927F928F929F9266
:1022B000AF92BF92CF92DF92EF92FF920F931F9354
:1022C000CF93DF93CDB7DEB72D97CDBFDEBF8F8322
:1022D0009887FB01808180934223818180934323EF
:1022E00082818093442383818093452384818093DA
:1022F0004623858180934723868180934823878165
:1023000080934923808580934A23818580934B2342
:10231000828580934C23838580934D23848580938D
:102320004E23858580934F23868580935023878510
:102330008093512342E153E267E674E489E19FE32D
:102340000E94530460913222709133228091342292
:10235000909135220E945D05309164246091522352
:10236000462F50E0ADE1B1E280E090E02D91FA011E
:10237000E827F927ED59FC4D232720830196811585
:1023800011E0910799F781E080930506809142233F
:10239000862780934223809143238627809343237B
:1023A0008091442386278093442380914523862768
:1023B00080934523809146238627809346238091EE
:1023C000472386278093472380914823862780933D
:1023D00048238091492386278093492380914A236B
:1023E000862780934A2380914B23862780934B2313
:1023F00080914C23862780934C2380914D23862700
:1024000080934D2380914E23862780934E23809185
:102410004F23862780934F238091502386278093D4
:10242000502380915123682760935123C12CD12CD4
:102430008091222290E09C012E5B3C4D79018C0D15
:102440009D1DFC01EE5EFC4DD9019C918081892788
:102450008C938091232290E08C010E5B1C4D8C0D9F
:102460009D1DFC01EE5EFC4DD8019C918081892769
:102470008C938091242290E0BC016E5B7C4D8C0D8E
:102480009D1DFC01EE5EFC4DDB019C918081892746
:102490008C938091252290E0AC014E5B5C4D8C0DBD
:1024A0009D1DFC01EE5EFC4DDA019C918081892727
:1024B0008C938091262290E09C012E5B3C4D8C0DEC
:1024C0009D1DFC01EE5EFC4DD9019C918081892708
:1024D0008C938091272290E0FC01EE5BFC4DEA8713
:1024E000FB878C0D9D1DFC01EE5EFC4DAA85BB8516
:1024F0009C91808189278C938091282290E0DC0137
:10250000AE5BBC4D8C0D9D1DFC01EE5EFC4D9C91A7
:10251000808189278C938091292290E0FC01EE5BD9
:10252000FC4DEC87FD878C0D9D1D8E5E9C4DB08013
:10253000FC0180818B25EC85FD85808380912A229A
:1025400090E0FC01EE5BFC4D5F018C0D9D1D8E5EED
:102550009C4D9080FC0180818925F50180838091CC
:102560002B2290E0FC01EE5BFC4D4F018C0D9D1D7C
:102570008E5E9C4D7080FC0180818725F4018083F4
:1025800080912C2290E0FC01EE5BFC4D3F018C0D14
:102590009D1D8E5E9C4D5080FC0180818525F30140
:1025A000808380912D2290E0FC01EE5BFC4D2F0199
:1025B0008C0D9D1D8E5E9C4D3080FC01808183259D
:1025C000F201808380912E2290E0FC01EE5BFC4DB5
:1025D0001F018C0D9D1D8E5E9C4DF081F983FC01C9
:1025E0008081F9818F27F101808380912F2290E0F3
:1025F000FC01EE5BFC4DE983FA838C0D9D1D8E5E24
:102600009C4DF081FB83FC018081FB818F27E98158
:10261000FA8180838091302290E0FC01EE5BFC4DDA
:10262000EB83FC838C0D9D1D8E5E9C4DF081FD83A4
:10263000FC018081FD818F27EB81FC81808380916B
:10264000312290E0FC01EE5BFC4DED83FE838C0DAE
:102650009D1D8E5E9C4DF081F987FC018081F9857E
:102660008F27ED81FE818083F701808190E08D5975
:102670009C4DFC018081F7018083F801808190E00E
:102680008D599C4DFC018081F8018083FB01808184
:1026900090E08D599C4DFC018081FB018083FA0103
:1026A000808190E08D599C4DFC018081FA018083EE
:1026B000F901808190E08D599C4DFC018081F901E8
:1026C0008083EA85FB85808190E08D599C4DFC01DB
:1026D0008081EA85FB8580832C9130E02D593C4D2B
:1026E000F90180818C93EC85FD85A081B0E0AD5926
:1026F000BC4D8C918083D501EC91F0E0ED59FC4DFF
:1027000080818C93D401EC91F0E0ED59FC4D8081F7
:102710008C93D301EC91F0E0ED59FC4D80818C93CA
:10272000D201EC91F0E0ED59FC4D80818C93D10108
:10273000EC91F0E0ED59FC4D80818C93A981BA8138
:10274000EC91F0E0ED59FC4D80818C93AB81BC8124
:10275000EC91F0E0ED59FC4D80818C93AD81BE8110
:10276000EC91F0E0ED59FC4D80818C9382E493E292
:10277000A2D8F09042239091452320914723309195
:102780004D2340914F2350914E23609144237091EB
:102790004623E0914C23F0914B23A0915123B0911B
:1027A0004323109149231983809148238B831091EF
:1027B0004A23009150230093432310934423809392
:1027C0004523898180934623B0934723A0934823D0
:1027D000F0934923E0934A2370934B2360934C2357
:1027E00050934D2340934E2330934F2320935023F7
:1027F0009093512380E1C80ED11C80E3C816D10408
:1028000009F016CE80915223F826F0924223082731
:10281000009343231827109344231B8118271093F8
:1028200045231981182710934623B827B0934723CF
:10283000A827A0934823F827F0934923E827E0939B
:102840004A23782770934B23682760934C2358279B
:1028500050934D23482740934E23382730934F23DE
:1028600028272093502389278093512381E0809348
:10287000060680911223AF81B8858C938091132333
:1028800011968C9311978091142312968C93129722
:102890008091152313968C93139780911623149689
:1028A0008C9314978091172315968C93159780918C
:1028B000182316968C9316978091192317968C934C
:1028C000179780911A2318968C93189780911B2341
:1028D00019968C93199780911C231A968C931A97AA
:1028E00080911D231B968C931B9780911E231C9611
:1028F0008C931C9780911F231D968C931D9780911C
:1029000020231E968C931E97809121231F968C93D3
:102910002D96CDBFDEBFDF91CF911F910F91FF901C
:10292000EF90DF90CF90BF90AF909F908F907F906F
:102930006F905F904F903F902F900895CF93DF93CB
:102940001F921F92CDB7DEB747E050E06FEF70E007
:1029500080E790E00E94AE1C109252008FB78A83ED
:10296000F8949A81809150008860809350009FBFB6
:102970008091510083FFFCCF63E080E490E075D448
:102980008FB78983F8949981809150008E7F8093CE
:1029900050009FBF0F900F90DF91CF910895CF937C
:1029A000DF931F92CDB7DEB79FB79983F8949981D3
:1029B000E82FF0E0E059FF4F609580816823608345
:1029C0009FBF0F90DF91CF9108951F920F920FB686
:1029D0000F9211240BB60F922F933F934F935F9357
:1029E0006F937F938F939F93AF93BF93EF93FF93D7
:1029F000E0916022F0916122309709F01995FF91E2
:102A0000EF91BF91AF919F918F917F916F915F9166
:102A10004F913F912F910F900BBE0F900FBE0F90D3
:102A20001F9018951F920F920FB60F9211240BB69C
:102A30000F922F933F934F935F936F937F938F9357
:102A40009F93AF93BF93EF93FF93E0915E22F0913A
:102A50005F22309709F01995FF91EF91BF91AF91E7
:102A60009F918F917F916F915F914F913F912F91A6
:102A70000F900BBE0F900FBE0F901F9018951F92D6
:102A80000F920FB60F9211240BB60F922F933F9314
:102A90004F935F936F937F938F939F93AF93BF9366
:102AA000EF93FF93E0915C22F0915D22309709F063
:102AB0001995FF91EF91BF91AF919F918F917F9168
:102AC0006F915F914F913F912F910F900BBE0F909F
:102AD0000FBE0F901F9018951F920F920FB60F9276
:102AE00011240BB60F922F933F934F935F936F93E5
:102AF0007F938F939F93AF93BF93EF93FF93E09157
:102B00005A22F0915B22309709F01995FF91EF91CD
:102B1000BF91AF919F918F917F916F915F914F91F5
:102B20003F912F910F900BBE0F900FBE0F901F90F3
:102B300018951F920F920FB60F9211240BB60F9299
:102B40002F933F934F935F936F937F938F939F93B5
:102B5000AF93BF93EF93FF93E0915822F0915922E6
:102B6000309709F01995FF91EF91BF91AF919F9127
:102B70008F917F916F915F914F913F912F910F9026
:102B80000BBE0F900FBE0F901F9018951F920F92C3
:102B90000FB60F9211240BB60F922F933F934F93C2
:102BA0005F936F937F938F939F93AF93BF93EF93B5
:102BB000FF93E0915622F0915722309709F0199532
:102BC000FF91EF91BF91AF919F918F917F916F9105
:102BD0005F914F913F912F910F900BBE0F900FBEC1
:102BE0000F901F9018951F920F920FB60F921124FD
:102BF0000BB60F922F933F934F935F936F937F93F7
:102C00008F939F93AF93BF93EF93FF93E0915422E1
:102C1000F0915522309709F01995FF91EF91BF91EE
:102C2000AF919F918F917F916F915F914F913F9164
:102C30002F910F900BBE0F900FBE0F901F90189505
:102C40001F920F920FB60F9211240BB60F922F9373
:102C50003F934F935F936F937F938F939F93AF9324
:102C6000BF93EF93FF93E0915222F091532230975C
:102C700009F01995FF91EF91BF91AF919F918F91BD
:102C80007F916F915F914F913F912F910F900BBE6C
:102C90000F900FBE0F901F9018951F920F920FB6B6
:102CA0000F9211240BB60F922F933F934F935F9384
:102CB0006F937F938F939F93AF93BF93EF93FF9304
:102CC000E0915022F0915122309709F01995FF912F
:102CD000EF91BF91AF919F918F917F916F915F9194
:102CE0004F913F912F910F900BBE0F900FBE0F9001
:102CF0001F9018951F920F920FB60F9211240BB6CA
:102D00000F922F933F934F935F936F937F938F9384
:102D10009F93AF93BF93EF93FF93E0914E22F09177
:102D20004F22309709F01995FF91EF91BF91AF9124
:102D30009F918F917F916F915F914F913F912F91D3
:102D40000F900BBE0F900FBE0F901F9018951F9203
:102D50000F920FB60F9211240BB60F922F933F9341
:102D60004F935F936F937F938F939F93AF93BF9393
:102D7000EF93FF93E0914C22F0914D22309709F0B0
:102D80001995FF91EF91BF91AF919F918F917F9195
:102D90006F915F914F913F912F910F900BBE0F90CC
:102DA0000FBE0F901F9018951F920F920FB60F92A3
:102DB00011240BB60F922F933F934F935F936F9312
:102DC0007F938F939F93AF93BF93EF93FF93E09184
:102DD0004A22F0914B22309709F01995FF91EF911B
:102DE000BF91AF919F918F917F916F915F914F9123
:102DF0003F912F910F900BBE0F900FBE0F901F9021
:102E000018951F920F920FB60F9211240BB60F92C6
:102E10002F933F934F935F936F937F938F939F93E2
:102E2000AF93BF93EF93FF93E0914822F091492233
:102E3000309709F01995FF91EF91BF91AF919F9154
:102E40008F917F916F915F914F913F912F910F9053
:102E50000BBE0F900FBE0F901F9018951F920F92F0
:102E60000FB60F9211240BB60F922F933F934F93EF
:102E70005F936F937F938F939F93AF93BF93EF93E2
:102E8000FF93E0914622F0914722309709F019957F
:102E9000FF91EF91BF91AF919F918F917F916F9132
:102EA0005F914F913F912F910F900BBE0F900FBEEE
:102EB0000F901F9018951F920F920FB60F9211242A
:102EC0000BB60F922F933F934F935F936F937F9324
:102ED0008F939F93AF93BF93EF93FF93E09144221F
:102EE000F0914522309709F01995FF91EF91BF912C
:102EF000AF919F918F917F916F915F914F913F9192
:102F00002F910F900BBE0F900FBE0F901F90189532
:102F10001F920F920FB60F9211240BB60F922F93A0
:102F20003F934F935F936F937F938F939F93AF9351
:102F3000BF93EF93FF93E0914222F09143223097A9
:102F400009F01995FF91EF91BF91AF919F918F91EA
:102F50007F916F915F914F913F912F910F900BBE99
:102F60000F900FBE0F901F9018951F920F920FB6E3
:102F70000F9211240BB60F922F933F934F935F93B1
:102F80006F937F938F939F93AF93BF93EF93FF9331
:102F9000E0914022F0914122309709F01995FF917C
:102FA000EF91BF91AF919F918F917F916F915F91C1
:102FB0004F913F912F910F900BBE0F900FBE0F902E
:102FC0001F9018951F920F920FB60F9211240BB6F7
:102FD0000F922F933F934F935F936F937F938F93B2
:102FE0009F93AF93BF93EF93FF93E0913E22F091B5
:102FF0003F22309709F01995FF91EF91BF91AF9162
:103000009F918F917F916F915F914F913F912F9100
:103010000F900BBE0F900FBE0F901F9018951F9230
:103020000F920FB60F9211240BB60F922F933F936E
:103030004F935F936F937F938F939F93AF93BF93C0
:10304000EF93FF93E0913C22F0913D22309709F0FD
:103050001995FF91EF91BF91AF919F918F917F91C2
:103060006F915F914F913F912F910F900BBE0F90F9
:103070000FBE0F901F9018951F920F920FB60F92D0
:1030800011240BB60F922F933F934F935F936F933F
:103090007F938F939F93AF93BF93EF93FF93E091B1
:1030A0003A22F0913B22309709F01995FF91EF9168
:1030B000BF91AF919F918F917F916F915F914F9150
:1030C0003F912F910F900BBE0F900FBE0F901F904E
:1030D00018951F920F920FB60F9211240BB60F92F4
:1030E0002F933F934F935F936F937F938F939F9310
:1030F000AF93BF93EF93FF93E0913822F091392281
:10310000309709F01995FF91EF91BF91AF919F9181
:103110008F917F916F915F914F913F912F910F9080
:103120000BBE0F900FBE0F901F9018951F920F921D
:103130000FB60F9211240BB60F922F933F934F931C
:103140005F936F937F938F939F93AF93BF93EF930F
:10315000FF93E0913622F0913722309709F01995CC
:10316000FF91EF91BF91AF919F918F917F916F915F
:103170005F914F913F912F910F900BBE0F900FBE1B
:103180000F901F9018951F93CF93DF931F921F925C
:10319000CDB7DEB72FB72A83F8941A81811528E0BE
:1031A000920799F0803428E0920709F438C081151D
:1031B00029E0920769F181159A4019F11FBF0F901C
:1031C0000F90DF91CF911F91089561E083E0E7DBDD
:1031D00064E083E0E4DB809167248F3F89F08FB760
:1031E0008983F8949981809167248F5F8093672405
:1031F0009FBF1FBF0F900F90DF91CF911F91089538
:10320000FFCF61E085E0CBDB64E085E0C8DBE3CFA6
:1032100061E084E0C4DB64E084E0C1DBDCCF62E039
:10322000D5CF811528E0920789F0803428E09207F5
:1032300091F0811529E0920799F081159A4009F0E3
:103240000895609340227093412208956093602214
:1032500070936122089560935422709355220895CB
:1032600060934C2270934D2208951BBEFC0128ED03
:1032700024BF608308955058BB27AA270ED070C181
:1032800061D130F066D120F031F49F3F11F41EF48B
:1032900056C10EF4E095E7FB4CC1E92F72D180F3E3
:1032A000BA17620773078407950718F071F49EF543
:1032B0008AC10EF4E0950B2EBA2FA02D0B01B90197
:1032C00090010C01CA01A0011124FF27591B99F09C
:1032D000593F50F4503E68F11A16F040A22F232FA8
:1032E000342F4427585FF3CF469537952795A795F8
:1032F000F0405395C9F77EF41F16BA0B620B730B9F
:10330000840BBAF09150A1F0FF0FBB1F661F771F0F
:10331000881FC2F70EC0BA0F621F731F841F48F4C4
:10332000879577956795B795F7959E3F08F0B3CF4A
:103330009395880F08F09927EE0F97958795089534
:10334000D4D008F481E008950CD00AC102D140F035
:10335000F9D030F021F45F3F19F0EBC0511134C1C6
:10336000EEC00FD198F39923C9F35523B1F3951B00
:10337000550BBB27AA2762177307840738F09F5F96
:103380005F4F220F331F441FAA1FA9F333D00E2E05
:103390003AF0E0E830D091505040E695001CCAF772
:1033A00029D0FE2F27D0660F771F881FBB1F261737
:1033B00037074807AB07B0E809F0BB0B802DBF010A
:1033C000FF2793585F4F2AF09E3F510568F0B1C028
:1033D000FBC05F3FECF3983EDCF3869577956795ED
:1033E000B795F7959F5FC9F7880F911D96958795BB
:1033F00097F90895E1E0660F771F881FBB1F6217DA
:1034000073078407BA0720F0621B730B840BBA0B97
:10341000EE1F88F7E0950895BCD088F09F5790F094
:10342000B92F9927B751A0F0D1F0660F771F881FE9
:10343000991F1AF0BA95C9F712C0B13081F0C3D004
:10344000B1E00895C0C0672F782F8827B85F39F0A2
:10345000B93FCCF3869577956795B395D9F73EF448
:1034600090958095709561957F4F8F4F9F4F0895F0
:10347000E89409C097FB3EF490958095709561950E
:103480007F4F8F4F9F4F9923A9F0F92F96E9BB27C4
:103490009395F695879577956795B795F111F8CF40
:1034A000FAF4BB0F11F460FF1BC06F5F7F4F8F4FAB
:1034B0009F4F16C0882311F096E911C0772321F0A1
:1034C0009EE8872F762F05C0662371F096E8862F39
:1034D00070E060E02AF09A95660F771F881FDAF790
:1034E000880F9695879597F90895990F0008550FBD
:1034F000AA0BE0E8FEEF16161706E807F907C0F07A
:1035000012161306E407F50798F0621B730B840B81
:10351000950B39F40A2661F0232B242B252B21F45B
:1035200008950A2609F4A140A6958FEF811D811DFB
:10353000089597F99F6780E870E060E008959FEF35
:1035400080EC089500240A9416161706180609063A
:10355000089500240A941216130614060506089509
:10356000092E0394000C11F4882352F0BB0F40F491
:10357000BF2B11F460FF04C06F5F7F4F8F4F9F4FD1
:10358000089557FD9058440F551F59F05F3F71F053
:103590004795880F97FB991F61F09F3F79F08795BA
:1035A0000895121613061406551FF2CF4695F1DF43
:1035B00008C0161617061806991FF1CF86957105D3
:1035C000610508940895E894BB2766277727CB0107
:1035D00097F908958ADF08F48FEF08950BD0C0CFD4
:1035E000B1DF28F0B6DF18F0952309F0A2CFA7CFFE
:1035F0001124EACFC6DFA0F3959FD1F3950F50E0D9
:10360000551F629FF001729FBB27F00DB11D639F94
:10361000AA27F00DB11DAA1F649F6627B00DA11D3A
:10362000661F829F2227B00DA11D621F739FB00DE0
:10363000A11D621F839FA00D611D221F749F332750
:10364000A00D611D231F849F600D211D822F762FE9
:103650006A2F11249F5750408AF0E1F088234AF0E6
:10366000EE0FFF1FBB1F661F771F881F9150504032
:10367000A9F79E3F510570F05CCFA6CF5F3FECF3FA
:10368000983EDCF3869577956795B795F795E7951E
:103690009F5FC1F7FE2B880F911D9695879597F92F
:1036A0000895A1E21A2EAA1BBB1BFD010DC0AA1F83
:1036B000BB1FEE1FFF1FA217B307E407F50720F09B
:1036C000A21BB30BE40BF50B661F771F881F991F16
:1036D0001A9469F760957095809590959B01AC015F
:1036E000BD01CF0108950F931F93CF93DF93869F62
:1036F0008001879F100D969F100D1124C8010DD0D9
:10370000EC01009721F0A80160E070E027D1CE0124
:10371000DF91CF911F910F9108950F931F93CF9336
:10372000DF938230910510F482E090E0E0916E2406
:10373000F0916F2420E030E0A0E0B0E0309719F184
:10374000408151810281138148175907C8F08417BD
:10375000950769F4109731F012960C93129713960F
:103760001C9327C000936E2410936F2422C0211550
:10377000310519F04217530718F49A01BD01EF0102
:10378000DF01F801DBCF21153105F9F0281B390BDA
:103790002430310580F48A819B816115710521F007
:1037A000FB018283938304C080936E2490936F24E3
:1037B000FE01329644C0FE01E20FF31F8193919304
:1037C00022503109288339833AC020916C243091EA
:1037D0006D24232B41F4209102203091032020936B
:1037E0006C2430936D24209100203091012021150C
:1037F000310541F42DB73EB740910420509105208A
:10380000241B350BE0916C24F0916D24E217F30733
:10381000A0F42E1B3F0B2817390778F0AC014E5F40
:103820005F4F2417350748F04E0F5F1F40936C24FD
:1038300050936D248193919302C0E0E0F0E0CF01BA
:10384000DF91CF911F910F910895CF93DF93009750
:1038500009F481C0FC01329712821382A0916E2478
:10386000B0916F24109781F420813181820F931FD2
:1038700020916C2430916D242817390751F5E0937D
:103880006C24F0936D2467C0ED0120E030E0CE178A
:10389000DF0740F44A815B819E0141155105F1F03B
:1038A000EA01F5CFC283D38340815181840F951FF4
:1038B000C817D90759F488819981840F951F0296FA
:1038C000808391838A819B81828393832115310533
:1038D00029F4E0936E24F0936F243DC0E901EA835C
:1038E000FB8349915991C40FD51FEC17FD0761F473
:1038F00080819181840F951F0296E90188839983C5
:10390000828193818A839B83E0E0F0E012968D911F
:103910009C911397009719F0FD01DC01F7CF8D9171
:103920009C9111979D012E5F3F4F820F931F209115
:103930006C2430916D242817390769F4309729F4E5
:1039400010926E2410926F2402C012821382A093F0
:103950006C24B0936D24DF91CF910895DC0101C0F8
:0E3960006D9341505040E0F70895F894FFCF6A
:10396E000000702420003031323334353637383988
:10397E004142434445460096000003000000018D7D
:10398E00F6CB527BD1E84F29C0B0E1E5C774B4AA9B
:10399E004B992B605F583FFDCCFF40EEB23A6E5A0A
:1039AE00F1554DA8C9C10A98153044A2C22C4592B2
:1039BE006CF3396642F235206F77BB59191DFE370D
:1039CE00672D31F569A764AB135425E909ED5C0544
:1039DE00CA4C2487BF183E22F051EC6117165EAF19
:1039EE00D349A63643F44791DF3393213B79B797FA
:1039FE008510B5BA3CB670D006A1FA8182837E7F5F
:103A0E00809673BE569B9E95D9F702B9A4DE6A3294
:103A1E006DD88A84722A149F88F9DC899AFB7C2ED1
:103A2E00C38FB8654826C8124ACEE7D2620CE01F93
:103A3E00EF11757871A58E763DBDBC86570B282F7C
:103A4E00A3DAD4E40FA92753041BFCACE67A07AE25
:103A5E0063C5DBE2EA948BC4D59DF8906BB10DD6AD
:103A6E00EBC60ECFAD084ED7E35D501EB35B2338C9
:103A7E00346846038CDD9C7DA0CD1A411C637C7797
:103A8E007BF26B6FC53001672BFED7AB76CA82C94E
:103A9E007DFA5947F0ADD4A2AF9CA472C0B7FD9386
:103AAE0026363FF7CC34A5E5F171D8311504C7237E
:103ABE00C31896059A071280E2EB27B27509832C7C
:103ACE001A1B6E5AA0523BD6B329E32F8453D10052
:103ADE00ED20FCB15B6ACBBE394A4C58CFD0EFAA71
:103AEE00FB434D338545F9027F503C9FA851A340BF
:103AFE008F929D38F5BCB6DA2110FFF3D2CD0C13A0
:103B0E00EC5F974417C4A77E3D645D197360814FC7
:103B1E00DC222A908846EEB814DE5E0BDBE0323AE9
:103B2E000A4906245CC2D3AC629195E479E7C837A2
:103B3E006D8DD54EA96C56F4EA657AAE08BA782525
:103B4E002E1CA6B4C6E8DD741F4BBD8B8A703EB525
:103B5E00664803F60E613557B986C11D9EE1F89889
:103B6E001169D98E949B1E87E9CE5528DF8CA189C9
:0E3B7E000DBFE6426841992D0FB054BB1600F2
:00000001FF
