S01C000043574D61736B416E6452616E644368616F7469632E737265638F
S1130000C5C00000E3C00000E1C00000DFC0000084
S1130010DDC00000DBC00000D9C00000D7C0000074
S1130020D5C00000D3C00000D1C00000CFC0000084
S1130030CDC00000CBC000000C94E9090C94160A52
S11300400C94430A0C94700A0C949D0A0C94CA0AEA
S11300500C94F70A0C94240B0C94510B0C947E0B07
S1130060B5C00000B3C00000B1C00000AFC00000C4
S1130070ADC00000ABC00000A9C00000A7C00000D4
S1130080A5C00000A3C00000A1C000009FC00000E4
S11300909DC000009BC0000099C0000097C00000F4
S11300A095C0000093C0000091C000008FC0000004
S11300B08DC000008BC0000089C000000C94B90CF6
S11300C00C94E60C0C94130D0C94400D0C946D0DD3
S11300D00C949A0D7BC0000079C0000077C000002A
S11300E075C0000073C0000071C000006FC0000044
S11300F06DC000006BC0000069C0000067C0000054
S113010065C0000063C0000061C000005FC0000063
S11301105DC000005BC0000059C0000057C0000073
S113012055C0000053C0000051C000004FC0000083
S11301304DC000000C94AB0B0C94D80B0C94050C24
S11301400C94320C0C945F0C0C948C0C3FC000008B
S11301503DC000003BC0000039C0000037C00000B3
S113016035C0000033C0000031C00000AC08AF0847
S1130170B208B508B808BB08BE08C108C408C70857
S1130180CA08CD08D008D308D608D90811241FBE40
S1130190CFEFCDBFDFE3DEBF00E00CBF12E2A0E093
S11301A0B0E2ECEDF0E200E00BBF02C007900D926C
S11301B0A831B107D9F724E2A8E1B2E201C01D9247
S11301C0A234B207E1F757D30C946C1019CFFC0199
S11301D0918195FFFDCF608380E090E00895FC015C
S11301E091819923ECF7808108954F925F926F92E9
S11301F07F928F929F92AF92BF92EF92FF920F9352
S11302001F93CF937C014A015B0128013901FC0152
S1130210848182FF16C0D901C801689412F8B6958A
S1130220A795979587951694D1F7B901A801032E40
S113023036E176956795579547953A95D1F7302DE0
S113024015C0D901C801689413F8B695A795979578
S113025087951694D1F7B901A801032E37E1769555
S11302606795579547953A95D1F7302D8815990597
S1130270AA05BB0508F4A6C084169506A606B7060B
S113028008F4A2C0F701848182FD04C0880C991C83
S1130290AA1CBB1CC301B201A50194010E94331026
S11302A02F3F31054105510508F490C08FEF90E0D0
S11302B0A0E0B0E0C9EF05C0281739074A075B077B
S11302C058F0880F991FAA1FBB1FCD3F0CF4816003
S11302D0CF5FC73089F74FC0CC230CF04CC0D50199
S11302E0C401880F991FAA1FBB1F880F991FAA1F3B
S11302F0BB1F880F991FAA1FBB1F481A590A6A0AF5
S11303007B0ACE3FF4F48DEF9FEF8C1B9109C7FD60
S1130310939504C0440C551C661C771C8A95D2F72F
S1130320D501C401B695A79597958795BC01CD01D4
S1130330640D751D861D971DA50194010E9433103F
S113034037C083E08C0FA501940104C0220F331F32
S1130350441F551F8A95D2F7DA01C901B695A795AE
S113036097958795BC01CD01640D751D861D971D5C
S11303700E9433101DC083E08C0FA501940104C0BA
S1130380220F331F441F551F8A95D2F7DA01C90182
S1130390B695A79597958795BC01CD01640D751DFC
S11303A0861D971D0E9433102150310941095109BE
S11303B0832F8F70C295C07FC82BF701C783268314
S11303C081E018C080E016C080E014C0D501C401EB
S11303D0880F991FAA1FBB1F880F991FAA1FBB1F35
S11303E0880F991FAA1FBB1F481A590A6A0A7B0A59
S11303F0C9EF89CFCF911F910F91FF90EF90BF90DC
S1130400AF909F908F907F906F905F904F900895E2
S11304100F931F93CF93DF93EC018B01892B09F486
S113042077C0C11584E0D80721F464E080E0BBD72D
S11304306FC0C038E1E0DE0721F462E080E0B3D7AA
S113044067C0C038F3E0DF0721F461E081E0ABD797
S11304505FC0C11582E0D80721F462E081E0A3D730
S113046057C0C115E8E0DE0721F461E083E09BD7C3
S11304704FC0C115F9E0DF0721F461E084E093D7B0
S113048047C0C1158AE0D80721F461E085E08BD725
S11304903FC0C034E8E0DE0721F462E083E083D7A4
S11304A037C0C039F8E0DF0721F464E083E07BD78C
S11304B02FC0C03C88E0D80721F468E083E073D7FC
S11304C027C0C03CE9E0DE0721F468E084E06BD794
S11304D01FC0C03AF8E0DF0721F460E183E063D78E
S11304E017C0C03A89E0D80721F460E184E05BD703
S11304F00FC0C038E4E0DE0721F460E483E053D7A2
S113050007C0C03AF4E0DF0719F460E485E04BD794
S11305108D818F738D83F80195818481892B9681D8
S1130520911198E0892B8D83F8014081518162817A
S1130530738100E115E720E730E0CE0156DE9C81AF
S113054098609C839C8190619C83DF91CF911F91E3
S11305500F910895EF92FF920F931F93CF93DF9320
S1130560062F172F0115110589F1E82FF92FE42E15
S1130570F52EA0E0B0E0BF0120812A333CF02062D8
S1130580022E000C330B2755310905C0022E000C36
S1130590330B20533109EB0169816A333CF060620B
S11305A0062E000C770B6755710905C0062E000C4A
S11305B0770B605371092295207F622BE7016993C1
S11305C07E0112963296A017B107A8F2842F952FB8
S11305D0DF91CF911F910F91FF90EF900895CF93EA
S11305E0DF9361157105E9F0EA01DC01860F971FBD
S11305F09D01ED91E295EF70F0E0E050F04EE08166
S1130600E883F9012081E22FEF70F0E0E050F04E32
S1130610208129832296A817B90751F7660F771FFF
S113062002C060E070E0FA01E60FF71F1082DF916C
S1130630CF910895CF93DF93CDB7DEB72797CDBF82
S1130640DEBF7BD6E0E4F6E088E0818384E0828349
S1130650E0E0F6E081E0818380E28183868380E4C8
S113066081838583E0E1F0E284818D8385818E83BB
S113067086818F8380819181A281B38189839A83CA
S1130680AB83BC8360E183E08ED6BE016F5F7F4F96
S113069080EA98E0BDDE80E098E00E94C70DE0E0CB
S11306A0F8E08181887F818380858E6F8087808157
S11306B0807F836080832796CDBFDEBFDF91CF919B
S11306C00895EF92FF920F931F93CF93DF93CDB7CB
S11306D0DEB72597CDBFDEBFFC019C013295229584
S11306E02F7023273F702327A7E4B3E00E945D10F7
S11306F096958795969587959695879589839F0175
S1130700369527953695279536952795A5ECB0E22D
S11307100E945D10AC01529542954F7045275F7061
S113072045279A01ADECBCEC0E945D109695879527
S113073096958795969587959C01220F331F880F70
S1130740991F880F991F880F991F820F931F481BA9
S1130750590B4A839F013695279536952795ABE724
S1130760B4E10E945D10AC01569547959A01ADEC39
S1130770BCEC0E945D109695879596958795969505
S113078087959C01220F331F880F991F880F991F8B
S1130790880F991F820F931F481B590B4B839F018E
S11307A00E945D10AC015695479556954795569510
S11307B047959A010E945D10969587959695879521
S11307C0969587959C01220F331F880F991F880FD8
S11307D0991F880F991F820F931F9A01281B390BA9
S11307E02C83CA01880F991F440F551F440F551FAE
S11307F0440F551F480F591FE41BF50BED838E0161
S11308000F5F1F4F7E0136E0E30EF11CF80161918A
S11308108F01605D80EA98E0DADC0E151F05B1F700
S11308206AE080EA98E0D3DC2596CDBFDEBFDF9195
S1130830CF911F910F91FF90EF9008951F93CF9345
S1130840DF93182FC8E0D0E8812F8D2329F061E3CE
S113085080EA98E0BCDC04C060E380EA98E0B7DC9E
S1130860D695C15089F76AE080EA98E0B0DCDF9160
S1130870CF911F910895DEDEC0E0912CE12C6894A5
S1130880FF24F3F808E612E26894CC24C6F8D12CCD
S11308900AC0C0E0912C07C0C1E0912C04C0C2E0A2
S11308A0912C01C0C0E080EA98E099DC883789F394
S11308B08B3691F3803799F3C130C1F48A3011F04B
S11308C08D3069F4692D70E0FB01E85BFD4D108209
S11308D048ED52E288E492E23DDEC0E0E4CFE92D47
S11308E0F0E0E85BFD4D80839394DDCFC230D9F610
S11308F08A3011F08D30A9F5692D70E0FB01E85BB9
S1130900FD4D108248E852E288E492E223DEF701CA
S113091010A211A20DD168E872E2CB01A3D4F701B1
S1130920A0A0B1A048E452E260E170E088E892E25D
S113093056DE62E780EA98E04ADCC8E4D2E26991D4
S113094080EA98E044DCC017D107C9F76AE080EA7E
S113095098E03DDCC501B5DEF60180816FDFC0E0C3
S1130960A2CFFFE3F91508F49DCFE92DF0E0E85B91
S1130970FD4D8083939497CF5F926F927F928F9275
S11309809F92AF92BF92CF92DF92EF92FF920F931A
S11309901F93CF93DF936B017C013A01C8EDD2E240
S11309A008EE12E2699170E080E090E00E941A0F74
S11309B020E030E04AE754E40E94860E2CE53FE84C
S11309C042E05FE30E941E0E4B015C010F2EF4E136
S11309D05F2EF02DA7019601C501B4010E94CC0F32
S11309E018164CF4A5019401C701B6010E94860EA5
S11309F06B017C011AC0A701960160E070E080E8F9
S1130A009FE30E941D0E6B017C01A501940160E02F
S1130A1070E080E89FE30E941D0E9B01AC01C701BA
S1130A20B6010E94860E6B017C015A945110D2CFFC
S1130A30C017D10709F0B6CFE3018301005D1F4F52
S1130A40A7019601C501B4010E94CC0F18164CF4FD
S1130A50A5019401C701B6010E94860E6B017C01B9
S1130A601AC0A701960160E070E080E89FE30E944D
S1130A701D0E6B017C01A501940160E070E080E82B
S1130A809FE30E941D0E9B01AC01C701B6010E94A9
S1130A90860E6B017C0120E030E040E853E4C7019E
S1130AA0B6010E94D00F0E94EE0E69930C171D0729
S1130AB039F6A7019601C501B4010E94CC0F18169E
S1130AC03CF4A5019401C701B6010E94860E18C02A
S1130AD0A701960160E070E080E89FE30E941D0E8C
S1130AE06B017C01A501940160E070E080E89FE364
S1130AF00E941D0E9B01AC01C701B6010E94860E27
S1130B00609318227093192280931A2290931B22C7
S1130B10DF91CF911F910F91FF90EF90DF90CF90D5
S1130B20BF90AF909F908F907F906F905F9008954B
S1130B3048EE52E267E674E489E19FE31DCF08952D
S1130B404F925F926F927F92AF92BF92CF92DF9259
S1130B50EF92FF920F931F93CF93DF936B017C016E
S1130B6008E113E20F2EF8E2AF2EF3E2BF2EF02DD0
S1130B70F80161918F0170E080E090E00E941C0F09
S1130B802FE632E143E85AE30E94D00F2CE53FE818
S1130B9042E05FE30E941E0E2B013C01C5E0A70169
S1130BA09601C301B2010E94CC0F18164CF4A301A4
S1130BB09201C701B6010E94860E6B017C011AC026
S1130BC0A701960160E070E080E89FE30E941D0E9B
S1130BD06B017C01A301920160E070E080E89FE377
S1130BE00E941D0E9B01AC01C701B6010E94860E36
S1130BF06B017C01C15099F60A151B0509F0B8CFA9
S1130C00A7019601C301B2010E94CC0F18164CF43F
S1130C10A3019201C701B6010E94860E6B017C01FB
S1130C2019C0A701960160E070E080E89FE30E948C
S1130C301D0E6B017C01A301920160E070E080E86D
S1130C409FE3FBD79B01AC01C701B6010E94860E4E
S1130C506B017C0120E030E04FE753E4C701B601AB
S1130C600E94D00F0E94EE0E60932823A7019601E4
S1130C70C301B2010E94CC0F18164CF4A3019201D7
S1130C80C701B6010E94860E6B017C0118C0A70142
S1130C90960160E070E080E89FE3CFD76B017C01B0
S1130CA0A301920160E070E080E89FE3C6D79B0156
S1130CB0AC01C701B6010E94860E6B017C0120E0E5
S1130CC030E04FE753E4C701B6010E94D00F0E9401
S1130CD0EE0E60933A24C9E2D3E209E313E2A701DA
S1130CE09601C301B2010E94CC0F18164CF4A30163
S1130CF09201C701B6010E94860E6B017C0117C0E8
S1130D00A701960160E070E080E89FE396D76B014D
S1130D107C01A301920160E070E080E89FE38DD73D
S1130D209B01AC01C701B601F1D76B017C0120E046
S1130D3030E04FE753E4C701B6010E94D00F0E9490
S1130D40EE0E69930C171D0751F6A7019601C30116
S1130D50B2010E94CC0F181644F4A3019201C701FA
S1130D60B601D4D76B017C0117C0A701960160E0DE
S1130D7070E080E89FE361D76B017C01A3019201DD
S1130D8060E070E080E89FE358D79B01AC01C701A5
S1130D90B601BCD76B017C0120E030E04FE753E49F
S1130DA0C701B6010E94D00F0E94EE0E60933B244F
S1130DB0A3019201C701B601A5D7882344F4A30176
S1130DC09201C701B601A2D76B017C0117C0A7012C
S1130DD0960160E070E080E89FE32FD76B017C010F
S1130DE0A301920160E070E080E89FE326D79B01B5
S1130DF0AC01C701B6018AD76B017C0120E030E069
S1130E004FE753E4C701B6010E94D00FE7D766232A
S1130E1079F260933924DF91CF911F910F91FF9064
S1130E20EF90DF90CF90BF90AF907F906F905F90E6
S1130E304F900895A7E1B1E220E030E0482F50E060
S1130E408D91FA01E227F327E75CFC4D8627808326
S1130E502F5F3F4F211581E0380791F70895FC017A
S1130E609C01205F3F4F908196279193E217F307EF
S1130E70D1F70895DB01FC01AC01405F5F4F9D9108
S1130E80208192279193E417F507C9F70895FC018F
S1130E909C01205F3F4F9081DB01A90FB11D9C9104
S1130EA09193E217F307B9F70895282F30E0220F42
S1130EB0331F882314F080E001C08BE1822708955A
S1130EC0CF92DF92EF92FF920F931F93CF93DF9312
S1130ED0CDB7DEB72897CDBFDEBFE82EF62EFE01D4
S1130EE0319688E0DF011D928A95E9F7E9828F0146
S1130EF06E01B8E0CB0ED11CF80181918F01D5DFD2
S1130F00D8018C930C151D05B9F78F2D81708E9D1A
S1130F10802D1124FE01329641E050E06F2D70E0E7
S1130F2091919B01042E02C0359527950A94E2F70E
S1130F302170299F202D112482274F5F5F4F483055
S1130F40510571F72896CDBFDEBFDF91CF911F9178
S1130F500F91FF90EF90DF90CF9008956F927F9262
S1130F608F929F92BF92CF92DF92EF92FF920F9354
S1130F701F93CF93DF93CDB7DEB7A097CDBFDEBF6E
S1130F80809129238983B0903924B8A2A9E2B3E2DD
S1130F9008E113E20F2EF8E2EF2EF3E2FF2EF02D1C
S1130FA0F8018D91908189278193EE15FF05C9F78A
S1130FB090913A24E8E1F3E2808189278193EE1548
S1130FC0FF05D1F70F2EF9E1CF2EF3E2DF2EF02D3E
S1130FD06AE273E2FE0131963F01A60128E133E2A1
S1130FE09FE0D6019D906D01D9018D919D018925C8
S1130FF0DA018D93AD01DB018D91BD01D3019C908C
S1131000892511968C939150BFEF6B1A7B0A91112D
S1131010E8CF80913B24AE014F5E5F4FA8E1B3E27D
S11310209081982791932C9192279D93E417F5072B
S1131030B9F76B2D45DF982E0F2EF8E1CF2EF3E292
S1131040DF2EF02D6B2DF60180813ADF8925D60144
S11310508D936D01AE15BF05A9F76E01BFE1CB0EEF
S1131060D11C0F2EF6E26F2EF3E27F2EF02D4E01EF
S1131070E0E18E0E911CD30111968C91811103C075
S1131080F601B0820CC0D3016C911ADFF3018083A6
S1131090D60111966C918B2D13DFF6018083F1E05C
S11310A0CF1AD10881E0681A71088C149D0419F7CD
S11310B0909028236E01A1E1CA0ED11CF601B190D3
S11310C06F016B2D892DFCDEEB2DF0E0E95EFF4D09
S11310D0D8019C9160818927F3DEF80181938F0107
S11310E0EE15FF0559F7A096CDBFDEBFDF91CF9176
S11310F01F910F91FF90EF90DF90CF90BF909F9042
S11311008F907F906F9008953F924F925F926F926D
S11311107F928F929F92AF92BF92CF92DF92EF9283
S1131120FF920F931F93CF93DF93CDB7DEB76097F2
S1131130CDBFDEBF8C0161116CC07FC02F5F8FEF0C
S1131140820F90E08031910508F046C0FC018827A9
S1131150EA54FF4F8F4FA9C7F8013081EFCFF80150
S11311607685ECCFF801F084E9CFF801E680E6CF8C
S1131170F801D780E3CFF801C180E0CFF801B7844C
S1131180DDCFF801A184DACFF8019284D7CFF8013A
S11311908480D4CFF8017280D1CFF8016484CECF9B
S11311A0F8015584CBCFF8014384C8CFF8013580CA
S11311B0C5CF39837A83FB82EC82DD82CE82A88616
S11311C099868A867B866C865D864E863F86BF823C
S11311D0F8018381888B12C0203108F4AFCF3983A2
S11311E07A83FB82EC82DD82CE82A88699868A8607
S11311F07B866C865D864E863F86BF82FE01319675
S1131200D80181918D93E417F507D9F7615021F442
S113121014C0AE014F5E5F4F3F844E845D846C8486
S11312207B848A849984A884BF80CE80DD80EC800E
S1131230FB807A81398121E082CF6096CDBFDEBF09
S1131240DF91CF911F910F91FF90EF90DF90CF909E
S1131250BF90AF909F908F907F906F905F904F90D2
S11312603F900895AF92BF92CF92DF92EF92FF9298
S11312700F931F93CF93DF93A82EB92EDB01C8E100
S1131280D3E208E213E2FE018D918193E017F107A6
S1131290D9F7609118227091192280911A229091A5
S11312A01B224EDC60913A2480912823C3DD81E027
S11312B0809305066091282388E193E2D0DD0F2E08
S11312C0F8EEEF2EF2E2FF2EF02D0F2EF8E1CF2EE6
S11312D0F3E2DF2EF02DB70188E193E2CBDD69E381
S11312E073E288E193E2D3DD88E193E237DE21E023
S11312F041E061E088E193E207DF80E1E80EF11C60
S1131300EC14FD0441F76091282388E193E2A7DD02
S113131081E080930606EA2DFB2D89918193C01705
S1131320D107D9F7DF91CF911F910F91FF90EF90E3
S1131330DF90CF90BF90AF900895CF93DF931F922B
S11313401F92CDB7DEB78FEF80937000809371004A
S1131350809372008093730080937400809375006F
S113136080937600E0E5F0E012828FB78A83F894E8
S11313709A818081886080839FBF818183FFFDCFB4
S113138063E080E490E053D48FB78983F894998123
S1131390E0E5F0E080818E7F80839FBF0F900F9007
S11313A0DF91CF910895CF93DF931F92CDB7DEB72E
S11313B09FB79983F8949981E82FF0E0E059FF4FA3
S11313C060958081682360839FBF0F90DF91CF91E8
S11313D008951F920F920FB60F9211240BB60F921D
S11313E02F933F934F935F936F937F938F939F9329
S11313F0AF93BF93EF93FF93E0914622F09147227E
S1131400309709F01995FF91EF91BF91AF919F919A
S11314108F917F916F915F914F913F912F910F9099
S11314200BBE0F900FBE0F901F9018951F920F9236
S11314300FB60F9211240BB60F922F933F934F9335
S11314405F936F937F938F939F93AF93BF93EF9328
S1131450FF93E0914422F0914522309709F01995C9
S1131460FF91EF91BF91AF919F918F917F916F9178
S11314705F914F913F912F910F900BBE0F900FBE34
S11314800F901F9018951F920F920FB60F92112470
S11314900BB60F922F933F934F935F936F937F936A
S11314A08F939F93AF93BF93EF93FF93E091422267
S11314B0F0914322309709F01995FF91EF91BF9174
S11314C0AF919F918F917F916F915F914F913F91D8
S11314D02F910F900BBE0F900FBE0F901F90189579
S11314E01F920F920FB60F9211240BB60F922F93E7
S11314F03F934F935F936F937F938F939F93AF9398
S1131500BF93EF93FF93E0914022F09141223097F3
S113151009F01995FF91EF91BF91AF919F918F9130
S11315207F916F915F914F913F912F910F900BBEDF
S11315300F900FBE0F901F9018951F920F920FB629
S11315400F9211240BB60F922F933F934F935F93F7
S11315506F937F938F939F93AF93BF93EF93FF9377
S1131560E0913E22F0913F22309709F01995FF91C6
S1131570EF91BF91AF919F918F917F916F915F9107
S11315804F913F912F910F900BBE0F900FBE0F9074
S11315901F9018951F920F920FB60F9211240BB63D
S11315A00F922F933F934F935F936F937F938F93F8
S11315B09F93AF93BF93EF93FF93E0913C22F091FD
S11315C03D22309709F01995FF91EF91BF91AF91AA
S11315D09F918F917F916F915F914F913F912F9147
S11315E00F900BBE0F900FBE0F901F9018951F9277
S11315F00F920FB60F9211240BB60F922F933F93B5
S11316004F935F936F937F938F939F93AF93BF9306
S1131610EF93FF93E0913A22F0913B22309709F047
S11316201995FF91EF91BF91AF919F918F917F9108
S11316306F915F914F913F912F910F900BBE0F903F
S11316400FBE0F901F9018951F920F920FB60F9216
S113165011240BB60F922F933F934F935F936F9385
S11316607F938F939F93AF93BF93EF93FF93E091F7
S11316703822F0913922309709F01995FF91EF91B2
S1131680BF91AF919F918F917F916F915F914F9196
S11316903F912F910F900BBE0F900FBE0F901F9094
S11316A018951F920F920FB60F9211240BB60F923A
S11316B02F933F934F935F936F937F938F939F9356
S11316C0AF93BF93EF93FF93E0913622F0913722CB
S11316D0309709F01995FF91EF91BF91AF919F91C8
S11316E08F917F916F915F914F913F912F910F90C7
S11316F00BBE0F900FBE0F901F9018951F920F9264
S11317000FB60F9211240BB60F922F933F934F9362
S11317105F936F937F938F939F93AF93BF93EF9355
S1131720FF93E0913422F0913522309709F0199516
S1131730FF91EF91BF91AF919F918F917F916F91A5
S11317405F914F913F912F910F900BBE0F900FBE61
S11317500F901F9018951F920F920FB60F9211249D
S11317600BB60F922F933F934F935F936F937F9397
S11317708F939F93AF93BF93EF93FF93E0913222A4
S1131780F0913322309709F01995FF91EF91BF91B1
S1131790AF919F918F917F916F915F914F913F9105
S11317A02F910F900BBE0F900FBE0F901F901895A6
S11317B01F920F920FB60F9211240BB60F922F9314
S11317C03F934F935F936F937F938F939F93AF93C5
S11317D0BF93EF93FF93E0913022F0913122309741
S11317E009F01995FF91EF91BF91AF919F918F915E
S11317F07F916F915F914F913F912F910F900BBE0D
S11318000F900FBE0F901F9018951F920F920FB656
S11318100F9211240BB60F922F933F934F935F9324
S11318206F937F938F939F93AF93BF93EF93FF93A4
S1131830E0912E22F0912F22309709F01995FF9113
S1131840EF91BF91AF919F918F917F916F915F9134
S11318504F913F912F910F900BBE0F900FBE0F90A1
S11318601F9018951F920F920FB60F9211240BB66A
S11318700F922F933F934F935F936F937F938F9325
S11318809F93AF93BF93EF93FF93E0912C22F0913A
S11318902D22309709F01995FF91EF91BF91AF91E7
S11318A09F918F917F916F915F914F913F912F9174
S11318B00F900BBE0F900FBE0F901F9018951F92A4
S11318C00F920FB60F9211240BB60F922F933F93E2
S11318D04F935F936F937F938F939F93AF93BF9334
S11318E0EF93FF93E0912A22F0912B22309709F095
S11318F01995FF91EF91BF91AF919F918F917F9136
S11319006F915F914F913F912F910F900BBE0F906C
S11319100FBE0F901F9018951F920F920FB60F9243
S113192011240BB60F922F933F934F935F936F93B2
S11319307F938F939F93AF93BF93EF93FF93E09124
S11319402822F0912922309709F01995FF91EF91FF
S1131950BF91AF919F918F917F916F915F914F91C3
S11319603F912F910F900BBE0F900FBE0F901F90C1
S113197018951F920F920FB60F9211240BB60F9267
S11319802F933F934F935F936F937F938F939F9383
S1131990AF93BF93EF93FF93E0912622F091272218
S11319A0309709F01995FF91EF91BF91AF919F91F5
S11319B08F917F916F915F914F913F912F910F90F4
S11319C00BBE0F900FBE0F901F9018951F920F9291
S11319D00FB60F9211240BB60F922F933F934F9390
S11319E05F936F937F938F939F93AF93BF93EF9383
S11319F0FF93E0912422F0912522309709F0199564
S1131A00FF91EF91BF91AF919F918F917F916F91D2
S1131A105F914F913F912F910F900BBE0F900FBE8E
S1131A200F901F9018951F920F920FB60F921124CA
S1131A300BB60F922F933F934F935F936F937F93C4
S1131A408F939F93AF93BF93EF93FF93E0912222E1
S1131A50F0912322309709F01995FF91EF91BF91EE
S1131A60AF919F918F917F916F915F914F913F9132
S1131A702F910F900BBE0F900FBE0F901F901895D3
S1131A801F920F920FB60F9211240BB60F922F9341
S1131A903F934F935F936F937F938F939F93AF93F2
S1131AA0BF93EF93FF93E0912022F091212230978E
S1131AB009F01995FF91EF91BF91AF919F918F918B
S1131AC07F916F915F914F913F912F910F900BBE3A
S1131AD00F900FBE0F901F9018951F920F920FB684
S1131AE00F9211240BB60F922F933F934F935F9352
S1131AF06F937F938F939F93AF93BF93EF93FF93D2
S1131B00E0911E22F0911F22309709F01995FF9160
S1131B10EF91BF91AF919F918F917F916F915F9161
S1131B204F913F912F910F900BBE0F900FBE0F90CE
S1131B301F9018951F920F920FB60F9211240BB697
S1131B400F922F933F934F935F936F937F938F9352
S1131B509F93AF93BF93EF93FF93E0911C22F09177
S1131B601D22309709F01995FF91EF91BF91AF9124
S1131B709F918F917F916F915F914F913F912F91A1
S1131B800F900BBE0F900FBE0F901F9018951F93D0
S1131B90CF93DF931F921F92CDB7DEB72FB72A835F
S1131BA0F8941A81282F392F211588E0380739F441
S1131BB061E083E0F8DB64E083E0F5DB22C02034FD
S1131BC088E0380739F462E083E0EDDB64E083E029
S1131BD0EADB17C0211589E0380739F461E084E0B5
S1131BE0E2DB64E084E0DFDB0CC021153A4039F429
S1131BF061E085E0D8DB64E085E0D5DB02C01FBF8F
S1131C0010C080913D248F3F09F4FFCF8FB78983A3
S1131C10F8949981ECE3F4E281818F5F81839FBF23
S1131C201FBF0F900F90DF91CF911F9108951BBE9E
S1131C30FC0128ED24BF608308955058BB27AA27D0
S1131C400ED070C161D130F066D120F031F49F3FE5
S1131C5011F41EF456C10EF4E095E7FB4CC1E92FD4
S1131C6072D180F3BA17620773078407950718F0D7
S1131C7071F49EF58AC10EF4E0950B2EBA2FA02DB7
S1131C800B01B90190010C01CA01A0011124FF2725
S1131C90591B99F0593F50F4503E68F11A16F04020
S1131CA0A22F232F342F4427585FF3CF469537951F
S1131CB02795A795F0405395C9F77EF41F16BA0BE4
S1131CC0620B730B840BBAF09150A1F0FF0FBB1F92
S1131CD0661F771F881FC2F70EC0BA0F621F731FDB
S1131CE0841F48F4879577956795B795F7959E3F38
S1131CF008F0B3CF9395880F08F09927EE0F9795C6
S1131D0087950895D4D008F481E008950CD00AC1D1
S1131D1002D140F0F9D030F021F45F3F19F0EBC06C
S1131D20511134C1EEC00FD198F39923C9F355234F
S1131D30B1F3951B550BBB27AA27621773078407BA
S1131D4038F09F5F5F4F220F331F441FAA1FA9F370
S1131D5033D00E2E3AF0E0E830D091505040E69562
S1131D60001CCAF729D0FE2F27D0660F771F881FC3
S1131D70BB1F261737074807AB07B0E809F0BB0BB2
S1131D80802DBF01FF2793585F4F2AF09E3F5105D6
S1131D9068F0B1C0FBC05F3FECF3983EDCF386957E
S1131DA077956795B795F7959F5FC9F7880F911D4C
S1131DB09695879597F90895E1E0660F771F881F38
S1131DC0BB1F621773078407BA0720F0621B730BEB
S1131DD0840BBA0BEE1F88F7E0950895BCD088F009
S1131DE09F5790F0B92F9927B751A0F0D1F0660F03
S1131DF0771F881F991F1AF0BA95C9F712C0B1301E
S1131E0081F0C3D0B1E00895C0C0672F782F882730
S1131E10B85F39F0B93FCCF3869577956795B3955C
S1131E20D9F73EF490958095709561957F4F8F4FCB
S1131E309F4F0895E89409C097FB3EF490958095D0
S1131E40709561957F4F8F4F9F4F9923A9F0F92F7C
S1131E5096E9BB279395F695879577956795B795FA
S1131E60F111F8CFFAF4BB0F11F460FF1BC06F5FE0
S1131E707F4F8F4F9F4F16C0882311F096E911C0F2
S1131E80772321F09EE8872F762F05C0662371F013
S1131E9096E8862F70E060E02AF09A95660F771F27
S1131EA0881FDAF7880F9695879597F90895990F03
S1131EB00008550FAA0BE0E8FEEF16161706E80710
S1131EC0F907C0F012161306E407F50798F0621B31
S1131ED0730B840B950B39F40A2661F0232B242B06
S1131EE0252B21F408950A2609F4A140A6958FEF25
S1131EF0811D811D089597F99F6780E870E060E077
S1131F0008959FEF80EC089500240A94161617068E
S1131F1018060906089500240A94121613061406D6
S1131F2005060895092E0394000C11F4882352F039
S1131F30BB0F40F4BF2B11F460FF04C06F5F7F4FF1
S1131F408F4F9F4F089557FD9058440F551F59F0D8
S1131F505F3F71F04795880F97FB991F61F09F3F92
S1131F6079F087950895121613061406551FF2CFBB
S1131F704695F1DF08C0161617061806991FF1CF0B
S1131F8086957105610508940895E894BB27662732
S1131F907727CB0197F908958ADF08F48FEF089526
S1131FA00BD0C0CFB1DF28F0B6DF18F0952309F0CD
S1131FB0A2CFA7CF1124EACFC6DFA0F3959FD1F318
S1131FC0950F50E0551F629FF001729FBB27F00DE3
S1131FD0B11D639FAA27F00DB11DAA1F649F662738
S1131FE0B00DA11D661F829F2227B00DA11D621F87
S1131FF0739FB00DA11D621F839FA00D611D221F41
S1132000749F3327A00D611D231F849F600D211D24
S1132010822F762F6A2F11249F5750408AF0E1F0C7
S113202088234AF0EE0FFF1FBB1F661F771F881F10
S113203091505040A9F79E3F510570F05CCFA6CF58
S11320405F3FECF3983EDCF3869577956795B795FB
S1132050F795E7959F5FC1F7FE2B880F911D969525
S1132060879597F90895A1E21A2EAA1BBB1BFD01BF
S11320700DC0AA1FBB1FEE1FFF1FA217B307E40763
S1132080F50720F0A21BB30BE40BF50B661F771FBB
S1132090881F991F1A9469F760957095809590959B
S11320A09B01AC01BD01CF010895EE0FFF1F881FF6
S11320B08BBF0790F691E02D1994A29FB001B39FB6
S11320C0C001A39F700D811D1124911DB29F700D3D
S10F20D0811D1124911D0895F894FFCF88
S11320DC303132333435363738394142434445464E
S11320EC0096000003000000018DF6CB527BD1E872
S11320FC4F29C0B0E1E5C774B4AA4B992B605F5863
S113210C3FFDCCFF40EEB23A6E5AF1554DA8C9C111
S113211C0A98153044A2C22C45926CF3396642F2EB
S113212C35206F77BB59191DFE37672D31F569A71B
S113213C64AB135425E909ED5C05CA4C2487BF181C
S113214C3E22F051EC6117165EAFD349A63643F428
S113215C4791DF3393213B79B7978510B5BA3CB6D9
S113216C70D006A1FA8182837E7F809673BE569BC3
S113217C9E95D9F702B9A4DE6A326DD88A84722A84
S113218C149F88F9DC899AFB7C2EC38FB86548268A
S113219CC8124ACEE7D2620CE01FEF11757871A514
S11321AC8E763DBDBC86570B282FA3DAD4E40FA939
S11321BC2753041BFCACE67A07AE63C5DBE2EA9456
S11321CC8BC4D59DF8906BB10DD6EBC60ECFAD0874
S11321DC4ED7E35D501EB35B2338346846038CDD65
S11321EC9C7DA0CD1A411C637C777BF26B6FC53050
S11321FC01672BFED7AB76CA82C97DFA5947F0AD7D
S113220CD4A2AF9CA472C0B7FD9326363FF7CC344E
S113221CA5E5F171D8311504C723C31896059A079F
S113222C1280E2EB27B27509832C1A1B6E5AA0524A
S113223C3BD6B329E32F8453D100ED20FCB15B6A68
S113224CCBBE394A4C58CFD0EFAAFB434D3385450E
S113225CF9027F503C9FA851A3408F929D38F5BC46
S113226CB6DA2110FFF3D2CD0C13EC5F974417C4EC
S113227CA77E3D645D197360814FDC222A908846E9
S113228CEEB814DE5E0BDBE0323A0A4906245CC27B
S113229CD3AC629195E479E7C8376D8DD54EA96CB2
S11322AC56F4EA657AAE08BA78252E1CA6B4C6E8AC
S11322BCDD741F4BBD8B8A703EB5664803F60E6108
S11322CC3557B986C11D9EE1F8981169D98E949B36
S11322DC1E87E9CE5528DF8CA1890DBFE6426841E3
S10B22EC992D0FB054BB16003C
S9030000FC
