:10000000B5C00000D4C00000D2C00000D0C00000C5
:10001000CEC00000CCC00000CAC00000C8C00000B4
:10002000C6C00000C4C00000C2C00000C0C00000C4
:10003000BEC00000BCC000000C9481130C94BE1321
:100040000C94FB130C9438140C9475140C94B21487
:100050000C94EF140C942C150C9469150C94A615A3
:10006000A6C00000A4C00000A2C00000A0C0000004
:100070009EC000009CC000009AC0000098C0000014
:1000800096C0000094C0000092C0000090C0000024
:100090008EC000008CC000008AC0000088C0000034
:1000A00086C0000084C0000082C0000080C0000044
:1000B0007EC000007CC000007AC000000C94511784
:1000C0000C948E170C94CB170C9408180C944518AC
:1000D0000C9482186CC000006AC0000068C0000068
:1000E00066C0000064C0000062C0000060C0000084
:1000F0005EC000005CC000005AC0000058C0000094
:1001000056C0000054C0000052C0000050C00000A3
:100110004EC000004CC000004AC0000048C00000B3
:1001200046C0000044C0000042C0000040C00000C3
:100130003EC000000C94E3150C9420160C945D1640
:100140000C949A160C94D7160C94141730C0000017
:100150002EC000002CC000002AC0000028C00000F3
:1001600026C0000024C0000022C0000011241FBED1
:10017000CFEFCDBFDFE3DEBF00E00CBF11E2A0E0B8
:10018000B0E2ECE8F5E300E00BBF02C007900D928F
:10019000A432B107D9F722E2A4E2B1E201C01D9274
:1001A000A431B207E1F70E9428100C94C41A28CF9A
:1001B000CF93DF93CDB7DEB72597CDBFDEBF8C835E
:1001C0006D8319821A821B821A821EC08D81882F2C
:1001D00090E081709927892B21F099818C81892762
:1001E00089838C8180788B838C81880F8C838B8131
:1001F000882321F09C818BE189278C838D818695D2
:100200008D838A818F5F8A838A818830F8F2898121
:100210002596CDBFDEBFDF91CF910895CF93DF93B9
:1002200000D000D0CDB7DEB789839A836B837C83FF
:100230004D835E8389819A81FC0120818B819C8121
:10024000FC01808128278D819E81FC0120838D8186
:100250009E81019629813A812F5F3F4FF9014081AC
:100260002B813C812F5F3F4FF90120812427FC0126
:1002700020838D819E81029629813A812E5F3F4F96
:10028000F90140812B813C812E5F3F4FF901208194
:100290002427FC0120838D819E81039629813A8148
:1002A0002D5F3F4FF90140812B813C812D5F3F4FF6
:1002B000F90120812427FC01208300002696CDBF70
:1002C000DEBFDF91CF910895FF920F931F93CF93DD
:1002D000DF9300D000D0CDB7DEB789839A836B83DC
:1002E0007C834D835E838B819C81FC01208189818D
:1002F0009A81FC018081622F5BDF182F8B819C81AA
:100300000196FC01208189819A810396FC018081FC
:10031000622F4EDF18278B819C810296FC01208181
:1003200089819A810296FC018081622F41DF182722
:100330008B819C810396FC01208189819A810196A1
:10034000FC018081622F34DF212F28278D819E813F
:10035000FC0120838D819E818C010F5F1F4F8B815B
:100360009C81FC01208189819A810196FC01808118
:10037000622F1EDFF82E8B819C810196FC0120816B
:1003800089819A81FC018081622F12DFF8268B819E
:100390009C810296FC01208189819A810396FC014F
:1003A0008081622F05DFF8268B819C810396FC01FA
:1003B000208189819A810296FC018081622FF8DE7A
:1003C0008F25F80180838D819E818C010E5F1F4FE8
:1003D0008B819C81FC01208189819A810296FC019C
:1003E0008081622FE5DEF82E8B819C810196FC01D5
:1003F000208189819A810196FC018081622FD8DE5B
:10040000F8268B819C810296FC01208189819A814A
:10041000FC018081622FCCDEF8268B819C810396C3
:10042000FC01208189819A810396FC018081622FE1
:10043000BFDE8F25F80180838D819E818C010D5F49
:100440001F4F8B819C81FC01208189819A810396B9
:10045000FC018081622FACDEF82E8B819C8101969D
:10046000FC01208189819A810296FC018081622FA2
:100470009FDEF8268B819C810296FC012081898178
:100480009A810196FC018081622F92DEF8268B8191
:100490009C810396FC01208189819A81FC018081E5
:1004A000622F86DE8F25F801808300002696CDBF5F
:1004B000DEBFDF91CF911F910F91FF900895CF93F1
:1004C000DF931F92CDB7DEB789838981813021F414
:1004D00081E0809308211AC089818230B8F082E0DF
:1004E0008093082189818150898309C080910821E6
:1004F00062E05EDE80930821898181508983898151
:10050000882F90E001971816190684F388E091E28D
:100510000F90DF91CF910895CF93DF9300D000D05B
:10052000CDB7DEB78A839B836C837D834E8319822C
:1005300018C18981882F90E02A813B81820F931F07
:100540002981222F30E04A815B81240F351FD90198
:10055000EC912091062030910720B901660F771F9A
:10056000660F771F2E81222F30E0629FA001639FCC
:10057000500D729F500D11242981222F30E0220F3F
:10058000331F220F331F240F351FA9012C813D81FA
:10059000240F351FD9012C912E27FC01208389813E
:1005A000282F30E08091062090910720820F931F22
:1005B0009C018A819B81820F931F2981422F50E0E9
:1005C0002091062030910720240F351FA9012A8190
:1005D0003B81240F351FD901EC91209106203091E9
:1005E0000720B901660F771F660F771F2E81222F14
:1005F00030E0629FA001639F500D729F500D112447
:100600002981222F30E0220F331F220F331F240FA6
:10061000351F2F5F3F4F4C815D81240F351FD9015E
:100620002C912E27FC012083809106209091072099
:100630009C01220F331F8981882F90E0820F931F26
:100640009C018A819B81820F931F2091062030910B
:100650000720A901440F551F2981222F30E0240FC4
:10066000351FA9012A813B81240F351FD901EC9147
:100670002091062030910720B901660F771F660F81
:10068000771F2E81222F30E0629FA001639F500DC3
:10069000729F500D11242981222F30E0220F331F29
:1006A000220F331F240F351F2E5F3F4F4C815D817A
:1006B000240F351FD9012C912E27FC012083209176
:1006C000062030910720C901880F991F280F391F74
:1006D0008981882F90E0820F931F9C018A819B81E2
:1006E000AC01420F531F2091062030910720C90111
:1006F000880F991F280F391F8981882F90E0820F5A
:10070000931F9C018A819B81820F931FDC01EC91D6
:100710008091062090910720BC01660F771F660F1D
:10072000771F8E81882F90E0689F9001699F300D20
:10073000789F300D11248981882F90E0880F991FB0
:10074000880F991F820F931F03962C813D81820F82
:10075000931FDC018C918E27FA01808389818F5F42
:1007600089838981282F30E080910620909107208D
:10077000281739070CF4DDCE00002696CDBFDEBF6A
:10078000DF91CF910895CF93DF93CDB7DEB7609718
:10079000CDBFDEBF8F87988B82E08B8381E08C8317
:1007A00081E08D8383E08E831A8265C0198227C021
:1007B0008981882F90E02981622F70E020910620A6
:1007C00030910720629FA001639F500D729F500DD2
:1007D00011242A81222F30E0240F351FA9012F85F3
:1007E0003889240F351FF90140819E01295F3F4F51
:1007F000820F931FFC01408389818F5F89838981E8
:100800008430B0F2AE01455F5F4F9E01295F3F4FDC
:10081000CE010396B90158DD198227C08981482F7E
:1008200050E08091062090910720489F9001499FB9
:10083000300D589F300D11248A81882F90E0820F4F
:10084000931F9C018F859889820F931F2981222FE6
:1008500030E0AE01455F5F4F240F351FF901208165
:10086000FC01208389818F5F898389818430B0F284
:100870008A818F5F8A838A81282F30E080910620C9
:1008800090910720281739070CF490CF000060964C
:10089000CDBFDEBFDF91CF910895CF93DF9300D01E
:1008A00000D0CDB7DEB78D839E8381E0898382C07F
:1008B0001B8278C08981282F30E08091062090919A
:1008C0000720289FA001299F500D389F500D11240B
:1008D0009A018D819E81820F931FFC0180818C8300
:1008E00081E08A8337C08981482F50E080910620BB
:1008F00090910720489F9001499F300D589F300DDF
:1009000011248A81882F90E0820F931F01972D81F7
:100910003E81820F931F2981622F70E02091062073
:1009200030910720629FA001639F500D729F500D70
:1009300011242A81222F30E0240F351FA9012D8197
:100940003E81240F351FF9012081FC0120838A811B
:100950008F5F8A838A81282F30E0809106209091D2
:100960000720281739070CF4BECF8981882F90E023
:100970009C012F5F3F4F8091062090910720289F78
:10098000A001299F500D389F500D1124CA010197D5
:100990002D813E81820F931F2C81FC0120838B814E
:1009A0008F5F8B839B818981981708F483CF89811E
:1009B0008F5F89838981843008F47ACF000026967E
:1009C000CDBFDEBFDF91CF910895CF93DF9300D0ED
:1009D00000D0CDB7DEB78D839E83198279C01A828D
:1009E00069C08981482F50E08091062090910720AE
:1009F000489F9001499F300D589F300D11248A81E6
:100A0000882F90E0820F931F9C018D819E81820F21
:100A1000931FFC01808182958F708B838981482F81
:100A200050E08091062090910720489F9001499FB7
:100A3000300D589F300D11248A81882F90E0820F4D
:100A4000931F9C018D819E81820F931FFC018081E9
:100A50008F708C838981482F50E08091062090917F
:100A60000720489F9001499F300D589F300D112459
:100A70008A81882F90E0820F931F9C018D819E8137
:100A8000820F931F2B81222F30E0A90142955295AE
:100A9000507F5427407F54272C81222F30E0240F91
:100AA000351F285F3F4DF9012081FC0120838A8199
:100AB0008F5F8A838A81282F30E080910620909171
:100AC0000720281739070CF48CCF89818F5F898321
:100AD0008981843008F483CF00002696CDBFDEBF25
:100AE000DF91CF910895CF93DF9300D0CDB7DEB7DC
:100AF0008A839B83198233C08981882F90E02A8161
:100B00003B81820F931F2981222F30E04A815B8134
:100B1000240F351FF901208122952F70222F30E0FC
:100B2000A90142955295507F5427407F542729812F
:100B3000222F30E06A817B81260F371FF901208147
:100B4000222F30E02F703327240F351F285F3F4DB1
:100B5000F9012081FC01208389818F5F898389814C
:100B6000843050F200002396CDBFDEBFDF91CF91DD
:100B70000895CF93DF9300D01F92CDB7DEB78B835C
:100B80009C838B819C81FC0180818A83198217C0A0
:100B90008981882F90E02B813C81820F931F2981CE
:100BA000222F30E02F5F3F4F4B815C81240F351F98
:100BB000F9012081FC01208389818F5F89838981EC
:100BC000833030F38B819C8103962A81FC01208342
:100BD00000002496CDBFDEBFDF91CF910895CF9363
:100BE000DF93CDB7DEB72A97CDBFDEBF8F8398875F
:100BF00069877A8780915821909159210196282FF1
:100C00008091062090910720289F802D11248A83AF
:100C1000198276C08981882F90E0880F991F880FEC
:100C2000991F9C0189859A85820F931F2981222F04
:100C300030E0220F331F220F331FA9012F81388587
:100C4000240F351FF9012081FC0120838981882F21
:100C500090E0880F991F880F991F019629853A8582
:100C6000820F931F2981222F30E0220F331F220F82
:100C7000331F2F5F3F4F4F815885240F351FF901D8
:100C80002081FC0120838981882F90E0880F991FA3
:100C9000880F991F029629853A85820F931F298113
:100CA000222F30E0220F331F220F331F2E5F3F4FC2
:100CB0004F815885240F351FF9012081FC012083C5
:100CC0008981882F90E0880F991F880F991F0396BC
:100CD00029853A85820F931F2981222F30E0220F28
:100CE000331F220F331F2D5F3F4F4F815885240F35
:100CF000351FF9012081FC01208389818F5F898361
:100D00008981282F30E08091562190915721281712
:100D100039070CF47FCF8091562190915721898318
:100D20001AC18981882F90E00197880F991F880F39
:100D3000991F9C0189859A85820F931FFC018081F0
:100D40008B838981882F90E00197880F991F880FE6
:100D5000991F019629853A85820F931FFC01808196
:100D60008C838981882F90E00197880F991F880FC5
:100D7000991F029629853A85820F931FFC01808175
:100D80008D838981882F90E00197880F991F880FA4
:100D9000991F039629853A85820F931FFC01808154
:100DA0008E838981882F90E02091562130915721A0
:100DB000B9010E944B19892BD9F4CE010396D9DED3
:100DC000CE01039690DE8981882F90E020915621F4
:100DD00030915721B9010E944B19CB0170DBBC0146
:100DE0009E012D5F3F4FCE010396A90117DA15C072
:100DF000809156219091572107977CF08981882F07
:100E000090E02091562130915721B9010E944B1951
:100E1000049719F4CE01039666DE8981882F90E04D
:100E2000880F991F880F991F9C0189859A85820FC9
:100E3000931F2981422F50E0209156213091572154
:100E4000BA01621B730B9B01220F331F220F331F4A
:100E5000A90129853A85240F351FF90130812B819D
:100E60002327FC0120838981882F90E0880F991F18
:100E7000880F991F019629853A85820F931F298132
:100E8000422F50E02091562130915721BA01621B28
:100E9000730B9B01220F331F220F331F2F5F3F4F16
:100EA00049855A85240F351FF90130812C8123276C
:100EB000FC0120838981882F90E0880F991F880F7B
:100EC000991F029629853A85820F931F2981422F07
:100ED00050E02091562130915721BA01621B730BCB
:100EE0009B01220F331F220F331F2E5F3F4F498577
:100EF0005A85240F351FF90130812D812327FC01EC
:100F000020838981882F90E0880F991F880F991F6F
:100F1000039629853A85820F931F2981422F50E03D
:100F20002091562130915721BA01621B730B9B010E
:100F3000220F331F220F331F2D5F3F4F49855A85E4
:100F4000240F351FF90130812E812327FC012083D6
:100F500089818F5F898399818A81981708F4E1CE0E
:100F600000002A96CDBFDEBFDF91CF910895CF93C9
:100F7000DF931F921F92CDB7DEB789839A83898151
:100F80009A818831910579F08097D1F084E090E0E2
:100F900080935621909357218AE090E080935821C6
:100FA000909359211AC086E090E080935621909347
:100FB00057218CE090E080935821909359210DC0E7
:100FC00088E090E080935621909357218EE090E046
:100FD000809358219093592100008091582190913D
:100FE0005921AC014F5F5F4F2091062030910720BF
:100FF000429FC001439F900D529F900D1124880F76
:10100000991F880F991F0E94A3190F900F90DF91CD
:10101000CF910895EF92FF920F931F93CF93DF9399
:10102000CDB7DEB72D97CDBFDEBF888799876A879A
:101030007B874C875D870DB71EB78DB79EB77C0148
:101040008091062090910720880F991F880F991F83
:101050009C01215031092C833D832DB73EB7281BBD
:10106000390B2DBF3EBF8DB79EB701968E839F83F0
:101070001A823EC01B822FC08A81482F50E0809187
:10108000062090910720489F9001499F300D589F5E
:10109000300D11248B81882F90E0820F931F2A81BD
:1010A000422F50E02B81222F30E0220F331F220FDE
:1010B000331F240F351FA90128853985240F351FBB
:1010C000F90140812E813F81820F931FFC014083F3
:1010D0008B818F5F8B838B81282F30E0809106205E
:1010E00090910720281739073CF28A818F5F8A8305
:1010F0008A81843008F4BECF8E819F812C853D8506
:1011000040E0B90109DA81E0898313C08E819F81B3
:101110005CDC8E819F81C1DB8E819F8134DB8E817F
:101120009F812C853D854981B901F6D989818F5FE1
:1011300089838981282F30E080915821909159210D
:10114000281739071CF38E819F813FDC8E819F8198
:10115000A4DB8091582190915921482F8E819F8145
:101160002C853D85B901D8D91A823EC01B822FC07B
:101170008A81282F30E08B81882F90E0880F991F7B
:10118000880F991F820F931F9C018A859B85820F70
:10119000931F2A81622F70E0209106203091072052
:1011A000629FA001639F500D729F500D11242B81EF
:1011B000222F30E0240F351F4E815F81240F351F11
:1011C000F9012081FC0120838B818F5F8B838B81D0
:1011D000282F30E0809106209091072028173907AA
:1011E0003CF28A818F5F8A838A81843008F4BECF83
:1011F000EDBEFEBE00000DBF1EBF2D96CDBFDEBFF3
:10120000DF91CF911F910F91FF90EF900895CF93B1
:10121000DF931F921F92CDB7DEB789839A838981AE
:101220009A81FC018481282F206189819A81FC01A7
:10123000248300000F900F90DF91CF910895CF93FA
:10124000DF93CDB7DEB72597CDBFDEBF89839A8305
:101250006B834C832D839B818C81892B982F8D816F
:10126000882311F088E001C080E0892B282F898134
:101270009A81FC01258300002596CDBFDEBFDF915A
:10128000CF910895CF93DF931F921F92CDB7DEB712
:1012900089839A8389819A81FC018481282F28601F
:1012A00089819A81FC01248300000F900F90DF91C7
:1012B000CF910895CF93DF9300D0CDB7DEB7898368
:1012C0009A836B8389819A81FC018581982F9F7312
:1012D0008B81892B282F89819A81FC01258300002D
:1012E0002396CDBFDEBFDF91CF910895CF93DF93DB
:1012F0001F921F92CDB7DEB789839A8389819A8125
:10130000FC018181882F90E08072992721E0892B50
:1013100009F420E0822F0F900F90DF91CF91089574
:10132000CF93DF931F921F92CDB7DEB789839A8345
:1013300089819A81FC018181882F90E080789927AA
:1013400021E0892B09F420E0822F0F900F90DF918C
:10135000CF910895CF93DF93CDB7DEB780E195E7C6
:10136000A0E7B0E0BC01CD01DF91CF910895CF930C
:10137000DF931F92CDB7DEB71982ECDFDC01CB0122
:101380002981222F30E004C0B695A79597958795BF
:101390002A95D2F7BC01CD010F90DF91CF9108952E
:1013A000CF93DF93CDB7DEB7E2DFDC01CB01BC0129
:1013B000CD01DF91CF910895CF93DF93CDB7DEB705
:1013C000EFDFDC01CB01BC01CD01DF91CF910895AE
:1013D000CF93DF931F921F92CDB7DEB789839A8395
:1013E00089819A81892B09F495C089819A81811517
:1013F000944029F464E080E00E9415138BC0898139
:101400009A818038914029F462E080E00E941513AF
:1014100081C089819A818038934029F461E081E01C
:101420000E94151377C089819A818115924029F411
:1014300062E081E00E9415136DC089819A81811557
:10144000984029F461E083E00E94151363C089810C
:101450009A818115994029F461E084E00E94151376
:1014600059C089819A8181159A4029F461E085E00B
:101470000E9415134FC089819A818034984029F4C5
:1014800062E083E00E94151345C089819A8180390A
:10149000984029F464E083E00E9415133BC08981E1
:1014A0009A81803C984029F468E083E00E941513FB
:1014B00031C089819A81803C994029F468E084E0B8
:1014C0000E94151327C089819A81803A984029F497
:1014D00060E183E00E9415131DC089819A81803AE2
:1014E000994029F460E184E00E94151313C08981BA
:1014F0009A818038944029F460E483E00E941513B7
:1015000009C089819A81803A944021F460E485E0A1
:101510000E94151300000F900F90DF91CF91089556
:101520000F931F93CF93DF93CDB7DEB72597CDBF32
:10153000DEBF8A839B836C837D838A819B8148DFA6
:101540008A819B8160E0B6DE8C819D81FC012681D1
:101550008C819D81FC0145818C819D81FC013481C0
:101560008A819B81632F6BDE27DF9B01AC018C811D
:101570009D81FC0180819181A281B381EA81FB81FF
:1015800089019A01AC01BD01CF0148D089838A81CC
:101590009B8178DE8A819B813ADE89812596CDBF49
:1015A000DEBFDF91CF911F910F910895CF93DF930D
:1015B00000D0CDB7DEB789839A836B830000898121
:1015C0009A8194DE982F81E089278823C1F7898149
:1015D0009A812B81FC01208380E090E02396CDBF8F
:1015E000DEBFDF91CF910895CF93DF931F921F92BB
:1015F000CDB7DEB789839A83000089819A8190DE16
:10160000982F81E089278823C1F789819A81FC017D
:1016100080810F900F90DF91CF910895EF92FF920C
:101620000F931F93CF93DF93CDB7DEB76F97CDBFE7
:10163000DEBF8E8B9F8B488F598F6A8F7B8F0C8F6D
:101640001D8F2E8F3F8F8C8D9D8DAE8DBF8D68949D
:1016500012F8B695A795979587951694D1F78E872A
:101660009F87A88BB98B8C8D9D8DAE8DBF8D072EDE
:1016700076E1B695A795979587957A95D1F7702DD0
:101680008A879B87AC87BD878E899F89FC0184816F
:10169000882F90E084709927892BC1F48E859F85CF
:1016A000A889B989B695A795979587958E879F87BD
:1016B000A88BB98B8A859B85AC85BD85B695A7958A
:1016C000979587958A879B87AC87BD87288D398DAD
:1016D0004A8D5B8D8E859F85A889B989821793076E
:1016E000A407B50768F0288D398D4A8D5B8D8A85F2
:1016F0009B85AC85BD85281739074A075B0710F421
:1017000080E040C18E899F89FC018481882F90E010
:1017100084709927892B61F4888D998DAA8DBB8D52
:10172000880F991FAA1FBB1F888F998FAA8FBB8F05
:101730008FEF90E0A0E0B0E08E839F83A887B98709
:101740008C8D9D8DAE8DBF8D288D398D4A8D5B8D95
:10175000BC01CD010E945E19DA01C9018A8B9B8B05
:10176000AC8BBD8B89EF898328C02A893B894C8942
:101770005D898E819F81A885B985281739074A0719
:101780005B07F8F08E819F81A885B985880F991F26
:10179000AA1FBB1F8E839F83A887B98789818D3F2E
:1017A0004CF48E819F81A885B98581608E839F834B
:1017B000A887B98789818F5F898389818730ACF257
:1017C00001C00000898188230CF08AC0888D998D22
:1017D000AA8DBB8D880F991FAA1FBB1F880F991F49
:1017E000AA1FBB1F880F991FAA1FBB1F9C01AD0119
:1017F0008C8D9D8DAE8DBF8D821B930BA40BB50B75
:101800008C8F9D8FAE8FBF8F89818E3F94F589819C
:10181000082E000C990B2DEF3FEF281B390B8C8DF8
:101820009D8DAE8DBF8D7C018D0104C0EE0CFF1C23
:10183000001F111F2A95D2F7A8019701888D998D55
:10184000AA8DBB8DB695A79597958795820F931F07
:10185000A41FB51F288D398D4A8D5B8DBC01CD012C
:101860000E945E19DA01C9018A839B83AC83BD8320
:1018700070C08981082E000C990B9C012D5F3F4F91
:10188000888D998DAA8DBB8D04C0880F991FAA1FC2
:10189000BB1F2A95D2F7888F998FAA8FBB8F888D0F
:1018A000998DAA8DBB8D9C01AD01569547953795B5
:1018B00027958C8D9D8DAE8DBF8D820F931FA41F9C
:1018C000B51F288D398D4A8D5B8DBC01CD010E94DD
:1018D0005E19DA01C9018A839B83AC83BD8339C059
:1018E0008981082E000C990B9C012D5F3F4F888D3C
:1018F000998DAA8DBB8D04C0880F991FAA1FBB1F8D
:101900002A95D2F7888F998FAA8FBB8F888D998D52
:10191000AA8DBB8D9C01AD015695479537952795AE
:101920008C8D9D8DAE8DBF8D820F931FA41FB51F13
:10193000288D398D4A8D5B8DBC01CD010E945E19C9
:10194000DA01C9010197A109B1098A839B83AC839C
:10195000BD838A819B81AC81BD81892F9A2FAB2F5A
:10196000BB27982F9F7089818295807F292F282BF4
:101970008E899F89FC0127832A818E899F89FC019A
:10198000268381E06F96CDBFDEBFDF91CF911F919F
:101990000F91FF90EF900895CF93DF93CDB7DEB70F
:1019A0002E97CDBFDEBF89879A876B877C874D874F
:1019B0005E871B821C8219821A8269C029853A853A
:1019C00089819A81820F931FFC0180818A337CF088
:1019D00029853A8589819A81820F931FFC01808134
:1019E0008062082E000C990B875591090CC029853F
:1019F0003A8589819A81820F931FFC018081082E8C
:101A0000000C990BC0978D839E8389819A810196E2
:101A100029853A85820F931FFC0180818A3384F0E7
:101A200089819A81019629853A85820F931FFC014D
:101A300080818062082E000C990B875591090DC09A
:101A400089819A81019629853A85820F931FFC012D
:101A50008081082E000C990BC0978F8398872D8565
:101A60003E858B819C81820F931F2D81322F329571
:101A7000307F2F81232BFC01208389819A8102965C
:101A800089839A838B819C8101968B839C838B8530
:101A90009C8529813A812817390708F48FCF8D85D5
:101AA0009E852E96CDBFDEBFDF91CF910895CF9357
:101AB000DF93CDB7DEB72A97CDBFDEBF8D839E8380
:101AC0006F83788749875A871B821C8219821A8202
:101AD0003FC08B819C819C012F5F3F4F2B833C83B8
:101AE00029853A85820F931F4D815E8129813A8134
:101AF000240F351FF901208122952F70222F30E00D
:101B0000245F3E4DF9012081FC0120838B819C8163
:101B10009C012F5F3F4F2B833C8329853A85820FA1
:101B2000931F4D815E8129813A81240F351FF90170
:101B30002081222F30E02F703327245F3E4DF901A2
:101B40002081FC01208389819A81019689839A836F
:101B50008F81988529813A812817390708F4B9CFF0
:101B600029853A858B819C81820F931FFC0110820D
:101B700000002A96CDBFDEBFDF91CF910895CF93AD
:101B8000DF93CDB7DEB72A97CDBFDEBF8A878A85C0
:101B900089831A8289818B838B818C838C81869542
:101BA000869586958D838D81882F90E0880F991F6B
:101BB00082959295907F9827807F98279A5F8E8351
:101BC0009F838A818823A9F0898188878885882FC7
:101BD00090E09C012770332781E090E002C0880FDD
:101BE000991F2A95E2F7282F8E819F81FC0125837A
:101BF00014C0898189878985882F90E09C0127708E
:101C0000332781E090E002C0880F991F2A95E2F700
:101C1000282F8E819F81FC01268300002A96CDBF4C
:101C2000DEBFDF91CF910895CF93DF93CDB7DEB7BD
:101C30002A97CDBFDEBF8A878A85898381E08A8320
:101C400089818B838B818C838C8186958695869503
:101C50008D838D81882F90E0880F991F82959295B2
:101C6000907F9827807F98279A5F8E839F838A81B1
:101C70008823A9F0898188878885882F90E09C0136
:101C80002770332781E090E002C0880F991F2A95C2
:101C9000E2F7282F8E819F81FC01258314C0898162
:101CA00089878985882F90E09C012770332781E000
:101CB00090E002C0880F991F2A95E2F7282F8E81A5
:101CC0009F81FC01268300002A96CDBFDEBFDF91F5
:101CD000CF910895CF93DF93CDB7DEB70000DF91AA
:101CE000CF910895CF93DF93CDB7DEB72B97CDBFBC
:101CF000DEBF8A876B878A8589838B858A83898102
:101D00008B838B818C838C818695869586958D833C
:101D10008D81882F90E0880F991F82959295907FF2
:101D20009827807F98279A5F8E839F838A8181304E
:101D3000A9F4898188878885882F90E09C01277085
:101D4000332781E090E002C0880F991F2A95E2F7BF
:101D5000282F8E819F81FC01218317C08A818823CF
:101D6000A1F4898189878985882F90E09C0127705B
:101D7000332781E090E002C0880F991F2A95E2F78F
:101D8000282F8E819F81FC01228300002B96CDBFDE
:101D9000DEBFDF91CF910895CF93DF93CDB7DEB74C
:101DA00080EA90E027E0FC0122830000DF91CF91E0
:101DB0000895CF93DF9300D0CDB7DEB789839A83A0
:101DC0006B8389819A81FC018681282F2C7F8981F0
:101DD0009A81FC01268389819A81FC0196818B81FD
:101DE000292F282B89819A81FC01268300002396C4
:101DF000CDBFDEBFDF91CF910895CF93DF9300D0A9
:101E0000CDB7DEB789839A836B8389819A81FC0180
:101E10008081982F907F8B81892B282F89819A81AF
:101E2000FC01208300002396CDBFDEBFDF91CF9160
:101E30000895CF93DF9300D0CDB7DEB789839A831F
:101E40006B838B81882359F489819A81FC01808579
:101E50008E6F282F89819A81FC0120870AC0898191
:101E60009A81FC018185282F216089819A81FC015A
:101E7000218700002396CDBFDEBFDF91CF9108956B
:101E8000CF93DF9300D01F92CDB7DEB789839A83BB
:101E90006B837C8389819A812B813C81FC0120A307
:101EA00031A300002496CDBFDEBFDF91CF9108950E
:101EB000CF93DF931F921F92CDB7DEB789839A83AA
:101EC00089819A81FC0180A191A10F900F90DF91EF
:101ED000CF910895CF93DF9300D01F92CDB7DEB797
:101EE00089839A836B837C8389819A812B813C814E
:101EF000FC0126A337A300002496CDBFDEBFDF91EF
:101F0000CF910895CF93DF931F921F92CDB7DEB785
:101F100089839A8389819A81FC018485282F216095
:101F200089819A81FC01248700000F900F90DF9136
:101F3000CF910895CF93DF9300D0CDB7DEB78983DB
:101F40009A836B8389819A81FC018181982F987F84
:101F50008B81892B282F89819A81FC0121830000A4
:101F60002396CDBFDEBFDF91CF910895CF93DF934E
:101F7000CDB7DEB72B97CDBFDEBF888799876A873D
:101F80007B878A859B85FC0184818D838A859B85DF
:101F9000FC0185818E838A859B85FC0186818F83E8
:101FA0008A859B85FC0180819181A281B38189838F
:101FB0009A83AB83BC8388859985803A984019F4CD
:101FC00060E183E032D388859985803A994019F49D
:101FD00060E184E02AD3888599859E012F5F3F4F79
:101FE000B9019EDA882311F081E001C080E02B96D0
:101FF000CDBFDEBFDF91CF910895CF93DF9300D0A7
:10200000CDB7DEB789839A836B8389819A816B818F
:10201000CDDA2396CDBFDEBFDF91CF910895CF9368
:10202000DF9300D01F92CDB7DEB789839A836B838D
:102030007C8389819A81D8DA282F8B819C81FC014D
:10204000208300002496CDBFDEBFDF91CF9108959D
:10205000CF93DF9300D000D0CDB7DEB71C821D82B6
:10206000B6D019821A82CE010696BC0180EA98E0A9
:10207000D6DF8E81883719F419821A82A7C08E8123
:102080008B3621F4198281E08A83A0C08E8180374B
:1020900021F4198282E08A8399C08A81813021F5F6
:1020A0008E818A3019F08E818D3091F48981882F4C
:1020B00090E0865A9E4DFC0110828981882F90E025
:1020C0004AEF51E2BC018AE591E266DC1A827EC0E9
:1020D000898191E0980F9983882F90E02E81865A0C
:1020E0009E4DFC012083BFCF8A81823009F0BBCF97
:1020F0008E818A3021F08E818D3009F057C0898120
:10210000882F90E0865A9E4DFC0110828981882F8D
:1021100090E04AE951E2BC018AE591E23DDC60E0F1
:1021200070E080E098E0ACDE61E080E098E065DEA1
:1021300080E07ADD76D180E098E0BADE8C839D8302
:1021400060E080E098E035DE60E080E098E055DE19
:1021500080E015DD4AE551E260E170E08AEE91E24F
:10216000A6DC62E780EA98E048DF1B820EC08B8124
:10217000882F90E0865A9E4DFC018081682F80EA6E
:1021800098E03BDF8B818F5F8B838B81803278F38C
:102190006AE080EA98E031DF809124219091252146
:1021A00070D08C819D816DD01A8210C0898180345D
:1021B00010F01A8258CF898191E0980F9983882F67
:1021C00090E02E81865A9E4DFC0120834CCFCF9308
:1021D000DF93CDB7DEB7F8D17DDD61E083E182DD4D
:1021E00060E082E17FDD61E080E07CDD61E085E050
:1021F00079DD85E0C4DC61E086E074DD86E014DD35
:102200006CE171E280EA98E0B1DEC6DD80E098E042
:10221000B6D764E271E180E098E0F7D760E080E053
:1022200098E088DE61EE72E080E098E053DE61E0E5
:1022300080E098E0BEDD789460E080E098E0F9DD31
:102240000000DF91CF910895CF93DF93CDB7DEB734
:1022500080912421909125210196809324219093AF
:102260002521809126219091272101968093262176
:102270009093272180E098E045DE0000DF91CF9128
:102280000895CF93DF93CDB7DEB72897CDBFDEBFDC
:102290008F8398878F819885929582958F708927F3
:1022A0009F7089279C01A7E4B3E00E94801996954E
:1022B000879596958795969587958A838F8198853A
:1022C0009695879596958795969587959C01A5EC0B
:1022D000B0E20E948019AC01529542954F7045279B
:1022E0005F7045279A01ADECBCEC0E948019969571
:1022F00087959695879596958795880F991F9C0148
:10230000220F331F220F331F820F931F9A01281BA6
:10231000390BC9018B838F81988596958795969502
:1023200087959C01ABE7B4E1EBD7AC015695479597
:102330009A01ADECBCECE4D7969587959695879578
:1023400096958795880F991F9C01220F331F220FA6
:10235000331F820F931FFA01E81BF90BCF018C8307
:102360008F8198859C01ADECBCECCAD7AC01569529
:10237000479556954795569547959A01ADECBCEC17
:10238000BFD7969587959695879596958795880F4B
:10239000991F9C01220F331F220F331F820F931F9F
:1023A0009A01281B390BC9018D834F8158859A01E9
:1023B000ADECBCECA5D796958795969587959695A7
:1023C0008795880F991F9C01220F331F220F331FFF
:1023D000820F931FFA01E81BF90BCF018E8319823C
:1023E00012C08981882F90E09E012E5F3F4F820F9F
:1023F000931FFC018081805D682F80EA98E0FDDDFD
:1024000089818F5F89838981853058F36AE080EA0A
:1024100098E0F3DD00002896CDBFDEBFDF91CF91BD
:102420000895CF93DF931F921F92CDB7DEB780E15F
:1024300090E00E94B70789839A8389819A81BC01C1
:102440008AEF91E20E94EF0589819A81AC016AEEE0
:1024500071E28AE991E20E940A0800000F900F9051
:10246000DF91CF910895CF93DF931F92CDB7DEB761
:102470008FE390E0FC0180818983F89489810F903B
:10248000DF91CF910895CF93DF931F92CDB7DEB741
:1024900089838FE390E02981FC01208300000F9065
:1024A000DF91CF910895CF93DF931F921F92CDB705
:1024B000DEB78A83D8DF898380E590E020E530E0CD
:1024C000F90130812A81232BFC0120838981DBDF04
:1024D00000000F900F90DF91CF910895CF93DF937D
:1024E0001F921F92CDB7DEB78A8380E590E0FC0192
:1024F0001282B9DF898380E590E020E530E0F901C0
:1025000030812A81232BFC0120838981BCDF0000DC
:102510000F900F90DF91CF910895CF93DF931F928B
:102520001F92CDB7DEB78A839EDF898380E590E076
:1025300020E530E0F9012081322F2A8120952323E4
:10254000FC01208389819FDF00000F900F90DF91B5
:10255000CF910895CF93DF931F92CDB7DEB78983D4
:102560008981883019F089819EDF02C08981B6DFB8
:1025700000000F90DF91CF910895CF93DF931F92CA
:10258000CDB7DEB7898380E590E0FC019181898138
:10259000982381E0992309F480E00F90DF91CF9197
:1025A0000895CF93DF931F92CDB7DEB789830000E4
:1025B0008981E3DF982F81E089278823C9F700000C
:1025C0000F90DF91CF910895CF93DF9300D01F92AA
:1025D000CDB7DEB780E790E089839A831C821B82A7
:1025E0000DC089819A819C012F5F3F4F29833A83D7
:1025F0002FEFFC0120838B818F5F8B838B81873052
:1026000080F388E0A7DF88E0CCDF000063E080E4AF
:1026100090E03BD68C81882311F481E07EDF249604
:10262000CDBFDEBFDF91CF910895CF93DF9300D070
:10263000CDB7DEB78A836B8316DF89838A81882FC3
:1026400090E080599F4F2A81222F30E020593F4F40
:10265000F9012081322F2B8120952323FC01208337
:10266000898111DF00002396CDBFDEBFDF91CF91BE
:102670000895CF93DF931F92CDB7DEB78FE390E03D
:10268000FC0180818983F89489810F90DF91CF913B
:102690000895CF93DF931F92CDB7DEB789838FE381
:1026A00090E02981FC01208300000F90DF91CF9101
:1026B0000895CF93DF931F921F92CDB7DEB78A8321
:1026C0008A81882F90E0865F9D4DFC0180818F3F3D
:1026D00009F4FFCFCEDF89838A81882F90E09C01A7
:1026E000265F3D4DF90120812F5F865F9D4DFC01E6
:1026F00020838981CEDF00000F900F90DF91CF9172
:1027000008951F920F9200903F000F9211240090A5
:102710003B000F922F933F934F935F936F937F9361
:102720008F939F93AF93BF93EF93FF93CF93DF93D9
:10273000CDB7DEB78091282190912921892B31F0E6
:102740008091282190912921FC0119950000DF91A9
:10275000CF91FF91EF91BF91AF919F918F917F9119
:102760006F915F914F913F912F910F9000923B009D
:102770000F9000923F000F901F9018951F920F929C
:1027800000903F000F92112400903B000F922F9376
:102790003F934F935F936F937F938F939F93AF93E9
:1027A000BF93EF93FF93CF93DF93CDB7DEB78091C5
:1027B0002A2190912B21892B31F080912A2190910F
:1027C0002B21FC0119950000DF91CF91FF91EF9132
:1027D000BF91AF919F918F917F916F915F914F9139
:1027E0003F912F910F9000923B000F9000923F007D
:1027F0000F901F9018951F920F9200903F000F921C
:10280000112400903B000F922F933F934F935F93BF
:102810006F937F938F939F93AF93BF93EF93FF93A8
:10282000CF93DF93CDB7DEB780912C2190912D21EE
:10283000892B31F080912C2190912D21FC0119954B
:102840000000DF91CF91FF91EF91BF91AF919F91E8
:102850008F917F916F915F914F913F912F910F9049
:1028600000923B000F9000923F000F901F90189530
:102870001F920F9200903F000F92112400903B0096
:102880000F922F933F934F935F936F937F938F9309
:102890009F93AF93BF93EF93FF93CF93DF93CDB706
:1028A000DEB780912E2190912F21892B31F08091DC
:1028B0002E2190912F21FC0119950000DF91CF91DD
:1028C000FF91EF91BF91AF919F918F917F916F9108
:1028D0005F914F913F912F910F9000923B000F908D
:1028E00000923F000F901F9018951F920F9200903A
:1028F0003F000F92112400903B000F922F933F93C3
:102900004F935F936F937F938F939F93AF93BF93F7
:10291000EF93FF93CF93DF93CDB7DEB78091302154
:1029200090913121892B31F080913021909131218A
:10293000FC0119950000DF91CF91FF91EF91BF91BC
:10294000AF919F918F917F916F915F914F913F9147
:102950002F910F9000923B000F9000923F000F903C
:102960001F9018951F920F9200903F000F92112414
:1029700000903B000F922F933F934F935F936F9381
:102980007F938F939F93AF93BF93EF93FF93CF93D7
:10299000DF93CDB7DEB78091322190913321892B1F
:1029A00031F08091322190913321FC011995000082
:1029B000DF91CF91FF91EF91BF91AF919F918F9157
:1029C0007F916F915F914F913F912F910F90009266
:1029D0003B000F9000923F000F901F9018951F92A0
:1029E0000F9200903F000F92112400903B000F9235
:1029F0002F933F934F935F936F937F938F939F9307
:102A0000AF93BF93EF93FF93CF93DF93CDB7DEB731
:102A10008091342190913521892B31F0809134219E
:102A200090913521FC0119950000DF91CF91FF9124
:102A3000EF91BF91AF919F918F917F916F915F9136
:102A40004F913F912F910F9000923B000F90009279
:102A50003F000F901F9018951F920F9200903F001B
:102A60000F92112400903B000F922F933F934F93AE
:102A70005F936F937F938F939F93AF93BF93EF93E6
:102A8000FF93CF93DF93CDB7DEB78091362190913E
:102A90003721892B31F08091362190913721FC012B
:102AA00019950000DF91CF91FF91EF91BF91AF9108
:102AB0009F918F917F916F915F914F913F912F9156
:102AC0000F9000923B000F9000923F000F901F90DC
:102AD00018951F920F9200903F000F9211240090C2
:102AE0003B000F922F933F934F935F936F937F938E
:102AF0008F939F93AF93BF93EF93FF93CF93DF9306
:102B0000CDB7DEB78091382190913921892B31F0F2
:102B10008091382190913921FC0119950000DF91B5
:102B2000CF91FF91EF91BF91AF919F918F917F9145
:102B30006F915F914F913F912F910F9000923B00C9
:102B40000F9000923F000F901F9018951F920F92C8
:102B500000903F000F92112400903B000F922F93A2
:102B60003F934F935F936F937F938F939F93AF9315
:102B7000BF93EF93FF93CF93DF93CDB7DEB78091F1
:102B80003A2190913B21892B31F080913A2190910B
:102B90003B21FC0119950000DF91CF91FF91EF914E
:102BA000BF91AF919F918F917F916F915F914F9165
:102BB0003F912F910F9000923B000F9000923F00A9
:102BC0000F901F9018951F920F9200903F000F9248
:102BD000112400903B000F922F933F934F935F93EC
:102BE0006F937F938F939F93AF93BF93EF93FF93D5
:102BF000CF93DF93CDB7DEB780913C2190913D21FB
:102C0000892B31F080913C2190913D21FC01199557
:102C10000000DF91CF91FF91EF91BF91AF919F9114
:102C20008F917F916F915F914F913F912F910F9075
:102C300000923B000F9000923F000F901F9018955C
:102C40001F920F9200903F000F92112400903B00C2
:102C50000F922F933F934F935F936F937F938F9335
:102C60009F93AF93BF93EF93FF93CF93DF93CDB732
:102C7000DEB780913E2190913F21892B31F08091E8
:102C80003E2190913F21FC0119950000DF91CF91E9
:102C9000FF91EF91BF91AF919F918F917F916F9134
:102CA0005F914F913F912F910F9000923B000F90B9
:102CB00000923F000F901F9018951F920F92009066
:102CC0003F000F92112400903B000F922F933F93EF
:102CD0004F935F936F937F938F939F93AF93BF9324
:102CE000EF93FF93CF93DF93CDB7DEB78091402171
:102CF00090914121892B31F0809140219091412187
:102D0000FC0119950000DF91CF91FF91EF91BF91E8
:102D1000AF919F918F917F916F915F914F913F9173
:102D20002F910F9000923B000F9000923F000F9068
:102D30001F9018951F920F9200903F000F92112440
:102D400000903B000F922F933F934F935F936F93AD
:102D50007F938F939F93AF93BF93EF93FF93CF9303
:102D6000DF93CDB7DEB78091422190914321892B2B
:102D700031F08091422190914321FC01199500008E
:102D8000DF91CF91FF91EF91BF91AF919F918F9183
:102D90007F916F915F914F913F912F910F90009292
:102DA0003B000F9000923F000F901F9018951F92CC
:102DB0000F9200903F000F92112400903B000F9261
:102DC0002F933F934F935F936F937F938F939F9333
:102DD000AF93BF93EF93FF93CF93DF93CDB7DEB75E
:102DE0008091442190914521892B31F0809144219B
:102DF00090914521FC0119950000DF91CF91FF9141
:102E0000EF91BF91AF919F918F917F916F915F9162
:102E10004F913F912F910F9000923B000F900092A5
:102E20003F000F901F9018951F920F9200903F0047
:102E30000F92112400903B000F922F933F934F93DA
:102E40005F936F937F938F939F93AF93BF93EF9312
:102E5000FF93CF93DF93CDB7DEB78091462190915A
:102E60004721892B31F08091462190914721FC0127
:102E700019950000DF91CF91FF91EF91BF91AF9134
:102E80009F918F917F916F915F914F913F912F9182
:102E90000F9000923B000F9000923F000F901F9008
:102EA00018951F920F9200903F000F9211240090EE
:102EB0003B000F922F933F934F935F936F937F93BA
:102EC0008F939F93AF93BF93EF93FF93CF93DF9332
:102ED000CDB7DEB78091482190914921892B31F0FF
:102EE0008091482190914921FC0119950000DF91C2
:102EF000CF91FF91EF91BF91AF919F918F917F9172
:102F00006F915F914F913F912F910F9000923B00F5
:102F10000F9000923F000F901F9018951F920F92F4
:102F200000903F000F92112400903B000F922F93CE
:102F30003F934F935F936F937F938F939F93AF9341
:102F4000BF93EF93FF93CF93DF93CDB7DEB780911D
:102F50004A2190914B21892B31F080914A21909107
:102F60004B21FC0119950000DF91CF91FF91EF916A
:102F7000BF91AF919F918F917F916F915F914F9191
:102F80003F912F910F9000923B000F9000923F00D5
:102F90000F901F9018951F920F9200903F000F9274
:102FA000112400903B000F922F933F934F935F9318
:102FB0006F937F938F939F93AF93BF93EF93FF9301
:102FC000CF93DF93CDB7DEB780914C2190914D2107
:102FD000892B31F080914C2190914D21FC01199564
:102FE0000000DF91CF91FF91EF91BF91AF919F9141
:102FF0008F917F916F915F914F913F912F910F90A2
:1030000000923B000F9000923F000F901F90189588
:103010001F920F9200903F000F92112400903B00EE
:103020000F922F933F934F935F936F937F938F9361
:103030009F93AF93BF93EF93FF93CF93DF93CDB75E
:10304000DEB780914E2190914F21892B31F08091F4
:103050004E2190914F21FC0119950000DF91CF91F5
:10306000FF91EF91BF91AF919F918F917F916F9160
:103070005F914F913F912F910F9000923B000F90E5
:1030800000923F000F901F9018951F920F92009092
:103090003F000F92112400903B000F922F933F931B
:1030A0004F935F936F937F938F939F93AF93BF9350
:1030B000EF93FF93CF93DF93CDB7DEB7809150218D
:1030C00090915121892B31F0809150219091512183
:1030D000FC0119950000DF91CF91FF91EF91BF9115
:1030E000AF919F918F917F916F915F914F913F91A0
:1030F0002F910F9000923B000F9000923F000F9095
:103100001F9018951F920F9200903F000F9211246C
:1031100000903B000F922F933F934F935F936F93D9
:103120007F938F939F93AF93BF93EF93FF93CF932F
:10313000DF93CDB7DEB78091522190915321892B37
:1031400031F08091522190915321FC01199500009A
:10315000DF91CF91FF91EF91BF91AF919F918F91AF
:103160007F916F915F914F913F912F910F900092BE
:103170003B000F9000923F000F901F901895CF9347
:10318000DF9300D0CDB7DEB78A839B8372DA898361
:103190008A819B818115984039F461E083E045DAAA
:1031A00064E083E042DA27C08A819B8180349840C2
:1031B00039F462E083E039DA64E083E036DA1BC098
:1031C0008A819B818115994039F461E084E02DDA90
:1031D00064E084E02ADA0FC08A819B8181159A40DD
:1031E00039F461E085E021DA64E085E01EDA03C0AD
:1031F00089814FDA04C081E05CDA89814ADA23965A
:10320000CDBFDEBFDF91CF910895CF93DF9300D084
:103210001F92CDB7DEB789839A836B837C838981C4
:103220009A818115984039F48B819C818093282163
:103230009093292123C089819A818034984039F460
:103240008B819C81809334219093352117C0898193
:103250009A818115994039F48B819C8180933C211E
:1032600090933D210BC089819A8181159A4031F458
:103270008B819C8180934821909349210000249662
:10328000CDBFDEBFDF91CF9108951BBEFC0128EDBD
:1032900024BF6083089597FB072E16F4009406D090
:1032A00077FD08D03CD007FC05D03EF49095819581
:1032B0009F4F0895709561957F4F0895A1E21A2E52
:1032C000AA1BBB1BFD010DC0AA1FBB1FEE1FFF1FCA
:1032D000A217B307E407F50720F0A21BB30BE40B1A
:1032E000F50B661F771F881F991F1A9469F7609561
:1032F0007095809590959B01AC01BD01CF0108951B
:10330000A29FB001B39FC001A39F700D811D112426
:10331000911DB29F700D811D1124911D0895AA1B4E
:10332000BB1B51E107C0AA1FBB1FA617B70710F0B0
:10333000A61BB70B881F991F5A95A9F780959095E2
:10334000BC01CD0108950F931F93CF93DF9382307B
:10335000910510F482E090E0E0911222F0911322A6
:1033600020E030E0A0E0B0E0309719F140815181D9
:103370000281138148175907C8F08417950769F42B
:10338000109731F012960C93129713961C9327C046
:10339000009312221093132222C02115310519F037
:1033A0004217530718F49A01BD01EF01DF01F8013C
:1033B000DBCF21153105F9F0281B390B24303105FD
:1033C00080F48A819B816115710521F0FB01828364
:1033D000938304C08093122290931322FE013296AD
:1033E00044C0FE01E20FF31F8193919322503109F3
:1033F000288339833AC02091102230911122232B47
:1034000041F4209102203091032020931022309328
:10341000112220910020309101202115310541F425
:103420002DB73EB74091042050910520241B350B49
:10343000E0911022F0911122E217F307A0F42E1B65
:103440003F0B2817390778F0AC014E5F5F4F241708
:10345000350748F04E0F5F1F409310225093112202
:103460008193919302C0E0E0F0E0CF01DF91CF9132
:103470001F910F910895CF93DF93009709F481C0B6
:10348000FC01329712821382A0911222B091132272
:10349000109781F420813181820F931F2091102297
:1034A000309111222817390751F5E0931022F0933B
:1034B000112267C0ED0120E030E0CE17DF0740F4B5
:1034C0004A815B819E0141155105F1F0EA01F5CF7A
:1034D000C283D38340815181840F951FC817D907B8
:1034E00059F488819981840F951F02968083918376
:1034F0008A819B81828393832115310529F4E0938E
:103500001222F09313223DC0E901EA83FB83499123
:103510005991C40FD51FEC17FD0761F4808191818B
:10352000840F951F0296E901888399838281938194
:103530008A839B83E0E0F0E012968D919C91139733
:10354000009719F0FD01DC01F7CF8D919C91119747
:103550009D012E5F3F4F820F931F209110223091CB
:1035600011222817390769F4309729F41092122292
:103570001092132202C012821382A0931022B093E1
:0C3580001122DF91CF910895F894FFCF45
:10358C000000142220000400637C777BF26B6FC573
:10359C003001672BFED7AB76CA82C97DFA5947F04A
:1035AC00ADD4A2AF9CA472C0B7FD9326363FF7CC26
:1035BC0034A5E5F171D8311504C723C31896059AC3
:1035CC00071280E2EB27B27509832C1A1B6E5AA0E6
:1035DC00523BD6B329E32F8453D100ED20FCB15BD1
:1035EC006ACBBE394A4C58CFD0EFAAFB434D33853A
:1035FC0045F9027F503C9FA851A3408F929D38F50E
:10360C00BCB6DA2110FFF3D2CD0C13EC5F97441744
:10361C00C4A77E3D645D197360814FDC222A9088BB
:10362C0046EEB814DE5E0BDBE0323A0A4906245C47
:10363C00C2D3AC629195E479E7C8376D8DD54EA9AC
:10364C006C56F4EA657AAE08BA78252E1CA6B4C678
:10365C00E8DD741F4BBD8B8A703EB5664803F60ED1
:10366C00613557B986C11D9EE1F8981169D98E94C0
:10367C009B1E87E9CE5528DF8CA1890DBFE64268D9
:10368C0041992D0FB054BB1602000000303132337B
:10369C0034353637383941424344454600960000AC
:0436AC000300000017
:00000001FF
