S01C000043574D61736B416E6452616E644368616F7469632E737265638F
S1130000B5C00000D4C00000D2C00000D0C00000C1
S1130010CEC00000CCC00000CAC00000C8C00000B0
S1130020C6C00000C4C00000C2C00000C0C00000C0
S1130030BEC00000BCC000000C94E00A0C940D0B80
S11300400C943A0B0C94670B0C94940B0C94C10B0A
S11300500C94EE0B0C941B0C0C94480C0C94750C27
S1130060A6C00000A4C00000A2C00000A0C0000000
S11300709EC000009CC000009AC0000098C0000010
S113008096C0000094C0000092C0000090C0000020
S11300908EC000008CC000008AC0000088C0000030
S11300A086C0000084C0000082C0000080C0000040
S11300B07EC000007CC000007AC000000C94B00D2B
S11300C00C94DD0D0C940A0E0C94370E0C94640EF3
S11300D00C94910E6CC000006AC0000068C000005F
S11300E066C0000064C0000062C0000060C0000080
S11300F05EC000005CC000005AC0000058C0000090
S113010056C0000054C0000052C0000050C000009F
S11301104EC000004CC000004AC0000048C00000AF
S113012046C0000044C0000042C0000040C00000BF
S11301303EC000000C94A20C0C94CF0C0C94FC0C4C
S11301400C94290D0C94560D0C94830D30C00000B2
S11301502EC000002CC000002AC0000028C00000EF
S113016026C0000024C0000022C0000011241FBECD
S1130170CFEFCDBFDFE3DEBF00E00CBF11E2A0E0B4
S1130180B0E2ECEDF0E200E00BBF02C007900D928C
S1130190A832B107D9F722E2A8E2B1E201C01D9268
S11301A0A632B207E1F70E94020A0C946C1028CF21
S11301B0FC01918195FFFDCF608380E090E008957C
S11301C0FC0191819923ECF7808108954F925F920D
S11301D06F927F928F929F92AF92BF92EF92FF9213
S11301E00F931F93CF937C014A015B0128013901CE
S11301F0FC01848182FF16C0D901C801689412F8F9
S1130200B695A795979587951694D1F7B901A80146
S1130210032E36E176956795579547953A95D1F72C
S1130220302D15C0D901C801689413F8B695A79567
S1130230979587951694D1F7B901A801032E37E154
S113024076956795579547953A95D1F7302D88154A
S11302509905AA05BB0508F4A6C084169506A6064A
S1130260B70608F4A2C0F701848182FD04C0880C9B
S1130270991CAA1CBB1CC301B201A50194010E94D4
S1130280370F2F3F31054105510508F490C08FEF1A
S113029090E0A0E0B0E0C9EF05C0281739074A078D
S11302A05B0758F0880F991FAA1FBB1FCD3F0CF4A2
S11302B08160CF5FC73089F74FC0CC230CF04CC0AE
S11302C0D501C401880F991FAA1FBB1F880F991F4E
S11302D0AA1FBB1F880F991FAA1FBB1F481A590AC0
S11302E06A0A7B0ACE3FF4F48DEF9FEF8C1B9109D1
S11302F0C7FD939504C0440C551C661C771C8A9555
S1130300D2F7D501C401B695A79597958795BC01F9
S1130310CD01640D751D861D971DA50194010E94D4
S1130320370F37C083E08C0FA501940104C0220F5E
S1130330331F441F551F8A95D2F7DA01C901B695B8
S1130340A79597958795BC01CD01640D751D861DF4
S1130350971D0E94370F1DC083E08C0FA5019401E7
S113036004C0220F331F441F551F8A95D2F7DA01A8
S1130370C901B695A79597958795BC01CD01640DE4
S1130380751D861D971D0E94370F215031094109A3
S11303905109832F8F70C295C07FC82BF701C78383
S11303A0268381E018C080E016C080E014C0D50127
S11303B0C401880F991FAA1FBB1F880F991FAA1F6A
S11303C0BB1F880F991FAA1FBB1F481A590A6A0A24
S11303D07B0AC9EF89CFCF911F910F91FF90EF90C6
S11303E0BF90AF909F908F907F906F905F904F9051
S11303F008950F931F93CF93DF93EC018B01892B07
S113040009F486C0C11584E0D80729F464E080E0CB
S11304100E94CA0A7DC0C038E1E0DE0729F462E028
S113042080E00E94CA0A74C0C038F3E0DF0729F4F0
S113043061E081E00E94CA0A6BC0C11582E0D8075E
S113044029F462E081E00E94CA0A62C0C115E8E0B2
S1130450DE0729F461E083E00E94CA0A59C0C1158D
S1130460F9E0DF0729F461E084E00E94CA0A50C081
S1130470C1158AE0D80729F461E085E00E94CA0A20
S113048047C0C034E8E0DE0729F462E083E00E945C
S1130490CA0A3EC0C039F8E0DF0729F464E083E00B
S11304A00E94CA0A35C0C03C88E0D80729F468E035
S11304B083E00E94CA0A2CC0C03CE9E0DE0729F4AC
S11304C068E084E00E94CA0A23C0C03AF8E0DF076B
S11304D029F460E183E00E94CA0A1AC0C03A89E0A4
S11304E0D80729F460E184E00E94CA0A11C0C03828
S11304F0E4E0DE0729F460E483E00E94CA0A08C04D
S1130500C03AF4E0DF0721F460E485E00E94CA0AFF
S11305108D818F738D83F80195818481892B9681D8
S1130520911198E0892B8D83F8014081518162817A
S1130530738100E115E720E730E0CE0147DE9C81BE
S113054098609C839C8190619C83DF91CF911F91E3
S11305500F910895EF92FF920F931F93CF93DF9320
S1130560062F172F0115110589F1E82FF92FE42E15
S1130570F52EA0E0B0E0BF0120812A333CF02062D8
S1130580022E000C330B2755310905C0022E000C36
S1130590330B20533109EB0169816A333CF060620B
S11305A0062E000C770B6755710905C0062E000C4A
S11305B0770B605371092295207F622BE7016993C1
S11305C07E0112963296A017B107A8F2842F952FB8
S11305D0DF91CF911F910F91FF90EF900895CF93EA
S11305E0DF9361157105E9F0EA01DC01860F971FBD
S11305F09D01ED91E295EF70F0E0E050F04EE08166
S1130600E883F9012081E22FEF70F0E0E050F04E32
S1130610208129832296A817B90751F7660F771FFF
S113062002C060E070E0FA01E60FF71F1082DF916C
S1130630CF910895EF92FF920F931F93CF93DF937F
S1130640CDB7DEB76097CDBFDEBF8C0120E1E8E116
S1130650F1E2CE010196DC0101900D922A95E1F7B9
S1130660FC01BE016F5E7F4FDC0180E090E041E061
S113067050E09D012E1B3F0B7A0102C0EE0CFF1CC3
S11306802A95E2F7970120233123232B51F09A0175
S11306900C9002C0220F331F0A94E2F7822B932B93
S11306A00BC09A010C9002C0220F331F0A94E2F788
S11306B020953095822393231196A617B707C9F680
S11306C06096CDBFDEBFDF91CF911F910F91FF9058
S11306D0EF9008952F923F924F925F926F927F9284
S11306E08F929F92AF92BF92CF92DF92EF92FF923E
S11306F00F931F93CF93DF93CDB7DEB72C97CDBF66
S1130700DEBF7B018C0120E030E0A9016983FA821D
S11307100B831C832D833E834F835887262F3F2DC5
S1130720402F512F60E070E080E090E0211531050A
S113073000E240075105610571058105910511F03D
S113074008F08DC0A22EB32EC42ED52EE12CF12C90
S113075000E010E00E94680F622E732E842E952E06
S11307606C877B8789879A87A22EB32EC42ED52EB9
S1130770E62EF72E082F192F29813A814B815C81AF
S113078060E070E080E090E00E94680F0CE30E945B
S11307903210222E332E442E552EB62FA72FF82F8B
S11307A0E92F29813A814B815C8160E070E080E02F
S11307B090E003E00E941710A980BA80CB80DC800F
S11307C0E12CF12C00E010E00E944E10A22EB32E7A
S11307D0C42ED52EE62EF72E082F192F222D332DB9
S11307E0442D552D6B2F7A2F8F2F9E2F0E944E1044
S11307F0222E332E442E552EB62FA72FF82FE92F55
S1130800262D372D482D592D6C857B8589859A8514
S113081001E00E941710A62CB72CC82CD92CEC840C
S1130820FB8409851A850E944E100DE10E94321046
S1130830A22EB32EC42ED52EE62EF72E082F192F56
S1130840222D332D442D552D6B2F7A2F8F2F9E2F34
S11308500E945710822E932EA42EB52E04C0812CF4
S1130860912CA12CB12C29813A814B815C8160E0CF
S113087070E080E090E02150310940425109610963
S11308807109810991092F3F3F4F4F4D5F43610526
S113089071058105910511F008F088C0A980BA801E
S11308A0CB80DC80E12CF12C00E010E02A2D3B2DE4
S11308B04C2D5D2D60E070E080E090E00E94680FB8
S11308C0622E732E842E952E6C877B87482E592E8C
S11308D00EE10E94321000E00E94680F0EE10E94B7
S11308E03210222E332E49875A87B62FA72FF82F7E
S11308F0E92F262D372D482D592D6C857B85842D88
S1130900952D01E00E941710A62CB72CC82CD92CC9
S1130910EC84FB84042D152D0E944E100DE10E94E1
S11309203210A22EB32EC42ED52EE62EF72E082F6B
S1130930192F222D332D49855A856B2F7A2F8F2F0E
S11309409E2F0E945710822E932E4A875987B62FC6
S1130950A72FF82FE92F29813A814B815C8160E030
S113096070E080E090E003E00E941710A980BA8054
S1130970CB80DC80E12CF12C00E010E00E944E10D2
S1130980A22EB32EC42ED52EE62EF72E082F192F05
S1130990282D392D4A8559856B2F7A2F8F2F9E2F1D
S11309A00E944E10822E932EA42EB52E29813A81B8
S11309B04B815C8160E070E080E090E021153105BE
S11309C04105E0E45E07610571058105910509F0C3
S11309D008F481C0A22EB32EC42ED52EE12CF12C06
S11309E000E010E00E94680F422E532E642E752EF4
S11309F0862E972E8C879B8700E20E94321000E09F
S1130A000E94680F0CE10E943210222E332EB42F64
S1130A10A52FF62FE72F89879A87242D352D462D6C
S1130A20572D682D792D8C859B850DE10E94321000
S1130A30A22EB32EC42ED52EE62EF72E8B87192F79
S1130A4001E00E9417100B850E944E10A22EB32EB7
S1130A50C42ED52EE62EF72E082F192F222D332D36
S1130A604B2F5A2F6F2F7E2F89859A850E945710FE
S1130A70822E932E4A875987B62FA72FF82FE92F56
S1130A8029813A814B815C8160E070E080E090E0F4
S1130A9003E00E941710A980BA80CB80DC80E12C8F
S1130AA0F12C00E010E00E944E10A22EB32EC42EB2
S1130AB0D52EE62EF72E082F192F282D392D4A85ED
S1130AC059856B2F7A2F8F2F9E2F0E944E10822EC6
S1130AD0932EA42EB52E29813A814B815C8160E04E
S1130AE070E080E090E0A0E00E94601049F02115E1
S1130AF031054105504C610571058105910539F4B5
S1130B00C501B4016F5F7F4F8F4F9F4F1AC029817A
S1130B103A814B815C8160E070E080E090E02115D7
S1130B20310541055048610571058105910539F488
S1130B30C501B401615071098109910902C0C5015F
S1130B40B4012C96CDBFDEBFDF91CF911F910F91E1
S1130B50FF90EF90DF90CF90BF90AF909F908F90D9
S1130B607F906F905F904F903F902F9008952F92B9
S1130B703F924F925F926F927F928F929F92AF9229
S1130B80BF92CF92DF92EF92FF920F931F93CF9376
S1130B90DF93CDB7DEB7C654D109CDBFDEBF1B018D
S1130BA02C0126964FAF269727965FAF27977B0198
S1130BB08C0120E030E0A90169AFFAAE0BAF1CAFA5
S1130BC02DAF3EAF4FAF21965FAF21970F2EF7EABF
S1130BD0AF2EF02D0F2EF1E4BF2EF02DC12CD12C11
S1130BE0E12CF12C00E010E029AD3AAD4BAD5CAD49
S1130BF060E070E080E090E00E94680FAA24AA946C
S1130C00BB24BA94CC24CA940F2EFFE7DF2EF02D18
S1130C100E94B90F622F732F842F952F22962FAF26
S1130C20229723963FAF239724964FAF2497259678
S1130C305FAF25974FDD4E0103E1801A9108712CB7
S1130C4044C07B018C0120E030E0A90169ABFAAA21
S1130C500BAB1CAB2DAB3EAB4FAB58AF0F2EF7EA33
S1130C60AF2EF02D0F2EF1E4BF2EF02DC12CD12C80
S1130C70E12CF12C00E010E029A93AA94BA95CA9C8
S1130C8060E070E080E090E00E94680FAA24AA94DB
S1130C90BB24BA94CC24CA940F2EFFE7DF2EF02D88
S1130CA00E94B90F622F732F842F952F13DD0F2EFF
S1130CB0F5E0FF2EF02DF71428F4F401608371831E
S1130CC082839383F4E08F0E911C73940F2EFAE0C9
S1130CD0EF2EF02D7E10B5CFD2C09301820140E0FB
S1130CE050E0BA0149AA1AAB2BAB3CAB4DAB5EAB9F
S1130CF06FAB78AF440C551C661C771C440C551C18
S1130D00661C771CA02EB12EC22ED32EE12CF12C02
S1130D1000E010E02A2D3B2D4C2D5D2D60E070E0AD
S1130D2080E090E00E94680F0EE10E943210822E53
S1130D30932EA42EB52E481859086A087B0815E08E
S1130D40131530F4E9ADFAAD4082518262827382A8
S1130D5009AD1AAD0C5F1F4F09AF1AAF33941AE0F7
S1130D603112BBCF80C07C018D0120E030E0A901AD
S1130D7089ABFAAA0BAB1CAB2DAB3EAB4FAB58AF58
S1130D800F2EF7EAAF2EF02D0F2EF1E4BF2EF02D2B
S1130D90C12CD12CE12CF12C00E010E029A93AA9B6
S1130DA04BA95CA960E070E080E090E00E94680FCD
S1130DB0AA24AA94BB24BA94CC24CA940F2EFFE785
S1130DC0DF2EF02D0E94B90F122F032F812F902FA9
S1130DD0A42FB52F0F2EF5E0FF2EF02DF71428F4D5
S1130DE0F4011083018342835383F4E08F0E911C3A
S1130DF073940F2EFAE0EF2EF02D7E10B4CFFE0187
S1130E003196AE014F5E5F4FBE016F5D7F4F2696F8
S1130E102FAD269727963FAD27978A013F01F3010F
S1130E2081909190A190B1903F01FA0181919191AB
S1130E30A191B191AF01FB01C190D190E190F190EA
S1130E40BF0188259925AA25BB258C259D25AE257E
S1130E50BF25F90181939193A193B1939F016016EA
S1130E607106E9F63AC04E01FDE08F0E911C712C1B
S1130E7025968CAD9DADAEADBFAD2597B9CF3201F2
S1130E802101440C551C661C771C440C551C661C23
S1130E90771CA9ACBAACCBACDCACE12CF12C00E0F7
S1130EA010E02A2D3B2D4C2D5D2D60E070E080E09C
S1130EB090E00E94680F0EE10E943210822E932E61
S1130EC0A42EB52E481859086A087B088E010350D1
S1130ED0110909AF1AAF312C41CFCA5BDF4FCDBF27
S1130EE0DEBFDF91CF911F910F91FF90EF90DF90C4
S1130EF0CF90BF90AF909F908F907F906F905F90B6
S1130F004F903F902F9008956F927F928F929F926F
S1130F10AF92BF92CF92DF92EF92FF920F931F9303
S1130F20CF93DF93CDB7DEB7A097CDBFDEBF4C0123
S1130F30062F172FAE014F5E5F4F63E175E080E02F
S1130F4090E015DEFE01319680E0982F9370913089
S1130F50B1F028F0923019F1933089F13FC0982F05
S1130F6096959695A1E0B0E0AC0FBD1F24E0929F4A
S1130F70A00DB11D112453969C9190832FC0982FDE
S1130F8096959695A1E0B0E0AC0FBD1F24E0929F2A
S1130F90A00DB11D112452969C9190831FC0982FCF
S1130FA096959695A1E0B0E0AC0FBD1F24E0929F0A
S1130FB0A00DB11D112451969C9190830FC0982FC0
S1130FC096959695A1E0B0E0AC0FBD1F24E0929FEA
S1130FD0A00DB11D112450969C9190838F5F319682
S1130FE0803109F0B2CF5401602E712E8CE0880E4E
S1130FF0911C7E01A1E1EA0EF11C6E01B0E1CB0E61
S1131000D11C52C01196EC911197F0E0EF5EFF4DA8
S1131010808111968C9311971296EA16FB0691F72C
S11310208E010F5F1F4FF8012181E081E227F0E07C
S1131030EF5EFF4D808190E0922BFCDAD80111968F
S11310409C9311978C930E5F1F4FE016F10659F78E
S11310508981282F2695269526958295880F807E4E
S11310608983FE0131968181869586958695908146
S1131070892B819380818295880F807E8083CE1610
S1131080DF0689F78889282B288B99818985892708
S1131090F50181935F019D818D858927D3018D930E
S11310A03D01E815F90519F0DE011196ABCFA096C4
S11310B0CDBFDEBFDF91CF911F910F91FF90EF90D5
S11310C0DF90CF90BF90AF909F908F907F906F9064
S11310D008955F926F927F928F929F92AF92BF9288
S11310E0CF92DF92EF92FF920F931F93CF93DF93F0
S11310F0FC016B01808091806280738068E571E2FD
S113110084E691E201DF81E080930506000000009F
S113111000000000000000000000000000000000CB
S11311200000000050901020552079F104E611E2EF
S1131130C8E5D1E2A12CB12CE52CF12C81E0E81A10
S1131140F108D801ED918D01E6259991AE2FA70DF7
S1131150B0E0AF5EBF4D8C918927F0E0EF5EFF4DAC
S11311602081280F90E0922B65DA89269826AE1408
S1131170BF0434F4892D972C782E882D862C682E64
S1131180BFEFAB1ABB0AA514E0F281E08093060618
S1131190F6018082918262827382DF91CF911F91E6
S11311A00F91FF90EF90DF90CF90BF90AF909F9002
S11311B08F907F906F905F90089580912A219091F5
S11311C02B21019680932A2190932B218091282111
S11311D09091292101968093282190932921E0E080
S11311E0F8E08485816084870895CF93DF93CDB739
S11311F0DEB72797CDBFDEBF97D1E0E4F6E088E005
S1131200818384E08283E0E0F6E081E0818380E210
S11312108183868380E481838583E1E1F1E28481B3
S11312208D8385818E8386818F8380819181A28144
S1131230B38189839A83AB83BC8360E183E0AAD1C1
S1131240BE016F5F7F4F80EA98E0D3D887E0809338
S1131250A20080E098E092D56DED78E080E098E01F
S1131260DDD5E0E0F8E08181887F818381EE92E042
S113127086A397A386818C7F8683868181608683FB
S1131280789480858E6F80872796CDBFDEBFDF91EF
S1131290CF910895EF92FF920F931F93CF93DF9313
S11312A0CDB7DEB72597CDBFDEBFFC019C013295DB
S11312B022952F7023273F702327A7E4B3E0F9D5A5
S11312C096958795969587959695879589839F0199
S11312D0369527953695279536952795A5ECB0E252
S11312E0E8D5AC01529542954F7045275F7045276C
S11312F09A01ADECBCECDDD59695879596958795CE
S1131300969587959C01220F331F880F991F880F8C
S1131310991F880F991F820F931F481B590B4A83EB
S11313209F013695279536952795ABE7B4E1C1D54E
S1131330AC01569547959A01ADECBCECBAD596959F
S1131340879596958795969587959C01220F331FCF
S1131350880F991F880F991F880F991F820F931F59
S1131360481B590B4B839F01A4D5AC015695479557
S113137056954795569547959A019BD59695879589
S113138096958795969587959C01220F331F880F14
S1131390991F880F991F880F991F820F931F9A0115
S11313A0281B390B2C83CA01880F991F440F551F22
S11313B0440F551F440F551F480F591FE41BF50BCD
S11313C0ED838E010F5F1F4F7E0136E0E30EF11CAB
S11313D0F80161918F01605D80EA98E00E94D80075
S11313E00E151F05A9F76AE080EA98E00E94D8006C
S11313F02596CDBFDEBFDF91CF911F910F91FF9056
S1131400EF900895F2DEC0E010E0C12C6894DD2472
S1131410D3F80F2EF0E9EF2EF1E2FF2EF02D0AC0E3
S1131420C0E010E007C0C1E010E004C0C2E010E07A
S113143001C0C0E080EA98E00E94E000883781F3B0
S11314408B3689F3803791F3C130C1F48A3011F0BF
S11314508D3069F4612F70E0FB01E059FE4D10827C
S113146040E152E280E791E275D8C0E0E3CFE12F9A
S1131470F0E0E059FE4D80831F5FDCCFC230D1F62F
S11314808A3019F08D3009F045C0612F70E0FB01FE
S1131490E059FE4D108240EB51E280E791E25AD8C8
S11314A0F60110A211A28081807F8160808360E0B8
S11314B072E280EB91E20DDEF601A0A0B1A0808182
S11314C0807F808340E751E260E170E080E092E257
S11314D086D862E780EA98E00E94D800C0E7D1E2AB
S11314E0699180EA98E00E94D800CE15DF05C1F723
S11314F06AE080EA98E00E94D80080912A219091C5
S11315002B21C8DEC501C6DE10922A2110922B21A0
S1131510C0E090CF103408F08CCFE12FF0E0E05918
S1131520FE4D80831F5F86CFCF93DF931F921F9260
S1131530CDB7DEB78FEF80937000809371008093F6
S1131540720080937300809374008093750080937D
S11315507600E0E5F0E012828FB78A83F8949A81EE
S11315608081886080839FBF818183FFFDCF63E09A
S113157080E490E076D48FB78983F8949981E0E58C
S1131580F0E080818E7F80839FBF0F900F90DF916A
S1131590CF910895CF93DF931F92CDB7DEB79FB756
S11315A09983F8949981E82FF0E0E059FF4F609512
S11315B08081682360839FBF0F90DF91CF9108954E
S11315C01F920F920FB60F9211240BB60F922F9306
S11315D03F934F935F936F937F938F939F93AF93B7
S11315E0BF93EF93FF93E0915621F09157213097E9
S11315F009F01995FF91EF91BF91AF919F918F9150
S11316007F916F915F914F913F912F910F900BBEFE
S11316100F900FBE0F901F9018951F920F920FB648
S11316200F9211240BB60F922F933F934F935F9316
S11316306F937F938F939F93AF93BF93EF93FF9396
S1131640E0915421F0915521309709F01995FF91BB
S1131650EF91BF91AF919F918F917F916F915F9126
S11316604F913F912F910F900BBE0F900FBE0F9093
S11316701F9018951F920F920FB60F9211240BB65C
S11316800F922F933F934F935F936F937F938F9317
S11316909F93AF93BF93EF93FF93E0915221F09107
S11316A05321309709F01995FF91EF91BF91AF91B4
S11316B09F918F917F916F915F914F913F912F9166
S11316C00F900BBE0F900FBE0F901F9018951F9296
S11316D00F920FB60F9211240BB60F922F933F93D4
S11316E04F935F936F937F938F939F93AF93BF9326
S11316F0EF93FF93E0915021F0915121309709F03D
S11317001995FF91EF91BF91AF919F918F917F9127
S11317106F915F914F913F912F910F900BBE0F905E
S11317200FBE0F901F9018951F920F920FB60F9235
S113173011240BB60F922F933F934F935F936F93A4
S11317407F938F939F93AF93BF93EF93FF93E09116
S11317504E21F0914F21309709F01995FF91EF91A7
S1131760BF91AF919F918F917F916F915F914F91B5
S11317703F912F910F900BBE0F900FBE0F901F90B3
S113178018951F920F920FB60F9211240BB60F9259
S11317902F933F934F935F936F937F938F939F9375
S11317A0AF93BF93EF93FF93E0914C21F0914D21C0
S11317B0309709F01995FF91EF91BF91AF919F91E7
S11317C08F917F916F915F914F913F912F910F90E6
S11317D00BBE0F900FBE0F901F9018951F920F9283
S11317E00FB60F9211240BB60F922F933F934F9382
S11317F05F936F937F938F939F93AF93BF93EF9375
S1131800FF93E0914A21F0914B21309709F019950B
S1131810FF91EF91BF91AF919F918F917F916F91C4
S11318205F914F913F912F910F900BBE0F900FBE80
S11318300F901F9018951F920F920FB60F921124BC
S11318400BB60F922F933F934F935F936F937F93B6
S11318508F939F93AF93BF93EF93FF93E0914821AE
S1131860F0914921309709F01995FF91EF91BF91BB
S1131870AF919F918F917F916F915F914F913F9124
S11318802F910F900BBE0F900FBE0F901F901895C5
S11318901F920F920FB60F9211240BB60F922F9333
S11318A03F934F935F936F937F938F939F93AF93E4
S11318B0BF93EF93FF93E0914621F0914721309736
S11318C009F01995FF91EF91BF91AF919F918F917D
S11318D07F916F915F914F913F912F910F900BBE2C
S11318E00F900FBE0F901F9018951F920F920FB676
S11318F00F9211240BB60F922F933F934F935F9344
S11319006F937F938F939F93AF93BF93EF93FF93C3
S1131910E0914421F0914521309709F01995FF9108
S1131920EF91BF91AF919F918F917F916F915F9153
S11319304F913F912F910F900BBE0F900FBE0F90C0
S11319401F9018951F920F920FB60F9211240BB689
S11319500F922F933F934F935F936F937F938F9344
S11319609F93AF93BF93EF93FF93E0914221F09144
S11319704321309709F01995FF91EF91BF91AF91F1
S11319809F918F917F916F915F914F913F912F9193
S11319900F900BBE0F900FBE0F901F9018951F92C3
S11319A00F920FB60F9211240BB60F922F933F9301
S11319B04F935F936F937F938F939F93AF93BF9353
S11319C0EF93FF93E0914021F0914121309709F08A
S11319D01995FF91EF91BF91AF919F918F917F9155
S11319E06F915F914F913F912F910F900BBE0F908C
S11319F00FBE0F901F9018951F920F920FB60F9263
S1131A0011240BB60F922F933F934F935F936F93D1
S1131A107F938F939F93AF93BF93EF93FF93E09143
S1131A203E21F0913F21309709F01995FF91EF91F4
S1131A30BF91AF919F918F917F916F915F914F91E2
S1131A403F912F910F900BBE0F900FBE0F901F90E0
S1131A5018951F920F920FB60F9211240BB60F9286
S1131A602F933F934F935F936F937F938F939F93A2
S1131A70AF93BF93EF93FF93E0913C21F0913D210D
S1131A80309709F01995FF91EF91BF91AF919F9114
S1131A908F917F916F915F914F913F912F910F9013
S1131AA00BBE0F900FBE0F901F9018951F920F92B0
S1131AB00FB60F9211240BB60F922F933F934F93AF
S1131AC05F936F937F938F939F93AF93BF93EF93A2
S1131AD0FF93E0913A21F0913B21309709F0199559
S1131AE0FF91EF91BF91AF919F918F917F916F91F2
S1131AF05F914F913F912F910F900BBE0F900FBEAE
S1131B000F901F9018951F920F920FB60F921124E9
S1131B100BB60F922F933F934F935F936F937F93E3
S1131B208F939F93AF93BF93EF93FF93E0913821EB
S1131B30F0913921309709F01995FF91EF91BF91F8
S1131B40AF919F918F917F916F915F914F913F9151
S1131B502F910F900BBE0F900FBE0F901F901895F2
S1131B601F920F920FB60F9211240BB60F922F9360
S1131B703F934F935F936F937F938F939F93AF9311
S1131B80BF93EF93FF93E0913621F0913721309783
S1131B9009F01995FF91EF91BF91AF919F918F91AA
S1131BA07F916F915F914F913F912F910F900BBE59
S1131BB00F900FBE0F901F9018951F920F920FB6A3
S1131BC00F9211240BB60F922F933F934F935F9371
S1131BD06F937F938F939F93AF93BF93EF93FF93F1
S1131BE0E0913421F0913521309709F01995FF9156
S1131BF0EF91BF91AF919F918F917F916F915F9181
S1131C004F913F912F910F900BBE0F900FBE0F90ED
S1131C101F9018951F920F920FB60F9211240BB6B6
S1131C200F922F933F934F935F936F937F938F9371
S1131C309F93AF93BF93EF93FF93E0913221F09181
S1131C403321309709F01995FF91EF91BF91AF912E
S1131C509F918F917F916F915F914F913F912F91C0
S1131C600F900BBE0F900FBE0F901F9018951F92F0
S1131C700F920FB60F9211240BB60F922F933F932E
S1131C804F935F936F937F938F939F93AF93BF9380
S1131C90EF93FF93E0913021F0913121309709F0D7
S1131CA01995FF91EF91BF91AF919F918F917F9182
S1131CB06F915F914F913F912F910F900BBE0F90B9
S1131CC00FBE0F901F9018951F920F920FB60F9290
S1131CD011240BB60F922F933F934F935F936F93FF
S1131CE07F938F939F93AF93BF93EF93FF93E09171
S1131CF02E21F0912F21309709F01995FF91EF9142
S1131D00BF91AF919F918F917F916F915F914F910F
S1131D103F912F910F900BBE0F900FBE0F901F900D
S1131D2018951F920F920FB60F9211240BB60F92B3
S1131D302F933F934F935F936F937F938F939F93CF
S1131D40AF93BF93EF93FF93E0912C21F0912D215A
S1131D50309709F01995FF91EF91BF91AF919F9141
S1131D608F917F916F915F914F913F912F910F9040
S1131D700BBE0F900FBE0F901F9018951F93CF931B
S1131D80DF931F921F92CDB7DEB72FB72A83F89443
S1131D901A81282F392F211588E0380739F461E09A
S1131DA083E0F8DB64E083E0F5DB22C0203488E0E4
S1131DB0380739F462E083E0EDDB64E083E0EADBDA
S1131DC017C0211589E0380739F461E084E0E2DBCB
S1131DD064E084E0DFDB0CC021153A4039F461E0B3
S1131DE085E0D8DB64E085E0D5DB02C01FBF10C00E
S1131DF0809121228F3F09F4FFCF8FB78983F89414
S1131E009981E0E2F2E281818F5F81839FBF1FBFEE
S1131E100F900F90DF91CF911F910895811528E0C5
S1131E20920729F4609356217093572108958034C2
S1131E3028E0920729F460934A2170934B21089576
S1131E40811529E0920729F460934221709343217C
S1131E50089581159A4021F46093362170933721B7
S1131E6008951BBEFC0128ED24BF60830895A1E200
S1131E701A2EAA1BBB1BFD010DC0AA1FBB1FEE1F00
S1131E80FF1FA217B307E407F50720F0A21BB30B4B
S1131E90E40BF50B661F771F881F991F1A9469F7C7
S1131EA060957095809590959B01AC01BD01CF0123
S1131EB00895A29FB001B39FC001A39F700D811D1F
S1131EC01124911DB29F700D811D1124911D08953F
S1131ED0DF93CF931F930F939A9DF02D219FF00DC5
S1131EE08B9DF00D8A9DE02DF10D039FF00D029F57
S1131EF0E00DF11D4E9DE00DF11D5E9DF00D4F9D19
S1131F00F00D7F936F93BF92AF925F934F93D50180
S1131F10D0DF8B01AC01D701CCDFEB01E80FF91F57
S1131F20D6011FD02F913F91D601C3DFC60FD71F13
S1131F30E81FF91FAF91BF9114D02F913F91B9DFE2
S1131F40C60FD71FE81FF91FD601B3DFE60FF71F2F
S1131F509801BE01CF0111240F911F91CF91DF9100
S1131F600895A7DF460F571FC81FD91F08F43196DD
S1131F700895689401C0E8948F929F92CF93DF9361
S1131F8005D0DF91CF919F908F9008958824992454
S1131F90F401E401B0E49F93AA279A158B049C04EE
S1131FA0ED05FE05CF05D007A10798F4AD2FDC2F72
S1131FB0CF2FFE2FE92D982C892E982F872F762F3F
S1131FC0652F542F432F322F2227B85031F7BF915A
S1131FD027C01B2EBF91BB27220F331F441F551F41
S1131FE0661F771F881F991F881C991CEE1FFF1FEF
S1131FF0CC1FDD1FAA1FBB1F8A149B04EC05FD0523
S1132000CE05DF05A007B10748F08A189B08EC0944
S1132010FD09CE09DF09A00BB10B21601A94E1F68A
S11320202EF49401AF01BE01CD01000C08950F936D
S1132030083090F0982F872F762F652F542F432F39
S1132040322F22270850F4CF220F331F441F551F6D
S1132050661F771F881F991F0A95B2F70F9108957D
S113206097FB10F8169400080F93083098F0085066
S1132070232F342F452F562F672F782F892F902DFC
S1132080F4CF0594979587957795679557954795D8
S1132090379527950A95AAF70F9108952A0D3B1DA8
S11320A04C1D5D1D6E1D7F1D801F911F08952A19F3
S11320B03B094C095D096E097F09800B910B08955A
S11320C00024A7FD00942A1730054005500560053B
S10F20D07005800590050895F894FFCF7A
S11320DC303132333435363738394142434445464E
S11320EC0C0109121B232B333B424A51585F666C7B
S11320FC72797F858B90969BA0A5AAAFB3B8BCC010
S113210CC4C8CBCFD3D6D9DCDFE1E4E7E9EBEEEFFF
S113211CF1F3F4F6F8F9FAFBFCFCFEFEFFFF7A7C13
S113212C7E80828486FFFFFEFEFDFCFBFAFAF9F743
S113213CF6F5F3F2F1EFEDECEAE8E7E4E2E1DFDCEB
S113214CDAD8D5D3D1CFCCCAC7C4C2BFBDBAB8B400
S113215CB1AFACA9A7A4A19E9B9795928F8C8986AD
S113216C837F7D7A7774716E6B6865625F5C5A5796
S113217C53514E4B494643403E3B393634312F2C58
S113218C2A282523221F1D1B1A1716141211100E90
S113219C0C0B090808060504040202020101017C67
S11321AC7E01828401010102020304050607090A67
S11321BC0B0D0E10131517191C1E2124272A2E3152
S11321CC34383B4044484C51565A60656A70767BAF
S11321DC80878D949BA1A8AFB7BDC6CDD5DDE6EEA7
S11321ECF70096000003000009060B080F0C020D03
S10B21FC0A04000E03050701AB
S9030000FC
